{
  "_format": "hh-sol-artifact-1",
  "contractName": "NFT",
  "sourceName": "contracts/NFT.sol",
  "abi": [
    {
      "inputs": [
        {
          "internalType": "string",
          "name": "_name",
          "type": "string"
        },
        {
          "internalType": "string",
          "name": "_symbol",
          "type": "string"
        },
        {
          "internalType": "string",
          "name": "_initBaseURI",
          "type": "string"
        },
        {
          "internalType": "string",
          "name": "_initNotRevealedUri",
          "type": "string"
        }
      ],
      "stateMutability": "nonpayable",
      "type": "constructor"
    },
    {
      "anonymous": false,
      "inputs": [
        {
          "indexed": true,
          "internalType": "address",
          "name": "owner",
          "type": "address"
        },
        {
          "indexed": true,
          "internalType": "address",
          "name": "approved",
          "type": "address"
        },
        {
          "indexed": true,
          "internalType": "uint256",
          "name": "tokenId",
          "type": "uint256"
        }
      ],
      "name": "Approval",
      "type": "event"
    },
    {
      "anonymous": false,
      "inputs": [
        {
          "indexed": true,
          "internalType": "address",
          "name": "owner",
          "type": "address"
        },
        {
          "indexed": true,
          "internalType": "address",
          "name": "operator",
          "type": "address"
        },
        {
          "indexed": false,
          "internalType": "bool",
          "name": "approved",
          "type": "bool"
        }
      ],
      "name": "ApprovalForAll",
      "type": "event"
    },
    {
      "anonymous": false,
      "inputs": [
        {
          "indexed": true,
          "internalType": "address",
          "name": "previousOwner",
          "type": "address"
        },
        {
          "indexed": true,
          "internalType": "address",
          "name": "newOwner",
          "type": "address"
        }
      ],
      "name": "OwnershipTransferred",
      "type": "event"
    },
    {
      "anonymous": false,
      "inputs": [
        {
          "indexed": true,
          "internalType": "address",
          "name": "from",
          "type": "address"
        },
        {
          "indexed": true,
          "internalType": "address",
          "name": "to",
          "type": "address"
        },
        {
          "indexed": true,
          "internalType": "uint256",
          "name": "tokenId",
          "type": "uint256"
        }
      ],
      "name": "Transfer",
      "type": "event"
    },
    {
      "inputs": [
        {
          "internalType": "address",
          "name": "to",
          "type": "address"
        },
        {
          "internalType": "uint256",
          "name": "tokenId",
          "type": "uint256"
        }
      ],
      "name": "approve",
      "outputs": [],
      "stateMutability": "nonpayable",
      "type": "function"
    },
    {
      "inputs": [
        {
          "internalType": "address",
          "name": "owner",
          "type": "address"
        }
      ],
      "name": "balanceOf",
      "outputs": [
        {
          "internalType": "uint256",
          "name": "",
          "type": "uint256"
        }
      ],
      "stateMutability": "view",
      "type": "function"
    },
    {
      "inputs": [],
      "name": "baseExtension",
      "outputs": [
        {
          "internalType": "string",
          "name": "",
          "type": "string"
        }
      ],
      "stateMutability": "view",
      "type": "function"
    },
    {
      "inputs": [],
      "name": "cost",
      "outputs": [
        {
          "internalType": "uint256",
          "name": "",
          "type": "uint256"
        }
      ],
      "stateMutability": "view",
      "type": "function"
    },
    {
      "inputs": [
        {
          "internalType": "uint256",
          "name": "tokenId",
          "type": "uint256"
        }
      ],
      "name": "getApproved",
      "outputs": [
        {
          "internalType": "address",
          "name": "",
          "type": "address"
        }
      ],
      "stateMutability": "view",
      "type": "function"
    },
    {
      "inputs": [
        {
          "internalType": "address",
          "name": "owner",
          "type": "address"
        },
        {
          "internalType": "address",
          "name": "operator",
          "type": "address"
        }
      ],
      "name": "isApprovedForAll",
      "outputs": [
        {
          "internalType": "bool",
          "name": "",
          "type": "bool"
        }
      ],
      "stateMutability": "view",
      "type": "function"
    },
    {
      "inputs": [],
      "name": "maxMintAmount",
      "outputs": [
        {
          "internalType": "uint256",
          "name": "",
          "type": "uint256"
        }
      ],
      "stateMutability": "view",
      "type": "function"
    },
    {
      "inputs": [],
      "name": "maxSupply",
      "outputs": [
        {
          "internalType": "uint256",
          "name": "",
          "type": "uint256"
        }
      ],
      "stateMutability": "view",
      "type": "function"
    },
    {
      "inputs": [
        {
          "internalType": "uint256",
          "name": "_mintAmount",
          "type": "uint256"
        }
      ],
      "name": "mint",
      "outputs": [],
      "stateMutability": "payable",
      "type": "function"
    },
    {
      "inputs": [],
      "name": "name",
      "outputs": [
        {
          "internalType": "string",
          "name": "",
          "type": "string"
        }
      ],
      "stateMutability": "view",
      "type": "function"
    },
    {
      "inputs": [],
      "name": "notRevealedUri",
      "outputs": [
        {
          "internalType": "string",
          "name": "",
          "type": "string"
        }
      ],
      "stateMutability": "view",
      "type": "function"
    },
    {
      "inputs": [],
      "name": "owner",
      "outputs": [
        {
          "internalType": "address",
          "name": "",
          "type": "address"
        }
      ],
      "stateMutability": "view",
      "type": "function"
    },
    {
      "inputs": [
        {
          "internalType": "uint256",
          "name": "tokenId",
          "type": "uint256"
        }
      ],
      "name": "ownerOf",
      "outputs": [
        {
          "internalType": "address",
          "name": "",
          "type": "address"
        }
      ],
      "stateMutability": "view",
      "type": "function"
    },
    {
      "inputs": [
        {
          "internalType": "bool",
          "name": "_state",
          "type": "bool"
        }
      ],
      "name": "pause",
      "outputs": [],
      "stateMutability": "nonpayable",
      "type": "function"
    },
    {
      "inputs": [],
      "name": "paused",
      "outputs": [
        {
          "internalType": "bool",
          "name": "",
          "type": "bool"
        }
      ],
      "stateMutability": "view",
      "type": "function"
    },
    {
      "inputs": [],
      "name": "renounceOwnership",
      "outputs": [],
      "stateMutability": "nonpayable",
      "type": "function"
    },
    {
      "inputs": [],
      "name": "reveal",
      "outputs": [],
      "stateMutability": "nonpayable",
      "type": "function"
    },
    {
      "inputs": [],
      "name": "revealed",
      "outputs": [
        {
          "internalType": "bool",
          "name": "",
          "type": "bool"
        }
      ],
      "stateMutability": "view",
      "type": "function"
    },
    {
      "inputs": [
        {
          "internalType": "address",
          "name": "from",
          "type": "address"
        },
        {
          "internalType": "address",
          "name": "to",
          "type": "address"
        },
        {
          "internalType": "uint256",
          "name": "tokenId",
          "type": "uint256"
        }
      ],
      "name": "safeTransferFrom",
      "outputs": [],
      "stateMutability": "nonpayable",
      "type": "function"
    },
    {
      "inputs": [
        {
          "internalType": "address",
          "name": "from",
          "type": "address"
        },
        {
          "internalType": "address",
          "name": "to",
          "type": "address"
        },
        {
          "internalType": "uint256",
          "name": "tokenId",
          "type": "uint256"
        },
        {
          "internalType": "bytes",
          "name": "_data",
          "type": "bytes"
        }
      ],
      "name": "safeTransferFrom",
      "outputs": [],
      "stateMutability": "nonpayable",
      "type": "function"
    },
    {
      "inputs": [
        {
          "internalType": "address",
          "name": "operator",
          "type": "address"
        },
        {
          "internalType": "bool",
          "name": "approved",
          "type": "bool"
        }
      ],
      "name": "setApprovalForAll",
      "outputs": [],
      "stateMutability": "nonpayable",
      "type": "function"
    },
    {
      "inputs": [
        {
          "internalType": "string",
          "name": "_newBaseExtension",
          "type": "string"
        }
      ],
      "name": "setBaseExtension",
      "outputs": [],
      "stateMutability": "nonpayable",
      "type": "function"
    },
    {
      "inputs": [
        {
          "internalType": "string",
          "name": "_newBaseURI",
          "type": "string"
        }
      ],
      "name": "setBaseURI",
      "outputs": [],
      "stateMutability": "nonpayable",
      "type": "function"
    },
    {
      "inputs": [
        {
          "internalType": "uint256",
          "name": "_newCost",
          "type": "uint256"
        }
      ],
      "name": "setCost",
      "outputs": [],
      "stateMutability": "nonpayable",
      "type": "function"
    },
    {
      "inputs": [
        {
          "internalType": "string",
          "name": "_notRevealedURI",
          "type": "string"
        }
      ],
      "name": "setNotRevealedURI",
      "outputs": [],
      "stateMutability": "nonpayable",
      "type": "function"
    },
    {
      "inputs": [
        {
          "internalType": "uint256",
          "name": "_newmaxMintAmount",
          "type": "uint256"
        }
      ],
      "name": "setmaxMintAmount",
      "outputs": [],
      "stateMutability": "nonpayable",
      "type": "function"
    },
    {
      "inputs": [
        {
          "internalType": "bytes4",
          "name": "interfaceId",
          "type": "bytes4"
        }
      ],
      "name": "supportsInterface",
      "outputs": [
        {
          "internalType": "bool",
          "name": "",
          "type": "bool"
        }
      ],
      "stateMutability": "view",
      "type": "function"
    },
    {
      "inputs": [],
      "name": "symbol",
      "outputs": [
        {
          "internalType": "string",
          "name": "",
          "type": "string"
        }
      ],
      "stateMutability": "view",
      "type": "function"
    },
    {
      "inputs": [
        {
          "internalType": "uint256",
          "name": "index",
          "type": "uint256"
        }
      ],
      "name": "tokenByIndex",
      "outputs": [
        {
          "internalType": "uint256",
          "name": "",
          "type": "uint256"
        }
      ],
      "stateMutability": "view",
      "type": "function"
    },
    {
      "inputs": [
        {
          "internalType": "address",
          "name": "owner",
          "type": "address"
        },
        {
          "internalType": "uint256",
          "name": "index",
          "type": "uint256"
        }
      ],
      "name": "tokenOfOwnerByIndex",
      "outputs": [
        {
          "internalType": "uint256",
          "name": "",
          "type": "uint256"
        }
      ],
      "stateMutability": "view",
      "type": "function"
    },
    {
      "inputs": [
        {
          "internalType": "uint256",
          "name": "tokenId",
          "type": "uint256"
        }
      ],
      "name": "tokenURI",
      "outputs": [
        {
          "internalType": "string",
          "name": "",
          "type": "string"
        }
      ],
      "stateMutability": "view",
      "type": "function"
    },
    {
      "inputs": [],
      "name": "totalSupply",
      "outputs": [
        {
          "internalType": "uint256",
          "name": "",
          "type": "uint256"
        }
      ],
      "stateMutability": "view",
      "type": "function"
    },
    {
      "inputs": [
        {
          "internalType": "address",
          "name": "from",
          "type": "address"
        },
        {
          "internalType": "address",
          "name": "to",
          "type": "address"
        },
        {
          "internalType": "uint256",
          "name": "tokenId",
          "type": "uint256"
        }
      ],
      "name": "transferFrom",
      "outputs": [],
      "stateMutability": "nonpayable",
      "type": "function"
    },
    {
      "inputs": [
        {
          "internalType": "address",
          "name": "newOwner",
          "type": "address"
        }
      ],
      "name": "transferOwnership",
      "outputs": [],
      "stateMutability": "nonpayable",
      "type": "function"
    },
    {
      "inputs": [
        {
          "internalType": "address",
          "name": "_owner",
          "type": "address"
        }
      ],
      "name": "walletOfOwner",
      "outputs": [
        {
          "internalType": "uint256[]",
          "name": "",
          "type": "uint256[]"
        }
      ],
      "stateMutability": "view",
      "type": "function"
    },
    {
      "inputs": [],
      "name": "withdraw",
      "outputs": [],
      "stateMutability": "payable",
      "type": "function"
    }
  ],
  "bytecode": "0x60806040526040518060400160405280600581526020017f2e6a736f6e000000000000000000000000000000000000000000000000000000815250600c90816200004a919062000ab9565b50670de0b6b3a7640000600d5561217e600e556014600f556000601060006101000a81548160ff0219169083151502179055506001601060016101000a81548160ff021916908315150217905550348015620000a557600080fd5b506040516200795a3803806200795a8339818101604052810190620000cb919062000d04565b8383620000e967ac00170ada8baf2c60c01b6200027360201b60201c565b6200010567394f6b677a8ec96460c01b6200027360201b60201c565b816000908162000116919062000ab9565b5062000133674fa45534f2fdb0bd60c01b6200027360201b60201c565b806001908162000144919062000ab9565b50505062000163676a5f1afd1d40f5bd60c01b6200027660201b60201c565b6200017f678e8a1e5e77ba3b6c60c01b6200027660201b60201c565b6200019b67ff686fb4a48c68ef60c01b6200027660201b60201c565b620001bb620001af6200027960201b60201c565b620002d560201b60201c565b620001d767319812aea18ad4c360c01b6200044360201b60201c565b620001f3673761eb5b869e821b60c01b6200044360201b60201c565b6200020f670df533bb3345545760c01b6200044360201b60201c565b62000220826200044660201b60201c565b6200023c67782d51eab5116e4760c01b6200044360201b60201c565b6200025867f162d8cf1018462060c01b6200044360201b60201c565b62000269816200060260201b60201c565b5050505062000e75565b50565b50565b60006200029767aa0ea5ade2e3248160c01b620007be60201b60201c565b620002b367bb03662dc328800a60c01b620007be60201b60201c565b620002cf670d6bf33c8be22d8a60c01b620007be60201b60201c565b33905090565b620002f167210add610107821260c01b6200027660201b60201c565b6200030d67c2f2ae30329b18e260c01b6200027660201b60201c565b6200032967593637ab1821a2f360c01b6200027660201b60201c565b6000600a60009054906101000a900473ffffffffffffffffffffffffffffffffffffffff1690506200036c67ff1bdf45028abd2760c01b6200027660201b60201c565b81600a60006101000a81548173ffffffffffffffffffffffffffffffffffffffff021916908373ffffffffffffffffffffffffffffffffffffffff160217905550620003c967567597eaa9e9cfb860c01b6200027660201b60201c565b620003e5678af39a94c05fdf6560c01b6200027660201b60201c565b8173ffffffffffffffffffffffffffffffffffffffff168173ffffffffffffffffffffffffffffffffffffffff167f8be0079c531659141344cd1fd0a4f28419497f9722a3daafe3b4186f6b6457e060405160405180910390a35050565b50565b6200046267432d25ad05024d8e60c01b6200044360201b60201c565b6200047e67a8489e7d43a8a20760c01b6200027660201b60201c565b6200049a673fa7eb74e050b63360c01b6200027660201b60201c565b620004b667e271664260f0559060c01b6200027660201b60201c565b620004d267d5b3052f73fec73e60c01b6200027660201b60201c565b620004e26200027960201b60201c565b73ffffffffffffffffffffffffffffffffffffffff1662000508620007c160201b60201c565b73ffffffffffffffffffffffffffffffffffffffff161462000561576040517f08c379a0000000000000000000000000000000000000000000000000000000008152600401620005589062000e53565b60405180910390fd5b6200057d67d88e732598d26aad60c01b6200027660201b60201c565b6200059967e1472c74428af6c660c01b6200027660201b60201c565b620005b5675c02d95e37ddd8b360c01b6200044360201b60201c565b620005d16715716670c760b18f60c01b6200044360201b60201c565b620005ed67aeb5eaffdddd829a60c01b6200044360201b60201c565b80600b9081620005fe919062000ab9565b5050565b6200061e67ad55e870dbbf4e6760c01b6200044360201b60201c565b6200063a67a8489e7d43a8a20760c01b6200027660201b60201c565b62000656673fa7eb74e050b63360c01b6200027660201b60201c565b6200067267e271664260f0559060c01b6200027660201b60201c565b6200068e67d5b3052f73fec73e60c01b6200027660201b60201c565b6200069e6200027960201b60201c565b73ffffffffffffffffffffffffffffffffffffffff16620006c4620007c160201b60201c565b73ffffffffffffffffffffffffffffffffffffffff16146200071d576040517f08c379a0000000000000000000000000000000000000000000000000000000008152600401620007149062000e53565b60405180910390fd5b6200073967d88e732598d26aad60c01b6200027660201b60201c565b6200075567e1472c74428af6c660c01b6200027660201b60201c565b6200077167d33ab6a0f4e1006e60c01b6200044360201b60201c565b6200078d673ff5335b6352877760c01b6200044360201b60201c565b620007a9673f76da314a88d30e60c01b6200044360201b60201c565b8060119081620007ba919062000ab9565b5050565b50565b6000620007df6798c119372bef256860c01b6200027660201b60201c565b620007fb676ef7018b8dc89f3060c01b6200027660201b60201c565b6200081767546efa51192f56d960c01b6200027660201b60201c565b600a60009054906101000a900473ffffffffffffffffffffffffffffffffffffffff16905090565b600081519050919050565b7f4e487b7100000000000000000000000000000000000000000000000000000000600052604160045260246000fd5b7f4e487b7100000000000000000000000000000000000000000000000000000000600052602260045260246000fd5b60006002820490506001821680620008c157607f821691505b602082108103620008d757620008d662000879565b5b50919050565b60008190508160005260206000209050919050565b60006020601f8301049050919050565b600082821b905092915050565b600060088302620009417fffffffffffffffffffffffffffffffffffffffffffffffffffffffffffffffff8262000902565b6200094d868362000902565b95508019841693508086168417925050509392505050565b6000819050919050565b6000819050919050565b60006200099a620009946200098e8462000965565b6200096f565b62000965565b9050919050565b6000819050919050565b620009b68362000979565b620009ce620009c582620009a1565b8484546200090f565b825550505050565b600090565b620009e5620009d6565b620009f2818484620009ab565b505050565b5b8181101562000a1a5762000a0e600082620009db565b600181019050620009f8565b5050565b601f82111562000a695762000a3381620008dd565b62000a3e84620008f2565b8101602085101562000a4e578190505b62000a6662000a5d85620008f2565b830182620009f7565b50505b505050565b600082821c905092915050565b600062000a8e6000198460080262000a6e565b1980831691505092915050565b600062000aa9838362000a7b565b9150826002028217905092915050565b62000ac4826200083f565b67ffffffffffffffff81111562000ae05762000adf6200084a565b5b62000aec8254620008a8565b62000af982828562000a1e565b600060209050601f83116001811462000b31576000841562000b1c578287015190505b62000b28858262000a9b565b86555062000b98565b601f19841662000b4186620008dd565b60005b8281101562000b6b5784890151825560018201915060208501945060208101905062000b44565b8683101562000b8b578489015162000b87601f89168262000a7b565b8355505b6001600288020188555050505b505050505050565b6000604051905090565b600080fd5b600080fd5b600080fd5b600080fd5b6000601f19601f8301169050919050565b62000bda8262000bbe565b810181811067ffffffffffffffff8211171562000bfc5762000bfb6200084a565b5b80604052505050565b600062000c1162000ba0565b905062000c1f828262000bcf565b919050565b600067ffffffffffffffff82111562000c425762000c416200084a565b5b62000c4d8262000bbe565b9050602081019050919050565b60005b8381101562000c7a57808201518184015260208101905062000c5d565b60008484015250505050565b600062000c9d62000c978462000c24565b62000c05565b90508281526020810184848401111562000cbc5762000cbb62000bb9565b5b62000cc984828562000c5a565b509392505050565b600082601f83011262000ce95762000ce862000bb4565b5b815162000cfb84826020860162000c86565b91505092915050565b6000806000806080858703121562000d215762000d2062000baa565b5b600085015167ffffffffffffffff81111562000d425762000d4162000baf565b5b62000d508782880162000cd1565b945050602085015167ffffffffffffffff81111562000d745762000d7362000baf565b5b62000d828782880162000cd1565b935050604085015167ffffffffffffffff81111562000da65762000da562000baf565b5b62000db48782880162000cd1565b925050606085015167ffffffffffffffff81111562000dd85762000dd762000baf565b5b62000de68782880162000cd1565b91505092959194509250565b600082825260208201905092915050565b7f4f776e61626c653a2063616c6c6572206973206e6f7420746865206f776e6572600082015250565b600062000e3b60208362000df2565b915062000e488262000e03565b602082019050919050565b6000602082019050818103600083015262000e6e8162000e2c565b9050919050565b616ad58062000e856000396000f3fe60806040526004361061024f5760003560e01c80635c975abb11610138578063a475b5dd116100b0578063d5abeb011161007f578063e985e9c511610064578063e985e9c514610803578063f2c4ce1e14610840578063f2fde38b146108695761024f565b8063d5abeb01146107af578063da3ef23f146107da5761024f565b8063a475b5dd14610707578063b88d4fde1461071e578063c668286214610747578063c87b56dd146107725761024f565b80637f00c7a61161010757806395d89b41116100ec57806395d89b4114610697578063a0712d68146106c2578063a22cb465146106de5761024f565b80637f00c7a6146106435780638da5cb5b1461066c5761024f565b80635c975abb146105875780636352211e146105b257806370a08231146105ef578063715018a61461062c5761024f565b806323b872dd116101cb578063438b63001161019a5780634f6ccce71161017f5780634f6ccce7146104f6578063518302271461053357806355f804b31461055e5761024f565b8063438b63001461049057806344a0d68a146104cd5761024f565b806323b872dd146103f75780632f745c59146104205780633ccfd60b1461045d57806342842e0e146104675761024f565b8063081c8c441161022257806313faede61161020757806313faede61461037657806318160ddd146103a1578063239c70ae146103cc5761024f565b8063081c8c4414610322578063095ea7b31461034d5761024f565b806301ffc9a71461025457806302329a291461029157806306fdde03146102ba578063081812fc146102e5575b600080fd5b34801561026057600080fd5b5061027b600480360381019061027691906152a7565b610892565b60405161028891906152ef565b60405180910390f35b34801561029d57600080fd5b506102b860048036038101906102b39190615336565b610980565b005b3480156102c657600080fd5b506102cf610ae1565b6040516102dc91906153f3565b60405180910390f35b3480156102f157600080fd5b5061030c6004803603810190610307919061544b565b610baf565b60405161031991906154b9565b60405180910390f35b34801561032e57600080fd5b50610337610cc0565b60405161034491906153f3565b60405180910390f35b34801561035957600080fd5b50610374600480360381019061036f9190615500565b610d4e565b005b34801561038257600080fd5b5061038b610fa1565b604051610398919061554f565b60405180910390f35b3480156103ad57600080fd5b506103b6610fa7565b6040516103c3919061554f565b60405180910390f35b3480156103d857600080fd5b506103e1610ff0565b6040516103ee919061554f565b60405180910390f35b34801561040357600080fd5b5061041e6004803603810190610419919061556a565b610ff6565b005b34801561042c57600080fd5b5061044760048036038101906104429190615500565b6110e2565b604051610454919061554f565b60405180910390f35b610465611213565b005b34801561047357600080fd5b5061048e6004803603810190610489919061556a565b61143b565b005b34801561049c57600080fd5b506104b760048036038101906104b291906155bd565b611497565b6040516104c491906156a8565b60405180910390f35b3480156104d957600080fd5b506104f460048036038101906104ef919061544b565b61160d565b005b34801561050257600080fd5b5061051d6004803603810190610518919061544b565b61175b565b60405161052a919061554f565b60405180910390f35b34801561053f57600080fd5b50610548611858565b60405161055591906152ef565b60405180910390f35b34801561056a57600080fd5b50610585600480360381019061058091906157ff565b61186b565b005b34801561059357600080fd5b5061059c6119c2565b6040516105a991906152ef565b60405180910390f35b3480156105be57600080fd5b506105d960048036038101906105d4919061544b565b6119d5565b6040516105e691906154b9565b60405180910390f35b3480156105fb57600080fd5b50610616600480360381019061061191906155bd565b611b3b565b604051610623919061554f565b60405180910390f35b34801561063857600080fd5b50610641611c7f565b005b34801561064f57600080fd5b5061066a6004803603810190610665919061544b565b611de3565b005b34801561067857600080fd5b50610681611f31565b60405161068e91906154b9565b60405180910390f35b3480156106a357600080fd5b506106ac611f97565b6040516106b991906153f3565b60405180910390f35b6106dc60048036038101906106d7919061544b565b612065565b005b3480156106ea57600080fd5b5061070560048036038101906107009190615848565b6123c2565b005b34801561071357600080fd5b5061071c6125e2565b005b34801561072a57600080fd5b5061074560048036038101906107409190615929565b612743565b005b34801561075357600080fd5b5061075c612831565b60405161076991906153f3565b60405180910390f35b34801561077e57600080fd5b506107996004803603810190610794919061544b565b6128bf565b6040516107a691906153f3565b60405180910390f35b3480156107bb57600080fd5b506107c4612b7a565b6040516107d1919061554f565b60405180910390f35b3480156107e657600080fd5b5061080160048036038101906107fc91906157ff565b612b80565b005b34801561080f57600080fd5b5061082a600480360381019061082591906159ac565b612cd7565b60405161083791906152ef565b60405180910390f35b34801561084c57600080fd5b50610867600480360381019061086291906157ff565b612da7565b005b34801561087557600080fd5b50610890600480360381019061088b91906155bd565b612efe565b005b60006108a8671190407ef67d204b60c01b613121565b6108bc675496862aa0e9af0e60c01b613121565b6108d067fb24e682aa49f0ec60c01b613121565b7f780e9d63000000000000000000000000000000000000000000000000000000007bffffffffffffffffffffffffffffffffffffffffffffffffffffffff1916827bffffffffffffffffffffffffffffffffffffffffffffffffffffffff191614801561094d575061094c6766b08641200b89df60c01b613124565b5b80610979575061095c8261312f565b80156109785750610977679421708e84288eda60c01b613124565b5b5b9050919050565b61099467250e080c3dfac71060c01b6132bd565b6109a867a8489e7d43a8a20760c01b6132c0565b6109bc673fa7eb74e050b63360c01b6132c0565b6109d067e271664260f0559060c01b6132c0565b6109e467d5b3052f73fec73e60c01b6132c0565b6109ec6132c3565b73ffffffffffffffffffffffffffffffffffffffff16610a0a611f31565b73ffffffffffffffffffffffffffffffffffffffff1614610a60576040517f08c379a0000000000000000000000000000000000000000000000000000000008152600401610a5790615a38565b60405180910390fd5b610a7467d88e732598d26aad60c01b6132c0565b610a8867e1472c74428af6c660c01b6132c0565b610a9c67ababf4f001fe6ca860c01b6132bd565b610ab067ad0b25de859e0e4f60c01b6132bd565b610ac4677f5e9a442cc71d4060c01b6132bd565b80601060006101000a81548160ff02191690831515021790555050565b6060610af7670e87b40a1b6d85ac60c01b613307565b610b0b670588ae7690894c8560c01b613307565b610b1f677a8ee1727f51d3e960c01b613307565b60008054610b2c90615a87565b80601f0160208091040260200160405190810160405280929190818152602001828054610b5890615a87565b8015610ba55780601f10610b7a57610100808354040283529160200191610ba5565b820191906000526020600020905b815481529060010190602001808311610b8857829003601f168201915b5050505050905090565b6000610bc56797b99bf76388ecba60c01b613307565b610bd9675790e9b49d2f6f1d60c01b613307565b610bed671771a696cf55cd6860c01b613307565b610c0167ce12d5049e60097260c01b613307565b610c0a8261330a565b610c49576040517f08c379a0000000000000000000000000000000000000000000000000000000008152600401610c4090615b2a565b60405180910390fd5b610c5d67e63875ef5dea87a660c01b613307565b610c71672058cdfe7a4fa86e60c01b613307565b610c8567f5268d7758e4269360c01b613307565b6004600083815260200190815260200160002060009054906101000a900473ffffffffffffffffffffffffffffffffffffffff169050919050565b60118054610ccd90615a87565b80601f0160208091040260200160405190810160405280929190818152602001828054610cf990615a87565b8015610d465780601f10610d1b57610100808354040283529160200191610d46565b820191906000526020600020905b815481529060010190602001808311610d2957829003601f168201915b505050505081565b610d62674115bb5c48a1530960c01b613307565b610d76672a663e927b187eb360c01b613307565b610d8a67da3391bdace6fe3260c01b613307565b6000610d95826119d5565b9050610dab6732ae5d0139366db660c01b613307565b610dbf6731ec8d5d1bbb207f60c01b613307565b610dd36799cd0a40a7c73b9160c01b613307565b8073ffffffffffffffffffffffffffffffffffffffff168373ffffffffffffffffffffffffffffffffffffffff1603610e41576040517f08c379a0000000000000000000000000000000000000000000000000000000008152600401610e3890615bbc565b60405180910390fd5b610e5567644270a79f3b125860c01b613307565b610e6967847390d2a03b045a60c01b613307565b610e7d67a76941914fe35b0860c01b613307565b610e91670c5157d020af63e560c01b613307565b8073ffffffffffffffffffffffffffffffffffffffff16610eb06132c3565b73ffffffffffffffffffffffffffffffffffffffff16148015610ee35750610ee267306c51e1465001f160c01b6133b3565b5b80610f175750610efa81610ef56132c3565b612cd7565b8015610f165750610f156738dadeac363e43c660c01b6133b3565b5b5b610f56576040517f08c379a0000000000000000000000000000000000000000000000000000000008152600401610f4d90615c4e565b60405180910390fd5b610f6a672fd727f2cf3f8d0d60c01b613307565b610f7e6770ef365162aaaab760c01b613307565b610f9267e1fe8187235a2f3c60c01b613307565b610f9c83836133be565b505050565b600d5481565b6000610fbd678d82916f3d4e5ec060c01b613121565b610fd167058b0cb54c27185960c01b613121565b610fe5674edf7ebea3df751f60c01b613121565b600880549050905090565b600f5481565b61100a67b2da2354de22034160c01b613307565b61101e679706b5110284879760c01b613307565b61103267c3dac4f5df8d78de60c01b613307565b61104667b9e191c10d474f6860c01b613307565b6110576110516132c3565b826134c7565b611096576040517f08c379a000000000000000000000000000000000000000000000000000000000815260040161108d90615ce0565b60405180910390fd5b6110aa67d4680b1c629b406060c01b613307565b6110be674e4655ae3c59a3c760c01b613307565b6110d26702cb32cdced98fb360c01b613307565b6110dd8383836136c9565b505050565b60006110f867af470789b5857b5660c01b613121565b61110c67d83c0ee6bb1e126a60c01b613121565b61112067582945b6991c7eca60c01b613121565b61113467f30806cab517992c60c01b613121565b61113d83611b3b565b821061117e576040517f08c379a000000000000000000000000000000000000000000000000000000000815260040161117590615d72565b60405180910390fd5b611192670aad73b33ea7e6aa60c01b613121565b6111a667998d0275143a55c160c01b613121565b6111ba67554dcf332aa7a15960c01b613121565b600660008473ffffffffffffffffffffffffffffffffffffffff1673ffffffffffffffffffffffffffffffffffffffff168152602001908152602001600020600083815260200190815260200160002054905092915050565b611227677a14607bdc24301560c01b6132bd565b61123b67a8489e7d43a8a20760c01b6132c0565b61124f673fa7eb74e050b63360c01b6132c0565b61126367e271664260f0559060c01b6132c0565b61127767d5b3052f73fec73e60c01b6132c0565b61127f6132c3565b73ffffffffffffffffffffffffffffffffffffffff1661129d611f31565b73ffffffffffffffffffffffffffffffffffffffff16146112f3576040517f08c379a00000000000000000000000000000000000000000000000000000000081526004016112ea90615a38565b60405180910390fd5b61130767d88e732598d26aad60c01b6132c0565b61131b67e1472c74428af6c660c01b6132c0565b61132f67a6c0c833cfa6593460c01b6132bd565b61134367dcda406e8323497560c01b6132bd565b611357677cac45ada88b9c3760c01b6132bd565b61136b67242d05fc90e0014c60c01b6132bd565b6000611375611f31565b73ffffffffffffffffffffffffffffffffffffffff164760405161139890615dc3565b60006040518083038185875af1925050503d80600081146113d5576040519150601f19603f3d011682016040523d82523d6000602084013e6113da565b606091505b505090506113f267195ed83473ab1ed960c01b6132bd565b611406676268c8f0e6c067d160c01b6132bd565b61141a6782213bc3e25c892460c01b6132bd565b8061142457600080fd5b61143867598436ccb7526f1160c01b6132bd565b50565b61144f67aaabd6a76def124160c01b613307565b61146367e1680ec68160ca1c60c01b613307565b61147767cdb76a7569e2801760c01b613307565b61149283838360405180602001604052806000815250612743565b505050565b60606114ad6798a77fd427ecfb7660c01b6132bd565b6114c167d829ba79bb3f7f8760c01b6132bd565b6114d56785afc8a02d72d0a160c01b6132bd565b60006114e083611b3b565b90506114f6678f78c066abc0126960c01b6132bd565b61150a67f53d06809e77fb6e60c01b6132bd565b60008167ffffffffffffffff811115611526576115256156d4565b5b6040519080825280602002602001820160405280156115545781602001602082028036833780820191505090505b50905061156b67d19e6f3ce429296960c01b6132bd565b61157f6740d7cacddeb321dc60c01b6132bd565b60005b828110156115da5761159e67351f6b4c54eb444260c01b6132bd565b6115a885826110e2565b8282815181106115bb576115ba615dd8565b5b60200260200101818152505080806115d290615e36565b915050611582565b506115ef67940e355ab755786260c01b6132bd565b61160367c40d132c4437084560c01b6132bd565b8092505050919050565b611621675cb4eedc6055e93260c01b6132bd565b61163567a8489e7d43a8a20760c01b6132c0565b611649673fa7eb74e050b63360c01b6132c0565b61165d67e271664260f0559060c01b6132c0565b61167167d5b3052f73fec73e60c01b6132c0565b6116796132c3565b73ffffffffffffffffffffffffffffffffffffffff16611697611f31565b73ffffffffffffffffffffffffffffffffffffffff16146116ed576040517f08c379a00000000000000000000000000000000000000000000000000000000081526004016116e490615a38565b60405180910390fd5b61170167d88e732598d26aad60c01b6132c0565b61171567e1472c74428af6c660c01b6132c0565b61172967f549230121cc246460c01b6132bd565b61173d679e6bb0b0903b1df460c01b6132bd565b611751676593c6db9e77a97460c01b6132bd565b80600d8190555050565b6000611771670b9ef9b70f78560360c01b613121565b61178567ca76475862299ed460c01b613121565b61179967488b32bf92855d6f60c01b613121565b6117ad675d5fc5d2c7df559c60c01b613121565b6117b5610fa7565b82106117f6576040517f08c379a00000000000000000000000000000000000000000000000000000000081526004016117ed90615ef0565b60405180910390fd5b61180a6735966a00a08d039660c01b613121565b61181e6767ba4fb80d5c84e260c01b613121565b6118326708f22a38c459386d60c01b613121565b6008828154811061184657611845615dd8565b5b90600052602060002001549050919050565b601060019054906101000a900460ff1681565b61187f67432d25ad05024d8e60c01b6132bd565b61189367a8489e7d43a8a20760c01b6132c0565b6118a7673fa7eb74e050b63360c01b6132c0565b6118bb67e271664260f0559060c01b6132c0565b6118cf67d5b3052f73fec73e60c01b6132c0565b6118d76132c3565b73ffffffffffffffffffffffffffffffffffffffff166118f5611f31565b73ffffffffffffffffffffffffffffffffffffffff161461194b576040517f08c379a000000000000000000000000000000000000000000000000000000000815260040161194290615a38565b60405180910390fd5b61195f67d88e732598d26aad60c01b6132c0565b61197367e1472c74428af6c660c01b6132c0565b611987675c02d95e37ddd8b360c01b6132bd565b61199b6715716670c760b18f60c01b6132bd565b6119af67aeb5eaffdddd829a60c01b6132bd565b80600b90816119be91906160bc565b5050565b601060009054906101000a900460ff1681565b60006119eb671bec4f02bba9314b60c01b613307565b6119ff67cad6e63f709ac55760c01b613307565b611a13679a065f326987f6f860c01b613307565b60006002600084815260200190815260200160002060009054906101000a900473ffffffffffffffffffffffffffffffffffffffff169050611a5f670a022a6d0ff9d4ff60c01b613307565b611a7367fa78e72b72995d4560c01b613307565b611a87677c4c4eb4b492754e60c01b613307565b600073ffffffffffffffffffffffffffffffffffffffff168173ffffffffffffffffffffffffffffffffffffffff1603611af6576040517f08c379a0000000000000000000000000000000000000000000000000000000008152600401611aed90616200565b60405180910390fd5b611b0a67ca3f78c30cc9b70160c01b613307565b611b1e67b44e3ddeb695d7d960c01b613307565b611b32671636cde301275fac60c01b613307565b80915050919050565b6000611b5167e563012edb8b40fe60c01b613307565b611b6567a174a0e62468de5360c01b613307565b611b79674b4aaf269afd820b60c01b613307565b611b8d67d2a0411d1484d06960c01b613307565b600073ffffffffffffffffffffffffffffffffffffffff168273ffffffffffffffffffffffffffffffffffffffff1603611bfc576040517f08c379a0000000000000000000000000000000000000000000000000000000008152600401611bf390616292565b60405180910390fd5b611c1067f093a515796d564360c01b613307565b611c2467e6914d6049b4666160c01b613307565b611c38671c89ae102e417a5160c01b613307565b600360008373ffffffffffffffffffffffffffffffffffffffff1673ffffffffffffffffffffffffffffffffffffffff168152602001908152602001600020549050919050565b611c9367a3e587cc94c4e53c60c01b6132c0565b611ca767a8489e7d43a8a20760c01b6132c0565b611cbb673fa7eb74e050b63360c01b6132c0565b611ccf67e271664260f0559060c01b6132c0565b611ce367d5b3052f73fec73e60c01b6132c0565b611ceb6132c3565b73ffffffffffffffffffffffffffffffffffffffff16611d09611f31565b73ffffffffffffffffffffffffffffffffffffffff1614611d5f576040517f08c379a0000000000000000000000000000000000000000000000000000000008152600401611d5690615a38565b60405180910390fd5b611d7367d88e732598d26aad60c01b6132c0565b611d8767e1472c74428af6c660c01b6132c0565b611d9b67d70a3805fa216b8a60c01b6132c0565b611daf6741a85c1fa6fa2af160c01b6132c0565b611dc3679137309596f744bd60c01b6132c0565b611dd767daf9c5273741d8f360c01b6132c0565b611de16000613a8b565b565b611df76729e4ad19cf6abe7f60c01b6132bd565b611e0b67a8489e7d43a8a20760c01b6132c0565b611e1f673fa7eb74e050b63360c01b6132c0565b611e3367e271664260f0559060c01b6132c0565b611e4767d5b3052f73fec73e60c01b6132c0565b611e4f6132c3565b73ffffffffffffffffffffffffffffffffffffffff16611e6d611f31565b73ffffffffffffffffffffffffffffffffffffffff1614611ec3576040517f08c379a0000000000000000000000000000000000000000000000000000000008152600401611eba90615a38565b60405180910390fd5b611ed767d88e732598d26aad60c01b6132c0565b611eeb67e1472c74428af6c660c01b6132c0565b611eff67ca050714c74c68f460c01b6132bd565b611f1367c764aa05efd8b8de60c01b6132bd565b611f2767bbcd48e5f70951f660c01b6132bd565b80600f8190555050565b6000611f476798c119372bef256860c01b6132c0565b611f5b676ef7018b8dc89f3060c01b6132c0565b611f6f67546efa51192f56d960c01b6132c0565b600a60009054906101000a900473ffffffffffffffffffffffffffffffffffffffff16905090565b6060611fad67620a0cb419de5f8760c01b613307565b611fc167db1adbd18620756060c01b613307565b611fd56715029cb7033f16c560c01b613307565b60018054611fe290615a87565b80601f016020809104026020016040519081016040528092919081815260200182805461200e90615a87565b801561205b5780601f106120305761010080835404028352916020019161205b565b820191906000526020600020905b81548152906001019060200180831161203e57829003601f168201915b5050505050905090565b61207967f6a527f8fc96e39060c01b6132bd565b61208d676121f113be3e1c1d60c01b6132bd565b6120a16799e57c278a3f369460c01b6132bd565b60006120ab610fa7565b90506120c167700c120612814e2d60c01b6132bd565b6120d567a573eca642ae82d960c01b6132bd565b6120e967e67d6ab71d29c13f60c01b6132bd565b601060009054906101000a900460ff161561210357600080fd5b612117673e004cebf684908460c01b6132bd565b61212b672ca572966675673260c01b6132bd565b61213f671e93f197ca27242760c01b6132bd565b61215367459c5bfab4acfb9060c01b6132bd565b6000821161216057600080fd5b612174674b9912e131a3ef8860c01b6132bd565b61218867e799ac69ef7b615e60c01b6132bd565b61219c67ddbac6e01f53867160c01b6132bd565b6121b0673bd6430c495d8fb960c01b6132bd565b600f548211156121bf57600080fd5b6121d3677b1de92b50d6db9c60c01b6132bd565b6121e767f3278bbb1a26b77860c01b6132bd565b6121fb67b95ca74b72a98ffb60c01b6132bd565b61220f674577265fba4f5f9560c01b6132bd565b600e54828261221e91906162b2565b111561222957600080fd5b61223d676c88adbd031bd4f960c01b6132bd565b612251670522b1d06361870f60c01b6132bd565b61226567c05ba37a03d850e460c01b6132bd565b61226d611f31565b73ffffffffffffffffffffffffffffffffffffffff163373ffffffffffffffffffffffffffffffffffffffff1614612322576122b367ad5130a22024684460c01b6132bd565b6122c767bcb70f984e372f5560c01b6132bd565b6122db67984313c44e22470960c01b6132bd565b6122ef67d85351e43f66ad3360c01b6132bd565b81600d546122fd91906162e6565b34101561230957600080fd5b61231d67be2a6d544f9bcd5f60c01b6132bd565b612337565b612336672906669b4ccf3ad560c01b6132bd565b5b61234b67b6ac830a9d148b5560c01b6132bd565b61235f67dd6cd783e661c49260c01b6132bd565b6000600190505b8281116123bd576123816786ed633208cceec960c01b6132bd565b61239567fe34e2ab21d51fa560c01b6132bd565b6123aa3382846123a591906162b2565b613bc9565b80806123b590615e36565b915050612366565b505050565b6123d6671dded0a51bea5c3f60c01b613307565b6123ea67e0de5c036bfbcf7a60c01b613307565b6123fe67fe90cb5b30ceb08c60c01b613307565b612412671ce6d1e899fa733660c01b613307565b61241a6132c3565b73ffffffffffffffffffffffffffffffffffffffff168273ffffffffffffffffffffffffffffffffffffffff1603612487576040517f08c379a000000000000000000000000000000000000000000000000000000000815260040161247e90616374565b60405180910390fd5b61249b677de1bfbb7b2326b360c01b613307565b6124af67bc91721d5615002560c01b613307565b80600560006124bc6132c3565b73ffffffffffffffffffffffffffffffffffffffff1673ffffffffffffffffffffffffffffffffffffffff16815260200190815260200160002060008473ffffffffffffffffffffffffffffffffffffffff1673ffffffffffffffffffffffffffffffffffffffff16815260200190815260200160002060006101000a81548160ff02191690831515021790555061255e67ed7d50dad8e7839260c01b613307565b612572674d5df4bd3117592760c01b613307565b8173ffffffffffffffffffffffffffffffffffffffff166125916132c3565b73ffffffffffffffffffffffffffffffffffffffff167f17307eab39ab6107e8899845ad3d59bd9653f200f220920489ca2b5937696c31836040516125d691906152ef565b60405180910390a35050565b6125f6673cba5d42f1a7d56560c01b6132bd565b61260a67a8489e7d43a8a20760c01b6132c0565b61261e673fa7eb74e050b63360c01b6132c0565b61263267e271664260f0559060c01b6132c0565b61264667d5b3052f73fec73e60c01b6132c0565b61264e6132c3565b73ffffffffffffffffffffffffffffffffffffffff1661266c611f31565b73ffffffffffffffffffffffffffffffffffffffff16146126c2576040517f08c379a00000000000000000000000000000000000000000000000000000000081526004016126b990615a38565b60405180910390fd5b6126d667d88e732598d26aad60c01b6132c0565b6126ea67e1472c74428af6c660c01b6132c0565b6126fe67c6bb0595015d4be860c01b6132bd565b61271267382cb2bc2309fc1460c01b6132bd565b612726679cf9582ef2685b8960c01b6132bd565b6001601060016101000a81548160ff021916908315150217905550565b61275767fb91a0909a76e3c060c01b613307565b61276b671b48f7e721f1b65660c01b613307565b61277f6776fe1980c36af05f60c01b613307565b612793670355f85444423dd560c01b613307565b6127a461279e6132c3565b836134c7565b6127e3576040517f08c379a00000000000000000000000000000000000000000000000000000000081526004016127da90615ce0565b60405180910390fd5b6127f7673577125908c37ae360c01b613307565b61280b673d59aaa3fcee785c60c01b613307565b61281f67097e8e12a41ab52960c01b613307565b61282b84848484613c23565b50505050565b600c805461283e90615a87565b80601f016020809104026020016040519081016040528092919081815260200182805461286a90615a87565b80156128b75780601f1061288c576101008083540402835291602001916128b7565b820191906000526020600020905b81548152906001019060200180831161289a57829003601f168201915b505050505081565b60606128d567b61eaa6b6bdac5d960c01b6132bd565b6128e9677440d1157e448d6860c01b6132bd565b6128fd67770150f10d6353d060c01b6132bd565b61291167c99bf602f081056160c01b6132bd565b61291a8261330a565b612959576040517f08c379a000000000000000000000000000000000000000000000000000000000815260040161295090616406565b60405180910390fd5b61296d673bb6ee7ebde87f9760c01b6132bd565b6129816789516ab14f47b61b60c01b6132bd565b61299567bfa4c3a60603244360c01b6132bd565b60001515601060019054906101000a900460ff16151503612a7e576129c467c0857eae3b77386460c01b6132bd565b6129d867fc5cfd44e054482b60c01b6132bd565b6129ec674a25559b402bdcf860c01b6132bd565b601180546129f990615a87565b80601f0160208091040260200160405190810160405280929190818152602001828054612a2590615a87565b8015612a725780601f10612a4757610100808354040283529160200191612a72565b820191906000526020600020905b815481529060010190602001808311612a5557829003601f168201915b50505050509050612b75565b612a9267b5809a9f3765ba6460c01b6132bd565b612aa6678d4be895e047411160c01b6132bd565b612aba67c720dc8fae631dac60c01b6132bd565b6000612ac4613d0b565b9050612ada6773b67d20afc363e060c01b6132bd565b612aee67f72c9d2d9f9932af60c01b6132bd565b600081511180612b0e5750612b0d67718512811d0c988660c01b613dd9565b5b8015612b2a5750612b296738a13b5f06c8fa8d60c01b613de0565b5b612b435760405180602001604052806000815250612b71565b80612b4d84613deb565b600c604051602001612b61939291906164e5565b6040516020818303038152906040525b9150505b919050565b600e5481565b612b94677c13085a819b52de60c01b6132bd565b612ba867a8489e7d43a8a20760c01b6132c0565b612bbc673fa7eb74e050b63360c01b6132c0565b612bd067e271664260f0559060c01b6132c0565b612be467d5b3052f73fec73e60c01b6132c0565b612bec6132c3565b73ffffffffffffffffffffffffffffffffffffffff16612c0a611f31565b73ffffffffffffffffffffffffffffffffffffffff1614612c60576040517f08c379a0000000000000000000000000000000000000000000000000000000008152600401612c5790615a38565b60405180910390fd5b612c7467d88e732598d26aad60c01b6132c0565b612c8867e1472c74428af6c660c01b6132c0565b612c9c671e99c3051b169fec60c01b6132bd565b612cb067819209c23700a3bb60c01b6132bd565b612cc46775d07b030c2ca99660c01b6132bd565b80600c9081612cd391906160bc565b5050565b6000612ced67b07459ffc0c6e8de60c01b613307565b612d01676cc53fb4f68cf89e60c01b613307565b612d15679b7d7fb5b8fc901360c01b613307565b600560008473ffffffffffffffffffffffffffffffffffffffff1673ffffffffffffffffffffffffffffffffffffffff16815260200190815260200160002060008373ffffffffffffffffffffffffffffffffffffffff1673ffffffffffffffffffffffffffffffffffffffff16815260200190815260200160002060009054906101000a900460ff16905092915050565b612dbb67ad55e870dbbf4e6760c01b6132bd565b612dcf67a8489e7d43a8a20760c01b6132c0565b612de3673fa7eb74e050b63360c01b6132c0565b612df767e271664260f0559060c01b6132c0565b612e0b67d5b3052f73fec73e60c01b6132c0565b612e136132c3565b73ffffffffffffffffffffffffffffffffffffffff16612e31611f31565b73ffffffffffffffffffffffffffffffffffffffff1614612e87576040517f08c379a0000000000000000000000000000000000000000000000000000000008152600401612e7e90615a38565b60405180910390fd5b612e9b67d88e732598d26aad60c01b6132c0565b612eaf67e1472c74428af6c660c01b6132c0565b612ec367d33ab6a0f4e1006e60c01b6132bd565b612ed7673ff5335b6352877760c01b6132bd565b612eeb673f76da314a88d30e60c01b6132bd565b8060119081612efa91906160bc565b5050565b612f1267cc4c8a33fc64a6c960c01b6132c0565b612f2667a8489e7d43a8a20760c01b6132c0565b612f3a673fa7eb74e050b63360c01b6132c0565b612f4e67e271664260f0559060c01b6132c0565b612f6267d5b3052f73fec73e60c01b6132c0565b612f6a6132c3565b73ffffffffffffffffffffffffffffffffffffffff16612f88611f31565b73ffffffffffffffffffffffffffffffffffffffff1614612fde576040517f08c379a0000000000000000000000000000000000000000000000000000000008152600401612fd590615a38565b60405180910390fd5b612ff267d88e732598d26aad60c01b6132c0565b61300667e1472c74428af6c660c01b6132c0565b61301a677c9b4f586d646efb60c01b6132c0565b61302e670cb92e4e04d99de460c01b6132c0565b6130426722da5c103b02dc8660c01b6132c0565b61305667dc9cd266d5745f8d60c01b6132c0565b61306a679c8fced9727addb960c01b6132c0565b600073ffffffffffffffffffffffffffffffffffffffff168173ffffffffffffffffffffffffffffffffffffffff16036130d9576040517f08c379a00000000000000000000000000000000000000000000000000000000081526004016130d090616588565b60405180910390fd5b6130ed6785e15c1a6688cfa160c01b6132c0565b613101672a51562ad869266860c01b6132c0565b613115675fc8ef1aa41a8cd060c01b6132c0565b61311e81613a8b565b50565b50565b600060019050919050565b60006131456787a63e25b19f051c60c01b613307565b61315967667b87f96937e35d60c01b613307565b61316d672426ef714f24d88f60c01b613307565b7f80ac58cd000000000000000000000000000000000000000000000000000000007bffffffffffffffffffffffffffffffffffffffffffffffffffffffff1916827bffffffffffffffffffffffffffffffffffffffffffffffffffffffff19161480156131ea57506131e9670eff025246babfa060c01b6133b3565b5b8061328a57507f5b5e139f000000000000000000000000000000000000000000000000000000007bffffffffffffffffffffffffffffffffffffffffffffffffffffffff1916827bffffffffffffffffffffffffffffffffffffffffffffffffffffffff191614801561326d575061326c6744614a2b9931648860c01b6133b3565b5b80156132895750613288673104a8d3651155d060c01b6133b3565b5b5b806132b657506132998261412b565b80156132b557506132b46715c7bdc338baf3e760c01b6133b3565b5b5b9050919050565b50565b50565b60006132d967aa0ea5ade2e3248160c01b6141d1565b6132ed67bb03662dc328800a60c01b6141d1565b613301670d6bf33c8be22d8a60c01b6141d1565b33905090565b50565b60006133206709215133d40d79fd60c01b613307565b613334678ab1bd7deda8ec6160c01b613307565b613348676282a596f8efcbb160c01b613307565b600073ffffffffffffffffffffffffffffffffffffffff166002600084815260200190815260200160002060009054906101000a900473ffffffffffffffffffffffffffffffffffffffff1673ffffffffffffffffffffffffffffffffffffffff1614159050919050565b600060019050919050565b6133d26799ac1eb71e5b4c8360c01b613307565b6133e66737cc00c0d64c870e60c01b613307565b816004600083815260200190815260200160002060006101000a81548173ffffffffffffffffffffffffffffffffffffffff021916908373ffffffffffffffffffffffffffffffffffffffff16021790555061344c67a7992eac026f03c060c01b613307565b61346067c873c46d687afa3b60c01b613307565b808273ffffffffffffffffffffffffffffffffffffffff16613481836119d5565b73ffffffffffffffffffffffffffffffffffffffff167f8c5be1e5ebec7d5bd14f71427d1e84f3dd0314c0f7b2291e5b200ac8c7c3b92560405160405180910390a45050565b60006134dd672082159690e6852560c01b613307565b6134f167ee7311d4a18f216260c01b613307565b6135056713f57b92043af41760c01b613307565b61351967cfbad6b11ccb5a9d60c01b613307565b6135228261330a565b613561576040517f08c379a00000000000000000000000000000000000000000000000000000000081526004016135589061661a565b60405180910390fd5b613575673d9d9f33ba7cfddc60c01b613307565b61358967c5c2eb6c51630ca060c01b613307565b61359d67dba922f2e35cb0d960c01b613307565b60006135a8836119d5565b90506135be6771846dad3260237d60c01b613307565b6135d26782550e66202ebcab60c01b613307565b8073ffffffffffffffffffffffffffffffffffffffff168473ffffffffffffffffffffffffffffffffffffffff1614801561361d575061361c6789fa88265806518560c01b6133b3565b5b8061369357508373ffffffffffffffffffffffffffffffffffffffff1661364384610baf565b73ffffffffffffffffffffffffffffffffffffffff161480156136765750613675678c865d6544e8f74460c01b6133b3565b5b80156136925750613691678ee0c0e8658fb24260c01b6133b3565b5b5b806136c057506136a38185612cd7565b80156136bf57506136be67377cf8b89c7d6e5e60c01b6133b3565b5b5b91505092915050565b6136dd6702678d6c747eb7fb60c01b613307565b6136f167090ff2d0746ba3b360c01b613307565b6137056740811b2fa8f1c7f960c01b613307565b613719672b21103259a596e660c01b613307565b8273ffffffffffffffffffffffffffffffffffffffff16613739826119d5565b73ffffffffffffffffffffffffffffffffffffffff161461378f576040517f08c379a0000000000000000000000000000000000000000000000000000000008152600401613786906166ac565b60405180910390fd5b6137a36762a4932bc5c78a0d60c01b613307565b6137b767c15c3e416095d6ab60c01b613307565b6137cb67c339a979210296ae60c01b613307565b6137df67f17f5f248c0c60d760c01b613307565b600073ffffffffffffffffffffffffffffffffffffffff168273ffffffffffffffffffffffffffffffffffffffff160361384e576040517f08c379a00000000000000000000000000000000000000000000000000000000081526004016138459061673e565b60405180910390fd5b61386267a3c2ccfbe5e6d24860c01b613307565b6138766708afa3d9dceba49560c01b613307565b61388a675c749322489b4c8760c01b613307565b6138958383836141d4565b6138a967b7846313c9933f0860c01b613307565b6138bd67d7072ff63836a10460c01b613307565b6138c86000826133be565b6138dc673c5fad226205254460c01b613307565b6001600360008573ffffffffffffffffffffffffffffffffffffffff1673ffffffffffffffffffffffffffffffffffffffff168152602001908152602001600020600082825461392c919061675e565b92505081905550613947673b3660558fbd141660c01b613307565b6001600360008473ffffffffffffffffffffffffffffffffffffffff1673ffffffffffffffffffffffffffffffffffffffff168152602001908152602001600020600082825461399791906162b2565b925050819055506139b267e2628a586fcb6fd360c01b613307565b816002600083815260200190815260200160002060006101000a81548173ffffffffffffffffffffffffffffffffffffffff021916908373ffffffffffffffffffffffffffffffffffffffff160217905550613a1766e40ab7e777a3cc60c01b613307565b613a2b67f8a217a3c5d4d66b60c01b613307565b808273ffffffffffffffffffffffffffffffffffffffff168473ffffffffffffffffffffffffffffffffffffffff167fddf252ad1be2c89b69c2b068fc378daa952ba7f163c4a11628f55a4df523b3ef60405160405180910390a4505050565b613a9f67210add610107821260c01b6132c0565b613ab367c2f2ae30329b18e260c01b6132c0565b613ac767593637ab1821a2f360c01b6132c0565b6000600a60009054906101000a900473ffffffffffffffffffffffffffffffffffffffff169050613b0267ff1bdf45028abd2760c01b6132c0565b81600a60006101000a81548173ffffffffffffffffffffffffffffffffffffffff021916908373ffffffffffffffffffffffffffffffffffffffff160217905550613b5767567597eaa9e9cfb860c01b6132c0565b613b6b678af39a94c05fdf6560c01b6132c0565b8173ffffffffffffffffffffffffffffffffffffffff168173ffffffffffffffffffffffffffffffffffffffff167f8be0079c531659141344cd1fd0a4f28419497f9722a3daafe3b4186f6b6457e060405160405180910390a35050565b613bdd67e07304dc55230b4460c01b613307565b613bf1679b3bd4e419fae79d60c01b613307565b613c056728f848f3f3e84b4160c01b613307565b613c1f8282604051806020016040528060008152506144e4565b5050565b613c376749ec031c5787e1d560c01b613307565b613c4b67033448a3d5f3246760c01b613307565b613c5f6796e523745a74d56f60c01b613307565b613c6a8484846136c9565b613c7e6731170c4ea83fe0e660c01b613307565b613c9267bc24462bad8360fc60c01b613307565b613ca66772705663fca3c70f60c01b613307565b613cb2848484846145cb565b613cf1576040517f08c379a0000000000000000000000000000000000000000000000000000000008152600401613ce890616804565b60405180910390fd5b613d05677bfa0083baaa2e7e60c01b613307565b50505050565b6060613d2167176631d6ab2114df60c01b6132bd565b613d35679819e9aa7503203560c01b6132bd565b613d4967e859b2ccafc8bea560c01b6132bd565b600b8054613d5690615a87565b80601f0160208091040260200160405190810160405280929190818152602001828054613d8290615a87565b8015613dcf5780601f10613da457610100808354040283529160200191613dcf565b820191906000526020600020905b815481529060010190602001808311613db257829003601f168201915b5050505050905090565b6000919050565b600060019050919050565b6060613e0167393764eb93b008d060c01b6148ba565b613e1567313ff04b9e65804560c01b6148ba565b613e2967f7bc17a76bc6600860c01b6148ba565b60008203613eaa57613e45674766d80c7bb7128e60c01b6148ba565b613e5967c48494d6a377659a60c01b6148ba565b613e6d67addb3c41411c0e0a60c01b6148ba565b6040518060400160405280600181526020017f30000000000000000000000000000000000000000000000000000000000000008152509050614126565b613ebe67bf2af26e3b45fe3960c01b6148ba565b613ed267f860c38456638d5660c01b6148ba565b613ee667890ef3aebe79c90860c01b6148ba565b6000829050613eff67da905c57d7d9e21e60c01b6148ba565b613f1367cff8d9e7fd28dad960c01b6148ba565b6000613f2967b8a79563938e817760c01b6148ba565b613f3d67dc00d684017a75f160c01b6148ba565b5b60008214613f9057613f5a67e8ef5df655622e0060c01b6148ba565b8080613f6590615e36565b915050613f7c67dafde05c676e288f60c01b6148ba565b600a82613f899190616853565b9150613f3e565b613fa4672bc0dd68372b4e8a60c01b6148ba565b613fb867c5a4bfde51a728bd60c01b6148ba565b60008167ffffffffffffffff811115613fd457613fd36156d4565b5b6040519080825280601f01601f1916602001820160405280156140065781602001600182028036833780820191505090505b50905061401d6779815c267265be9060c01b6148ba565b6140316755d445cd2e0cd2c060c01b6148ba565b5b600085146140f75761404e67ead4da6f898b34b960c01b6148ba565b60018261405b919061675e565b9150614071678556da05b292f93f60c01b6148ba565b600a8561407e9190616884565b603061408a91906162b2565b60f81b8183815181106140a05761409f615dd8565b5b60200101907effffffffffffffffffffffffffffffffffffffffffffffffffffffffffffff1916908160001a9053506140e367d753cedd0e3d177560c01b6148ba565b600a856140f09190616853565b9450614032565b61410b6716ca053030333c3c60c01b6148ba565b61411f67357107b5664501c960c01b6148ba565b8093505050505b919050565b600061414167a67f5830e70a5b3960c01b6148bd565b61415567d916139cd61c97a560c01b6148bd565b61416967f2321f342a0b8a7260c01b6148bd565b7f01ffc9a7000000000000000000000000000000000000000000000000000000007bffffffffffffffffffffffffffffffffffffffffffffffffffffffff1916827bffffffffffffffffffffffffffffffffffffffffffffffffffffffff1916149050919050565b50565b6141e8679e9f3be213d0338260c01b613121565b6141fc6787b08a63853e0d7a60c01b613121565b61421067586b058d62de15c560c01b613121565b61421b8383836148c0565b61422f675b0dcc546697fbad60c01b613121565b61424367e88cae41bda0b2b460c01b613121565b600073ffffffffffffffffffffffffffffffffffffffff168373ffffffffffffffffffffffffffffffffffffffff16036142c15761428b675f33355333e2634e60c01b613121565b61429f67808034196ea16f2460c01b613121565b6142b3673b87e2ddb62660de60c01b613121565b6142bc816148d9565b61437d565b6142d567f6559d882fc74ef360c01b613121565b6142e967ecc1f840ea8295bb60c01b613121565b8173ffffffffffffffffffffffffffffffffffffffff168373ffffffffffffffffffffffffffffffffffffffff16146143675761433067937b3ddcc233fb5460c01b613121565b614344676553177228bc647160c01b613121565b614358674436251139ce436360c01b613121565b6143628382614972565b61437c565b61437b675bac9c0b7bb04eb560c01b613121565b5b5b61439167f012bc5f53c3fffe60c01b613121565b6143a567e5fccfa14f538d7460c01b613121565b600073ffffffffffffffffffffffffffffffffffffffff168273ffffffffffffffffffffffffffffffffffffffff1603614423576143ed67a8c4c191ac29839c60c01b613121565b614401679b203ec0158115c460c01b613121565b61441567d830aed44ea3d1b760c01b613121565b61441e81614c0f565b6144df565b614437678e5a1150b05a479d60c01b613121565b61444b67f9d8e89c862204bf60c01b613121565b8273ffffffffffffffffffffffffffffffffffffffff168273ffffffffffffffffffffffffffffffffffffffff16146144c95761449267aa5d365e2a2d405f60c01b613121565b6144a6676d271d263818ec9660c01b613121565b6144ba67764e281f6751ebfc60c01b613121565b6144c48282614dd0565b6144de565b6144dd67d635b9f67397e27060c01b613121565b5b5b505050565b6144f867dde4de34878ec08d60c01b613307565b61450c6794138568ba0f3d6a60c01b613307565b614520670f49ca36cde0598860c01b613307565b61452a8383614eb3565b61453e6750c19163f9d128dd60c01b613307565b6145526748c00d4c446fad9560c01b613307565b61456667e46b5e3a7fb51a5b60c01b613307565b61457360008484846145cb565b6145b2576040517f08c379a00000000000000000000000000000000000000000000000000000000081526004016145a990616804565b60405180910390fd5b6145c667e1cdc1f8281f736a60c01b613307565b505050565b60006145e1670d2328c49ded541860c01b613307565b6145f567b63ffcb41d24e0b060c01b613307565b614609678ea192ac9e47bd3660c01b613307565b6146288473ffffffffffffffffffffffffffffffffffffffff166151ac565b1561487157614641671cd118634f72aabd60c01b613307565b61465567bb08aa7602d8192960c01b613307565b614669676562f105420f913160c01b613307565b8373ffffffffffffffffffffffffffffffffffffffff1663150b7a0261468d6132c3565b8786866040518563ffffffff1660e01b81526004016146af949392919061690a565b6020604051808303816000875af19250505080156146eb57506040513d601f19601f820116820180604052508101906146e8919061696b565b60015b6147f9573d806000811461471b576040519150601f19603f3d011682016040523d82523d6000602084013e614720565b606091505b50614735675d2f12036f3eed4160c01b613307565b614749672b312a4c94f654ae60c01b613307565b60008151036147c95761476667574531207aa7473160c01b613307565b61477a67f73a4b217f266a2960c01b613307565b61478e679448aa7c23f2af8460c01b613307565b6040517f08c379a00000000000000000000000000000000000000000000000000000000081526004016147c090616804565b60405180910390fd5b6147dd67a22918cc267aafb760c01b613307565b6147f1678d7417dda5a0726b60c01b613307565b805181602001fd5b61480d67cdac1fb4883817fb60c01b613307565b614821671f44afed8818fca760c01b613307565b63150b7a0260e01b7bffffffffffffffffffffffffffffffffffffffffffffffffffffffff1916817bffffffffffffffffffffffffffffffffffffffffffffffffffffffff1916149150506148b2565b61488567bb2152a6e831deb860c01b613307565b6148996707211fe7be2871ea60c01b613307565b6148ad67dc2e3989160239e160c01b613307565b600190505b949350505050565b50565b50565b6148d467fcdbc78651bf05ca60c01b613307565b505050565b6148ed678553f378cce47a1f60c01b613121565b61490167f4631cdcc3319a0460c01b613121565b600880549050600960008381526020019081526020016000208190555061493267d585efaee4e8cdf060c01b613121565b61494667858434465094bd6560c01b613121565b600881908060018154018082558091505060019003906000526020600020016000909190919091505550565b61498667c74e80521a0d7a8a60c01b613121565b61499a67dc071985a2f61f8d60c01b613121565b6149ae677a56774205b7990c60c01b613121565b600060016149bb84611b3b565b6149c5919061675e565b90506149db67bc0c60f99a2b9cc760c01b613121565b6149ef6757ef72be2f4aab2d60c01b613121565b600060076000848152602001908152602001600020549050614a1b67cf893d54fa9d64c860c01b613121565b614a2f679cc7e317f9e478b160c01b613121565b818114614b6257614a4a6794f5862b64c1888460c01b613121565b614a5e67e4805eae798337d860c01b613121565b614a72673b0e176e2f9d527460c01b613121565b6000600660008673ffffffffffffffffffffffffffffffffffffffff1673ffffffffffffffffffffffffffffffffffffffff1681526020019081526020016000206000848152602001908152602001600020549050614adb670757dd82df1fe12760c01b613121565b80600660008773ffffffffffffffffffffffffffffffffffffffff1673ffffffffffffffffffffffffffffffffffffffff168152602001908152602001600020600084815260200190815260200160002081905550614b44679b1f7f40451be39f60c01b613121565b81600760008381526020019081526020016000208190555050614b77565b614b7667284cf1682a960ac060c01b613121565b5b614b8a66fc8f1d6e03f33e60c01b613121565b6007600084815260200190815260200160002060009055614bb56773ab17c668b1f91160c01b613121565b600660008573ffffffffffffffffffffffffffffffffffffffff1673ffffffffffffffffffffffffffffffffffffffff16815260200190815260200160002060008381526020019081526020016000206000905550505050565b614c23674afd878ade53052260c01b613121565b614c376730d1f1a2e2db86f660c01b613121565b614c4b67ae6f17115d2842cd60c01b613121565b60006001600880549050614c5f919061675e565b9050614c7567f4277cb9c84e1c7760c01b613121565b614c896768b14d48e9c483cc60c01b613121565b600060096000848152602001908152602001600020549050614cb567a2338d706a6b3c3a60c01b613121565b614cc9673e793073cfc3585960c01b613121565b600060088381548110614cdf57614cde615dd8565b5b90600052602060002001549050614d006750a70509fdb52f7360c01b613121565b8060088381548110614d1557614d14615dd8565b5b9060005260206000200181905550614d3767bc81f15d98d866c060c01b613121565b816009600083815260200190815260200160002081905550614d6367937faaf12a30c92360c01b613121565b6009600085815260200190815260200160002060009055614d8e676aaec19f6a758bfb60c01b613121565b614da2675430fdfc911a93ef60c01b613121565b6008805480614db457614db3616998565b5b6001900381819060005260206000200160009055905550505050565b614de467abb300bf8318e4da60c01b613121565b614df867c8a43dcf7236ad7a60c01b613121565b614e0c6744f3ed9c98f9718960c01b613121565b6000614e1783611b3b565b9050614e2d67b38ebb9006e3c2d360c01b613121565b81600660008573ffffffffffffffffffffffffffffffffffffffff1673ffffffffffffffffffffffffffffffffffffffff168152602001908152602001600020600083815260200190815260200160002081905550614e9667d55e17b40832eca660c01b613121565b806007600084815260200190815260200160002081905550505050565b614ec76740a7358861035e7660c01b613307565b614edb6794fe544db48a305960c01b613307565b614eef679da48fc082359a1d60c01b613307565b614f036741ba13803cbcb44f60c01b613307565b600073ffffffffffffffffffffffffffffffffffffffff168273ffffffffffffffffffffffffffffffffffffffff1603614f72576040517f08c379a0000000000000000000000000000000000000000000000000000000008152600401614f6990616a13565b60405180910390fd5b614f8667f554767bc67ea4cd60c01b613307565b614f9a67039537bcf1cd024460c01b613307565b614fae670d9fc6e07180c44b60c01b613307565b614fc267570bfece2841950760c01b613307565b614fcb8161330a565b1561500b576040517f08c379a000000000000000000000000000000000000000000000000000000000815260040161500290616a7f565b60405180910390fd5b61501f670748a22351efffb360c01b613307565b61503367f85ecbc5bc4bac3560c01b613307565b61504767cab712d6cd7f1a5c60c01b613307565b615053600083836141d4565b61506767e6f9e649fb738b8b60c01b613307565b6001600360008473ffffffffffffffffffffffffffffffffffffffff1673ffffffffffffffffffffffffffffffffffffffff16815260200190815260200160002060008282546150b791906162b2565b925050819055506150d267755cc69f5ac2336260c01b613307565b816002600083815260200190815260200160002060006101000a81548173ffffffffffffffffffffffffffffffffffffffff021916908373ffffffffffffffffffffffffffffffffffffffff160217905550615138677aa8f653a216c1c060c01b613307565b61514c677ede818445ebfd8b60c01b613307565b808273ffffffffffffffffffffffffffffffffffffffff16600073ffffffffffffffffffffffffffffffffffffffff167fddf252ad1be2c89b69c2b068fc378daa952ba7f163c4a11628f55a4df523b3ef60405160405180910390a45050565b60006151c267cd8bd5c436e625be60c01b615238565b6151d667ca9a598610c4f70560c01b615238565b6151ea67e0cd9aa19d6ffe9060c01b615238565b60006152006717ca7ceca53f150760c01b615238565b823b90506152186754fd83a0a7ce7bd260c01b615238565b61522c673cfb1476194c242d60c01b615238565b60008111915050919050565b50565b6000604051905090565b600080fd5b600080fd5b60007fffffffff0000000000000000000000000000000000000000000000000000000082169050919050565b6152848161524f565b811461528f57600080fd5b50565b6000813590506152a18161527b565b92915050565b6000602082840312156152bd576152bc615245565b5b60006152cb84828501615292565b91505092915050565b60008115159050919050565b6152e9816152d4565b82525050565b600060208201905061530460008301846152e0565b92915050565b615313816152d4565b811461531e57600080fd5b50565b6000813590506153308161530a565b92915050565b60006020828403121561534c5761534b615245565b5b600061535a84828501615321565b91505092915050565b600081519050919050565b600082825260208201905092915050565b60005b8381101561539d578082015181840152602081019050615382565b60008484015250505050565b6000601f19601f8301169050919050565b60006153c582615363565b6153cf818561536e565b93506153df81856020860161537f565b6153e8816153a9565b840191505092915050565b6000602082019050818103600083015261540d81846153ba565b905092915050565b6000819050919050565b61542881615415565b811461543357600080fd5b50565b6000813590506154458161541f565b92915050565b60006020828403121561546157615460615245565b5b600061546f84828501615436565b91505092915050565b600073ffffffffffffffffffffffffffffffffffffffff82169050919050565b60006154a382615478565b9050919050565b6154b381615498565b82525050565b60006020820190506154ce60008301846154aa565b92915050565b6154dd81615498565b81146154e857600080fd5b50565b6000813590506154fa816154d4565b92915050565b6000806040838503121561551757615516615245565b5b6000615525858286016154eb565b925050602061553685828601615436565b9150509250929050565b61554981615415565b82525050565b60006020820190506155646000830184615540565b92915050565b60008060006060848603121561558357615582615245565b5b6000615591868287016154eb565b93505060206155a2868287016154eb565b92505060406155b386828701615436565b9150509250925092565b6000602082840312156155d3576155d2615245565b5b60006155e1848285016154eb565b91505092915050565b600081519050919050565b600082825260208201905092915050565b6000819050602082019050919050565b61561f81615415565b82525050565b60006156318383615616565b60208301905092915050565b6000602082019050919050565b6000615655826155ea565b61565f81856155f5565b935061566a83615606565b8060005b8381101561569b5781516156828882615625565b975061568d8361563d565b92505060018101905061566e565b5085935050505092915050565b600060208201905081810360008301526156c2818461564a565b905092915050565b600080fd5b600080fd5b7f4e487b7100000000000000000000000000000000000000000000000000000000600052604160045260246000fd5b61570c826153a9565b810181811067ffffffffffffffff8211171561572b5761572a6156d4565b5b80604052505050565b600061573e61523b565b905061574a8282615703565b919050565b600067ffffffffffffffff82111561576a576157696156d4565b5b615773826153a9565b9050602081019050919050565b82818337600083830152505050565b60006157a261579d8461574f565b615734565b9050828152602081018484840111156157be576157bd6156cf565b5b6157c9848285615780565b509392505050565b600082601f8301126157e6576157e56156ca565b5b81356157f684826020860161578f565b91505092915050565b60006020828403121561581557615814615245565b5b600082013567ffffffffffffffff8111156158335761583261524a565b5b61583f848285016157d1565b91505092915050565b6000806040838503121561585f5761585e615245565b5b600061586d858286016154eb565b925050602061587e85828601615321565b9150509250929050565b600067ffffffffffffffff8211156158a3576158a26156d4565b5b6158ac826153a9565b9050602081019050919050565b60006158cc6158c784615888565b615734565b9050828152602081018484840111156158e8576158e76156cf565b5b6158f3848285615780565b509392505050565b600082601f8301126159105761590f6156ca565b5b81356159208482602086016158b9565b91505092915050565b6000806000806080858703121561594357615942615245565b5b6000615951878288016154eb565b9450506020615962878288016154eb565b935050604061597387828801615436565b925050606085013567ffffffffffffffff8111156159945761599361524a565b5b6159a0878288016158fb565b91505092959194509250565b600080604083850312156159c3576159c2615245565b5b60006159d1858286016154eb565b92505060206159e2858286016154eb565b9150509250929050565b7f4f776e61626c653a2063616c6c6572206973206e6f7420746865206f776e6572600082015250565b6000615a2260208361536e565b9150615a2d826159ec565b602082019050919050565b60006020820190508181036000830152615a5181615a15565b9050919050565b7f4e487b7100000000000000000000000000000000000000000000000000000000600052602260045260246000fd5b60006002820490506001821680615a9f57607f821691505b602082108103615ab257615ab1615a58565b5b50919050565b7f4552433732313a20617070726f76656420717565727920666f72206e6f6e657860008201527f697374656e7420746f6b656e0000000000000000000000000000000000000000602082015250565b6000615b14602c8361536e565b9150615b1f82615ab8565b604082019050919050565b60006020820190508181036000830152615b4381615b07565b9050919050565b7f4552433732313a20617070726f76616c20746f2063757272656e74206f776e6560008201527f7200000000000000000000000000000000000000000000000000000000000000602082015250565b6000615ba660218361536e565b9150615bb182615b4a565b604082019050919050565b60006020820190508181036000830152615bd581615b99565b9050919050565b7f4552433732313a20617070726f76652063616c6c6572206973206e6f74206f7760008201527f6e6572206e6f7220617070726f76656420666f7220616c6c0000000000000000602082015250565b6000615c3860388361536e565b9150615c4382615bdc565b604082019050919050565b60006020820190508181036000830152615c6781615c2b565b9050919050565b7f4552433732313a207472616e736665722063616c6c6572206973206e6f74206f60008201527f776e6572206e6f7220617070726f766564000000000000000000000000000000602082015250565b6000615cca60318361536e565b9150615cd582615c6e565b604082019050919050565b60006020820190508181036000830152615cf981615cbd565b9050919050565b7f455243373231456e756d657261626c653a206f776e657220696e646578206f7560008201527f74206f6620626f756e6473000000000000000000000000000000000000000000602082015250565b6000615d5c602b8361536e565b9150615d6782615d00565b604082019050919050565b60006020820190508181036000830152615d8b81615d4f565b9050919050565b600081905092915050565b50565b6000615dad600083615d92565b9150615db882615d9d565b600082019050919050565b6000615dce82615da0565b9150819050919050565b7f4e487b7100000000000000000000000000000000000000000000000000000000600052603260045260246000fd5b7f4e487b7100000000000000000000000000000000000000000000000000000000600052601160045260246000fd5b6000615e4182615415565b91507fffffffffffffffffffffffffffffffffffffffffffffffffffffffffffffffff8203615e7357615e72615e07565b5b600182019050919050565b7f455243373231456e756d657261626c653a20676c6f62616c20696e646578206f60008201527f7574206f6620626f756e64730000000000000000000000000000000000000000602082015250565b6000615eda602c8361536e565b9150615ee582615e7e565b604082019050919050565b60006020820190508181036000830152615f0981615ecd565b9050919050565b60008190508160005260206000209050919050565b60006020601f8301049050919050565b600082821b905092915050565b600060088302615f727fffffffffffffffffffffffffffffffffffffffffffffffffffffffffffffffff82615f35565b615f7c8683615f35565b95508019841693508086168417925050509392505050565b6000819050919050565b6000615fb9615fb4615faf84615415565b615f94565b615415565b9050919050565b6000819050919050565b615fd383615f9e565b615fe7615fdf82615fc0565b848454615f42565b825550505050565b600090565b615ffc615fef565b616007818484615fca565b505050565b5b8181101561602b57616020600082615ff4565b60018101905061600d565b5050565b601f8211156160705761604181615f10565b61604a84615f25565b81016020851015616059578190505b61606d61606585615f25565b83018261600c565b50505b505050565b600082821c905092915050565b600061609360001984600802616075565b1980831691505092915050565b60006160ac8383616082565b9150826002028217905092915050565b6160c582615363565b67ffffffffffffffff8111156160de576160dd6156d4565b5b6160e88254615a87565b6160f382828561602f565b600060209050601f8311600181146161265760008415616114578287015190505b61611e85826160a0565b865550616186565b601f19841661613486615f10565b60005b8281101561615c57848901518255600182019150602085019450602081019050616137565b868310156161795784890151616175601f891682616082565b8355505b6001600288020188555050505b505050505050565b7f4552433732313a206f776e657220717565727920666f72206e6f6e657869737460008201527f656e7420746f6b656e0000000000000000000000000000000000000000000000602082015250565b60006161ea60298361536e565b91506161f58261618e565b604082019050919050565b60006020820190508181036000830152616219816161dd565b9050919050565b7f4552433732313a2062616c616e636520717565727920666f7220746865207a6560008201527f726f206164647265737300000000000000000000000000000000000000000000602082015250565b600061627c602a8361536e565b915061628782616220565b604082019050919050565b600060208201905081810360008301526162ab8161626f565b9050919050565b60006162bd82615415565b91506162c883615415565b92508282019050808211156162e0576162df615e07565b5b92915050565b60006162f182615415565b91506162fc83615415565b925082820261630a81615415565b9150828204841483151761632157616320615e07565b5b5092915050565b7f4552433732313a20617070726f766520746f2063616c6c657200000000000000600082015250565b600061635e60198361536e565b915061636982616328565b602082019050919050565b6000602082019050818103600083015261638d81616351565b9050919050565b7f4552433732314d657461646174613a2055524920717565727920666f72206e6f60008201527f6e6578697374656e7420746f6b656e0000000000000000000000000000000000602082015250565b60006163f0602f8361536e565b91506163fb82616394565b604082019050919050565b6000602082019050818103600083015261641f816163e3565b9050919050565b600081905092915050565b600061643c82615363565b6164468185616426565b935061645681856020860161537f565b80840191505092915050565b6000815461646f81615a87565b6164798186616426565b9450600182166000811461649457600181146164a9576164dc565b60ff19831686528115158202860193506164dc565b6164b285615f10565b60005b838110156164d4578154818901526001820191506020810190506164b5565b838801955050505b50505092915050565b60006164f18286616431565b91506164fd8285616431565b91506165098284616462565b9150819050949350505050565b7f4f776e61626c653a206e6577206f776e657220697320746865207a65726f206160008201527f6464726573730000000000000000000000000000000000000000000000000000602082015250565b600061657260268361536e565b915061657d82616516565b604082019050919050565b600060208201905081810360008301526165a181616565565b9050919050565b7f4552433732313a206f70657261746f7220717565727920666f72206e6f6e657860008201527f697374656e7420746f6b656e0000000000000000000000000000000000000000602082015250565b6000616604602c8361536e565b915061660f826165a8565b604082019050919050565b60006020820190508181036000830152616633816165f7565b9050919050565b7f4552433732313a207472616e73666572206f6620746f6b656e2074686174206960008201527f73206e6f74206f776e0000000000000000000000000000000000000000000000602082015250565b600061669660298361536e565b91506166a18261663a565b604082019050919050565b600060208201905081810360008301526166c581616689565b9050919050565b7f4552433732313a207472616e7366657220746f20746865207a65726f2061646460008201527f7265737300000000000000000000000000000000000000000000000000000000602082015250565b600061672860248361536e565b9150616733826166cc565b604082019050919050565b600060208201905081810360008301526167578161671b565b9050919050565b600061676982615415565b915061677483615415565b925082820390508181111561678c5761678b615e07565b5b92915050565b7f4552433732313a207472616e7366657220746f206e6f6e20455243373231526560008201527f63656976657220696d706c656d656e7465720000000000000000000000000000602082015250565b60006167ee60328361536e565b91506167f982616792565b604082019050919050565b6000602082019050818103600083015261681d816167e1565b9050919050565b7f4e487b7100000000000000000000000000000000000000000000000000000000600052601260045260246000fd5b600061685e82615415565b915061686983615415565b92508261687957616878616824565b5b828204905092915050565b600061688f82615415565b915061689a83615415565b9250826168aa576168a9616824565b5b828206905092915050565b600081519050919050565b600082825260208201905092915050565b60006168dc826168b5565b6168e681856168c0565b93506168f681856020860161537f565b6168ff816153a9565b840191505092915050565b600060808201905061691f60008301876154aa565b61692c60208301866154aa565b6169396040830185615540565b818103606083015261694b81846168d1565b905095945050505050565b6000815190506169658161527b565b92915050565b60006020828403121561698157616980615245565b5b600061698f84828501616956565b91505092915050565b7f4e487b7100000000000000000000000000000000000000000000000000000000600052603160045260246000fd5b7f4552433732313a206d696e7420746f20746865207a65726f2061646472657373600082015250565b60006169fd60208361536e565b9150616a08826169c7565b602082019050919050565b60006020820190508181036000830152616a2c816169f0565b9050919050565b7f4552433732313a20746f6b656e20616c7265616479206d696e74656400000000600082015250565b6000616a69601c8361536e565b9150616a7482616a33565b602082019050919050565b60006020820190508181036000830152616a9881616a5c565b905091905056fea26469706673582212201451637f36b5f2cef73ac8aef13811b2a780e8f389613f203c650ee71876100164736f6c63430008130033",
  "linkReferences": {},
  "deployedLinkReferences": {}
}