{
  "_format": "hh-sol-artifact-1",
  "contractName": "TieredStaking",
  "sourceName": "contracts/multi_ai.sol",
  "abi": [
    {
      "inputs": [
        {
          "internalType": "address",
          "name": "_stakingToken",
          "type": "address"
        },
        {
          "internalType": "address",
          "name": "_rewardToken",
          "type": "address"
        },
        {
          "internalType": "uint256",
          "name": "_baseRewardRate",
          "type": "uint256"
        }
      ],
      "stateMutability": "nonpayable",
      "type": "constructor"
    },
    {
      "anonymous": false,
      "inputs": [
        {
          "indexed": true,
          "internalType": "address",
          "name": "previousOwner",
          "type": "address"
        },
        {
          "indexed": true,
          "internalType": "address",
          "name": "newOwner",
          "type": "address"
        }
      ],
      "name": "OwnershipTransferred",
      "type": "event"
    },
    {
      "anonymous": false,
      "inputs": [
        {
          "indexed": true,
          "internalType": "address",
          "name": "user",
          "type": "address"
        },
        {
          "indexed": false,
          "internalType": "uint256",
          "name": "amount",
          "type": "uint256"
        },
        {
          "indexed": false,
          "internalType": "uint256",
          "name": "stakeIndex",
          "type": "uint256"
        }
      ],
      "name": "RewardClaimed",
      "type": "event"
    },
    {
      "anonymous": false,
      "inputs": [
        {
          "indexed": true,
          "internalType": "address",
          "name": "user",
          "type": "address"
        },
        {
          "indexed": false,
          "internalType": "uint256",
          "name": "amount",
          "type": "uint256"
        },
        {
          "indexed": false,
          "internalType": "uint256",
          "name": "tierId",
          "type": "uint256"
        },
        {
          "indexed": false,
          "internalType": "uint256",
          "name": "stakeIndex",
          "type": "uint256"
        }
      ],
      "name": "Staked",
      "type": "event"
    },
    {
      "anonymous": false,
      "inputs": [
        {
          "indexed": true,
          "internalType": "uint256",
          "name": "tierId",
          "type": "uint256"
        },
        {
          "indexed": false,
          "internalType": "uint256",
          "name": "minAmount",
          "type": "uint256"
        },
        {
          "indexed": false,
          "internalType": "uint256",
          "name": "maxAmount",
          "type": "uint256"
        },
        {
          "indexed": false,
          "internalType": "uint256",
          "name": "multiplier",
          "type": "uint256"
        },
        {
          "indexed": false,
          "internalType": "uint256",
          "name": "lockDuration",
          "type": "uint256"
        }
      ],
      "name": "TierCreated",
      "type": "event"
    },
    {
      "anonymous": false,
      "inputs": [
        {
          "indexed": true,
          "internalType": "uint256",
          "name": "tierId",
          "type": "uint256"
        },
        {
          "indexed": false,
          "internalType": "bool",
          "name": "isActive",
          "type": "bool"
        }
      ],
      "name": "TierUpdated",
      "type": "event"
    },
    {
      "anonymous": false,
      "inputs": [
        {
          "indexed": true,
          "internalType": "address",
          "name": "user",
          "type": "address"
        },
        {
          "indexed": false,
          "internalType": "uint256",
          "name": "amount",
          "type": "uint256"
        },
        {
          "indexed": false,
          "internalType": "uint256",
          "name": "stakeIndex",
          "type": "uint256"
        }
      ],
      "name": "Withdrawn",
      "type": "event"
    },
    {
      "inputs": [],
      "name": "baseRewardRate",
      "outputs": [
        {
          "internalType": "uint256",
          "name": "",
          "type": "uint256"
        }
      ],
      "stateMutability": "view",
      "type": "function"
    },
    {
      "inputs": [
        {
          "internalType": "address",
          "name": "user",
          "type": "address"
        },
        {
          "internalType": "uint256",
          "name": "stakeIndex",
          "type": "uint256"
        }
      ],
      "name": "calculateRewards",
      "outputs": [
        {
          "internalType": "uint256",
          "name": "",
          "type": "uint256"
        }
      ],
      "stateMutability": "view",
      "type": "function"
    },
    {
      "inputs": [
        {
          "internalType": "uint256",
          "name": "stakeIndex",
          "type": "uint256"
        }
      ],
      "name": "claimRewards",
      "outputs": [],
      "stateMutability": "nonpayable",
      "type": "function"
    },
    {
      "inputs": [
        {
          "internalType": "uint256",
          "name": "minAmount",
          "type": "uint256"
        },
        {
          "internalType": "uint256",
          "name": "maxAmount",
          "type": "uint256"
        },
        {
          "internalType": "uint256",
          "name": "rewardMultiplier",
          "type": "uint256"
        },
        {
          "internalType": "uint256",
          "name": "lockDuration",
          "type": "uint256"
        }
      ],
      "name": "createTier",
      "outputs": [],
      "stateMutability": "nonpayable",
      "type": "function"
    },
    {
      "inputs": [
        {
          "internalType": "uint256",
          "name": "stakeIndex",
          "type": "uint256"
        }
      ],
      "name": "emergencyWithdraw",
      "outputs": [],
      "stateMutability": "nonpayable",
      "type": "function"
    },
    {
      "inputs": [
        {
          "internalType": "uint256",
          "name": "amount",
          "type": "uint256"
        }
      ],
      "name": "fundRewards",
      "outputs": [],
      "stateMutability": "nonpayable",
      "type": "function"
    },
    {
      "inputs": [
        {
          "internalType": "address",
          "name": "user",
          "type": "address"
        }
      ],
      "name": "getUserStakes",
      "outputs": [
        {
          "components": [
            {
              "internalType": "uint256",
              "name": "amount",
              "type": "uint256"
            },
            {
              "internalType": "uint256",
              "name": "tierId",
              "type": "uint256"
            },
            {
              "internalType": "uint256",
              "name": "stakedAt",
              "type": "uint256"
            },
            {
              "internalType": "uint256",
              "name": "lastClaimed",
              "type": "uint256"
            },
            {
              "internalType": "uint256",
              "name": "pendingRewards",
              "type": "uint256"
            }
          ],
          "internalType": "struct TieredStaking.StakeInfo[]",
          "name": "",
          "type": "tuple[]"
        }
      ],
      "stateMutability": "view",
      "type": "function"
    },
    {
      "inputs": [],
      "name": "owner",
      "outputs": [
        {
          "internalType": "address",
          "name": "",
          "type": "address"
        }
      ],
      "stateMutability": "view",
      "type": "function"
    },
    {
      "inputs": [],
      "name": "renounceOwnership",
      "outputs": [],
      "stateMutability": "nonpayable",
      "type": "function"
    },
    {
      "inputs": [],
      "name": "rewardToken",
      "outputs": [
        {
          "internalType": "contract IERC20",
          "name": "",
          "type": "address"
        }
      ],
      "stateMutability": "view",
      "type": "function"
    },
    {
      "inputs": [
        {
          "internalType": "uint256",
          "name": "newRate",
          "type": "uint256"
        }
      ],
      "name": "setBaseRewardRate",
      "outputs": [],
      "stateMutability": "nonpayable",
      "type": "function"
    },
    {
      "inputs": [
        {
          "internalType": "uint256",
          "name": "tierId",
          "type": "uint256"
        },
        {
          "internalType": "bool",
          "name": "isActive",
          "type": "bool"
        }
      ],
      "name": "setTierStatus",
      "outputs": [],
      "stateMutability": "nonpayable",
      "type": "function"
    },
    {
      "inputs": [
        {
          "internalType": "uint256",
          "name": "amount",
          "type": "uint256"
        },
        {
          "internalType": "uint256",
          "name": "tierId",
          "type": "uint256"
        }
      ],
      "name": "stake",
      "outputs": [],
      "stateMutability": "nonpayable",
      "type": "function"
    },
    {
      "inputs": [],
      "name": "stakingToken",
      "outputs": [
        {
          "internalType": "contract IERC20",
          "name": "",
          "type": "address"
        }
      ],
      "stateMutability": "view",
      "type": "function"
    },
    {
      "inputs": [],
      "name": "tierCount",
      "outputs": [
        {
          "internalType": "uint256",
          "name": "",
          "type": "uint256"
        }
      ],
      "stateMutability": "view",
      "type": "function"
    },
    {
      "inputs": [
        {
          "internalType": "uint256",
          "name": "",
          "type": "uint256"
        }
      ],
      "name": "tiers",
      "outputs": [
        {
          "internalType": "uint256",
          "name": "minAmount",
          "type": "uint256"
        },
        {
          "internalType": "uint256",
          "name": "maxAmount",
          "type": "uint256"
        },
        {
          "internalType": "uint256",
          "name": "rewardMultiplier",
          "type": "uint256"
        },
        {
          "internalType": "uint256",
          "name": "lockDuration",
          "type": "uint256"
        },
        {
          "internalType": "bool",
          "name": "isActive",
          "type": "bool"
        }
      ],
      "stateMutability": "view",
      "type": "function"
    },
    {
      "inputs": [],
      "name": "totalStaked",
      "outputs": [
        {
          "internalType": "uint256",
          "name": "",
          "type": "uint256"
        }
      ],
      "stateMutability": "view",
      "type": "function"
    },
    {
      "inputs": [
        {
          "internalType": "address",
          "name": "",
          "type": "address"
        }
      ],
      "name": "totalUserStaked",
      "outputs": [
        {
          "internalType": "uint256",
          "name": "",
          "type": "uint256"
        }
      ],
      "stateMutability": "view",
      "type": "function"
    },
    {
      "inputs": [
        {
          "internalType": "address",
          "name": "newOwner",
          "type": "address"
        }
      ],
      "name": "transferOwnership",
      "outputs": [],
      "stateMutability": "nonpayable",
      "type": "function"
    },
    {
      "inputs": [
        {
          "internalType": "address",
          "name": "",
          "type": "address"
        },
        {
          "internalType": "uint256",
          "name": "",
          "type": "uint256"
        }
      ],
      "name": "userStakes",
      "outputs": [
        {
          "internalType": "uint256",
          "name": "amount",
          "type": "uint256"
        },
        {
          "internalType": "uint256",
          "name": "tierId",
          "type": "uint256"
        },
        {
          "internalType": "uint256",
          "name": "stakedAt",
          "type": "uint256"
        },
        {
          "internalType": "uint256",
          "name": "lastClaimed",
          "type": "uint256"
        },
        {
          "internalType": "uint256",
          "name": "pendingRewards",
          "type": "uint256"
        }
      ],
      "stateMutability": "view",
      "type": "function"
    },
    {
      "inputs": [
        {
          "internalType": "uint256",
          "name": "stakeIndex",
          "type": "uint256"
        }
      ],
      "name": "withdrawStake",
      "outputs": [],
      "stateMutability": "nonpayable",
      "type": "function"
    }
  ],
  "bytecode": "0x60806040523480156200001157600080fd5b50604051620041d3380380620041d38339818101604052810190620000379190620002d4565b620000576200004b6200016060201b60201c565b6200016860201b60201c565b600180819055506200007a67c23051daa3260d1460c01b6200022c60201b60201c565b620000966792b7a7f49afa88d060c01b6200022c60201b60201c565b82600260006101000a81548173ffffffffffffffffffffffffffffffffffffffff021916908373ffffffffffffffffffffffffffffffffffffffff160217905550620000f36757929b58a79e53e760c01b6200022c60201b60201c565b81600360006101000a81548173ffffffffffffffffffffffffffffffffffffffff021916908373ffffffffffffffffffffffffffffffffffffffff1602179055506200015067ed00dc41a0559f4160c01b6200022c60201b60201c565b8060048190555050505062000330565b600033905090565b60008060009054906101000a900473ffffffffffffffffffffffffffffffffffffffff169050816000806101000a81548173ffffffffffffffffffffffffffffffffffffffff021916908373ffffffffffffffffffffffffffffffffffffffff1602179055508173ffffffffffffffffffffffffffffffffffffffff168173ffffffffffffffffffffffffffffffffffffffff167f8be0079c531659141344cd1fd0a4f28419497f9722a3daafe3b4186f6b6457e060405160405180910390a35050565b50565b600080fd5b600073ffffffffffffffffffffffffffffffffffffffff82169050919050565b6000620002618262000234565b9050919050565b620002738162000254565b81146200027f57600080fd5b50565b600081519050620002938162000268565b92915050565b6000819050919050565b620002ae8162000299565b8114620002ba57600080fd5b50565b600081519050620002ce81620002a3565b92915050565b600080600060608486031215620002f057620002ef6200022f565b5b6000620003008682870162000282565b9350506020620003138682870162000282565b92505060406200032686828701620002bd565b9150509250925092565b613e9380620003406000396000f3fe608060405234801561001057600080fd5b50600436106101775760003560e01c8063817b1cd2116100d8578063afbf34401161008c578063f0a9abe711610066578063f0a9abe7146103d8578063f2fde38b146103f4578063f7c618c11461041057610177565b8063afbf344014610356578063b5d5b5fa14610374578063beb8314c146103a857610177565b80638da5cb5b116100bd5780638da5cb5b146102fe57806393707a191461031c57806396b55f7d1461033857610177565b8063817b1cd2146102b0578063842e2981146102ce57610177565b80633a1077391161012f578063715018a611610114578063715018a61461026c57806372f702f3146102765780637b0472f01461029457610177565b80633a107739146102205780635312ea8e1461025057610177565b80630962ef79116101605780630962ef79146101cc5780631ebb4fdc146101e857806325d5971f1461020457610177565b8063039af9eb1461017c57806307738af8146101b0575b600080fd5b61019660048036038101906101919190612df8565b61042e565b6040516101a7959493929190612e4f565b60405180910390f35b6101ca60048036038101906101c59190612ea2565b610471565b005b6101e660048036038101906101e19190612df8565b610712565b005b61020260048036038101906101fd9190612f35565b610ae3565b005b61021e60048036038101906102199190612df8565b610c6e565b005b61023a60048036038101906102359190612fd3565b61143e565b6040516102479190613000565b60405180910390f35b61026a60048036038101906102659190612df8565b611456565b005b61027461199a565b005b61027e6119ae565b60405161028b919061307a565b60405180910390f35b6102ae60048036038101906102a99190613095565b6119d4565b005b6102b861227c565b6040516102c59190613000565b60405180910390f35b6102e860048036038101906102e39190612fd3565b612282565b6040516102f591906131fb565b60405180910390f35b61030661238e565b604051610313919061322c565b60405180910390f35b61033660048036038101906103319190612df8565b6123b7565b005b610340612475565b60405161034d9190613000565b60405180910390f35b61035e61247b565b60405161036b9190613000565b60405180910390f35b61038e60048036038101906103899190613247565b612481565b60405161039f959493929190613287565b60405180910390f35b6103c260048036038101906103bd9190613247565b6124d4565b6040516103cf9190613000565b60405180910390f35b6103f260048036038101906103ed9190612df8565b612769565b005b61040e60048036038101906104099190612fd3565b6127cb565b005b61041861284e565b604051610425919061307a565b60405180910390f35b60066020528060005260406000206000915090508060000154908060010154908060020154908060030154908060040160009054906101000a900460ff16905085565b610485671624fed6850677df60c01b612874565b61048d612877565b6104a16778a83ab3b1f08b7160c01b612874565b6104b567805b5115d28baea360c01b612874565b6104c96778e92d17be58fa2960c01b612874565b6104dd675edb8cd0b53223f260c01b612874565b6104f16752dc5831b5e4ddfe60c01b612874565b828410610533576040517f08c379a000000000000000000000000000000000000000000000000000000000815260040161052a90613337565b60405180910390fd5b61054767136ab85fb20eb60060c01b612874565b61055b673cad1b170f142be860c01b612874565b61056f67f8cfc1f1e03d138460c01b612874565b6105836727dddb241d7cd93560c01b612874565b600082116105c6576040517f08c379a00000000000000000000000000000000000000000000000000000000081526004016105bd906133a3565b60405180910390fd5b6105da6745835be8ab4ec32760c01b612874565b6105ee676acc651995872c7560c01b612874565b60076000815480929190610601906133f2565b919050555061061a6761f96763290bde1f60c01b612874565b6040518060a00160405280858152602001848152602001838152602001828152602001600115158152506006600060075481526020019081526020016000206000820151816000015560208201518160010155604082015181600201556060820151816003015560808201518160040160006101000a81548160ff0219169083151502179055509050506106b867fb201462c58ac74a60c01b612874565b6106cc671d4d9bf514a61abe60c01b612874565b6007547f1d87edd766d4a80321c9b268fd614fda07e60cdebe8c75fa2e5fa8584dbbf90b85858585604051610704949392919061343a565b60405180910390a250505050565b61072667b9bf8e4f57c308d160c01b612874565b61072e6128f5565b61074267e47add6fcfa55a0160c01b612874565b61075667518be555598556f760c01b612874565b61076a673bdd0fb5b228720e60c01b612874565b61077e674db1e8f2b74fe1d660c01b612874565b61079267c8913e269a43457f60c01b612874565b600860003373ffffffffffffffffffffffffffffffffffffffff1673ffffffffffffffffffffffffffffffffffffffff168152602001908152602001600020805490508110610816576040517f08c379a000000000000000000000000000000000000000000000000000000000815260040161080d906134cb565b60405180910390fd5b61082a675cafa3f87cdb907560c01b612874565b61083e67c3ed4d9a2a779e7960c01b612874565b61085267a6674ccc8ff534a860c01b612874565b600061085e33836124d4565b905061087467ac733b0e1e65f0f860c01b612874565b610888677aded458076dac5060c01b612874565b61089c6767cad1ca386c08b660c01b612874565b600081116108df576040517f08c379a00000000000000000000000000000000000000000000000000000000081526004016108d690613537565b60405180910390fd5b6108f367c081cb17f542cf3c60c01b612874565b61090767e8d0be1c1253200560c01b612874565b42600860003373ffffffffffffffffffffffffffffffffffffffff1673ffffffffffffffffffffffffffffffffffffffff168152602001908152602001600020838154811061095957610958613557565b5b90600052602060002090600502016003018190555061098267b7dd826fe75f4c5560c01b612874565b6000600860003373ffffffffffffffffffffffffffffffffffffffff1673ffffffffffffffffffffffffffffffffffffffff16815260200190815260200160002083815481106109d5576109d4613557565b5b9060005260206000209060050201600401819055506109fe672f4c4fdc71972f4360c01b612874565b610a126781ca822b2aa8310460c01b612874565b610a5f3382600360009054906101000a900473ffffffffffffffffffffffffffffffffffffffff1673ffffffffffffffffffffffffffffffffffffffff166129449092919063ffffffff16565b610a73671bd41e0e5498bdbe60c01b612874565b610a8767ae2117fc65ab61e560c01b612874565b3373ffffffffffffffffffffffffffffffffffffffff167ff01da32686223933d8a18a391060918c7f11a3648639edd87ae013e2e27317438284604051610acf929190613586565b60405180910390a250610ae06129ca565b50565b610af76783b7979c228401c460c01b612874565b610aff612877565b610b1367d45e8234ac09663d60c01b612874565b610b2767f1851a963479341e60c01b612874565b610b3b677c1c81392c49308a60c01b612874565b610b4f67166fa5eb038cf8fa60c01b612874565b610b6367fe4efb645a87132d60c01b612874565b600082118015610b7557506007548211155b610bb4576040517f08c379a0000000000000000000000000000000000000000000000000000000008152600401610bab906135fb565b60405180910390fd5b610bc867a04322fd654c122560c01b612874565b610bdc67a075a12a0bf2095e60c01b612874565b806006600084815260200190815260200160002060040160006101000a81548160ff021916908315150217905550610c1e674ddb69bee8a6689460c01b612874565b610c32678e875e0100d718d860c01b612874565b817f8f71204ab5049511d33210dd0e3f57d281dfb0c878c1246c78bba0e1d0ecb56182604051610c62919061361b565b60405180910390a25050565b610c826702e730bdacd6dca460c01b612874565b610c8a6128f5565b610c9e67a18815ab2b5317e760c01b612874565b610cb267847bf0f9e2a1f3d860c01b612874565b610cc667e1ab1e9f62f4cbb260c01b612874565b610cda67db72ba3e85ad084160c01b612874565b610cee67a323de1b80229ee260c01b612874565b600860003373ffffffffffffffffffffffffffffffffffffffff1673ffffffffffffffffffffffffffffffffffffffff168152602001908152602001600020805490508110610d72576040517f08c379a0000000000000000000000000000000000000000000000000000000008152600401610d69906134cb565b60405180910390fd5b610d86678e412a09ff56ee6c60c01b612874565b610d9a6750c95e7eda863d1f60c01b612874565b610dae67308b9d433510a99b60c01b612874565b6000600860003373ffffffffffffffffffffffffffffffffffffffff1673ffffffffffffffffffffffffffffffffffffffff1681526020019081526020016000208281548110610e0157610e00613557565b5b90600052602060002090600502016040518060a0016040529081600082015481526020016001820154815260200160028201548152602001600382015481526020016004820154815250509050610e626789e5821d1b2537cd60c01b612874565b610e76675b131a75dbe0f90960c01b612874565b600060066000836020015181526020019081526020016000206040518060a0016040529081600082015481526020016001820154815260200160028201548152602001600382015481526020016004820160009054906101000a900460ff1615151515815250509050610ef3675fac9beb6d56a5fe60c01b612874565b610f0767c78b999993a4f2c960c01b612874565b610f1b679378a3c7cffbb67360c01b612874565b80606001518260400151610f2f9190613636565b421015610f71576040517f08c379a0000000000000000000000000000000000000000000000000000000008152600401610f68906136b6565b60405180910390fd5b610f85672ed1f0d2a0b3eb4960c01b612874565b610f99671a9b0de3fe3cdc6d60c01b612874565b610fad67fdd2aeeea14d994860c01b612874565b6000610fb933856124d4565b9050610fcf6796d4315dd812945960c01b612874565b610fe367614b4c2b2394dbb460c01b612874565b600081111561107a57611000675771511c077c138d60c01b612874565b6110146780ab5d660d1e84d060c01b612874565b611028676198a6ecb47d28e960c01b612874565b6110753382600360009054906101000a900473ffffffffffffffffffffffffffffffffffffffff1673ffffffffffffffffffffffffffffffffffffffff166129449092919063ffffffff16565b61108f565b61108e67fb0b81cfd43d46ae60c01b612874565b5b6110a367bcf07bb44ccb28ed60c01b612874565b8260000151600960003373ffffffffffffffffffffffffffffffffffffffff1673ffffffffffffffffffffffffffffffffffffffff16815260200190815260200160002060008282546110f691906136d6565b92505081905550611111670e13b0bff13321d360c01b612874565b82600001516005600082825461112791906136d6565b92505081905550611142672752fce09817c8fe60c01b612874565b600860003373ffffffffffffffffffffffffffffffffffffffff1673ffffffffffffffffffffffffffffffffffffffff1681526020019081526020016000206001600860003373ffffffffffffffffffffffffffffffffffffffff1673ffffffffffffffffffffffffffffffffffffffff168152602001908152602001600020805490506111d091906136d6565b815481106111e1576111e0613557565b5b9060005260206000209060050201600860003373ffffffffffffffffffffffffffffffffffffffff1673ffffffffffffffffffffffffffffffffffffffff16815260200190815260200160002085815481106112405761123f613557565b5b906000526020600020906005020160008201548160000155600182015481600101556002820154816002015560038201548160030155600482015481600401559050506112976799859f258625bf7360c01b612874565b6112ab6761708b507305c48c60c01b612874565b600860003373ffffffffffffffffffffffffffffffffffffffff1673ffffffffffffffffffffffffffffffffffffffff1681526020019081526020016000208054806112fa576112f961370a565b5b600190038181906000526020600020906005020160008082016000905560018201600090556002820160009055600382016000905560048201600090555050905561134f67350761ed04f2253f60c01b612874565b61136367850e48d7616fb77b60c01b612874565b6113b4338460000151600260009054906101000a900473ffffffffffffffffffffffffffffffffffffffff1673ffffffffffffffffffffffffffffffffffffffff166129449092919063ffffffff16565b6113c8678f2ffe59c69e5a7d60c01b612874565b6113dc679e592e196866819c60c01b612874565b3373ffffffffffffffffffffffffffffffffffffffff167f92ccf450a286a957af52509bc1c9939d1a6a481783e142e41e2499f0bb66ebc6846000015186604051611428929190613586565b60405180910390a250505061143b6129ca565b50565b60096020528060005260406000206000915090505481565b61146a678fd6f40a341a86e660c01b612874565b6114726128f5565b611486672accfe559ca8975f60c01b612874565b61149a67e0ab5a9ed3ec6cb360c01b612874565b6114ae6785b083eca522135660c01b612874565b6114c2679370637727764c8660c01b612874565b6114d667694113c8e0b316f660c01b612874565b600860003373ffffffffffffffffffffffffffffffffffffffff1673ffffffffffffffffffffffffffffffffffffffff16815260200190815260200160002080549050811061155a576040517f08c379a0000000000000000000000000000000000000000000000000000000008152600401611551906134cb565b60405180910390fd5b61156e67c37a8be9465b801b60c01b612874565b61158267aa97e897223ea08d60c01b612874565b6115966726ad9bf3c6ffd09060c01b612874565b6000600860003373ffffffffffffffffffffffffffffffffffffffff1673ffffffffffffffffffffffffffffffffffffffff16815260200190815260200160002082815481106115e9576115e8613557565b5b906000526020600020906005020160000154905061161167b5ce62d3ce202f6b60c01b612874565b80600960003373ffffffffffffffffffffffffffffffffffffffff1673ffffffffffffffffffffffffffffffffffffffff168152602001908152602001600020600082825461166091906136d6565b9250508190555061167b67c3b5bfba1f6ad19d60c01b612874565b806005600082825461168d91906136d6565b925050819055506116a8671cedddec741eff7b60c01b612874565b600860003373ffffffffffffffffffffffffffffffffffffffff1673ffffffffffffffffffffffffffffffffffffffff1681526020019081526020016000206001600860003373ffffffffffffffffffffffffffffffffffffffff1673ffffffffffffffffffffffffffffffffffffffff1681526020019081526020016000208054905061173691906136d6565b8154811061174757611746613557565b5b9060005260206000209060050201600860003373ffffffffffffffffffffffffffffffffffffffff1673ffffffffffffffffffffffffffffffffffffffff16815260200190815260200160002083815481106117a6576117a5613557565b5b906000526020600020906005020160008201548160000155600182015481600101556002820154816002015560038201548160030155600482015481600401559050506117fd67ae16e9ab3aca65dd60c01b612874565b611811678b6d0827bf33ee7760c01b612874565b600860003373ffffffffffffffffffffffffffffffffffffffff1673ffffffffffffffffffffffffffffffffffffffff1681526020019081526020016000208054806118605761185f61370a565b5b60019003818190600052602060002090600502016000808201600090556001820160009055600282016000905560038201600090556004820160009055505090556118b567efb0140f9f57acbe60c01b612874565b6118c9677119dba311d8b1c260c01b612874565b6119163382600260009054906101000a900473ffffffffffffffffffffffffffffffffffffffff1673ffffffffffffffffffffffffffffffffffffffff166129449092919063ffffffff16565b61192a67b36ade8cb71bc0eb60c01b612874565b61193e67c0879f30070bb9b860c01b612874565b3373ffffffffffffffffffffffffffffffffffffffff167f92ccf450a286a957af52509bc1c9939d1a6a481783e142e41e2499f0bb66ebc68284604051611986929190613586565b60405180910390a2506119976129ca565b50565b6119a2612877565b6119ac60006129d3565b565b600260009054906101000a900473ffffffffffffffffffffffffffffffffffffffff1681565b6119e8672c1968e315c3d38660c01b612874565b6119f06128f5565b611a04670c5356a67034249860c01b612874565b611a18674e1595c6a8b2f03f60c01b612874565b611a2c67d140b8fe71234ed760c01b612874565b611a4067ca4c4271c68be99460c01b612874565b611a54673428cf7908cf8fba60c01b612874565b600081118015611a6657506007548111155b611aa5576040517f08c379a0000000000000000000000000000000000000000000000000000000008152600401611a9c906135fb565b60405180910390fd5b611ab9677744eb39939c8f2960c01b612874565b611acd67a7a39e9ac0baaa1560c01b612874565b611ae1677830f765b1dff5cc60c01b612874565b6000600660008381526020019081526020016000206040518060a0016040529081600082015481526020016001820154815260200160028201548152602001600382015481526020016004820160009054906101000a900460ff1615151515815250509050611b5a67ea14c4fa7bfbacb260c01b612874565b611b6e6712f7b90302b6a54760c01b612874565b611b8267f8380ae86d75cbee60c01b612874565b8060800151611bc6576040517f08c379a0000000000000000000000000000000000000000000000000000000008152600401611bbd90613785565b60405180910390fd5b611bda67bfcf57b6f9ebe9e460c01b612874565b611bee679edc1816a005ff0260c01b612874565b611c02678e2268692bb4666860c01b612874565b611c166777e66cef77b3be5760c01b612874565b80600001518310158015611c2e575080602001518311155b611c6d576040517f08c379a0000000000000000000000000000000000000000000000000000000008152600401611c64906137f1565b60405180910390fd5b611c816769263c22765d7a8060c01b612874565b611c9567589457bfb2b3213e60c01b612874565b611ca96764930272d5d9e48a60c01b612874565b611cbd67a68623ad5932153560c01b612874565b60008311611d00576040517f08c379a0000000000000000000000000000000000000000000000000000000008152600401611cf79061385d565b60405180910390fd5b611d1467782fbfb57e3295c360c01b612874565b611d2867991ff70dbc8f0f3d60c01b612874565b611d3c67e442874c9fd24ade60c01b612874565b6000611d5267a59e80e184b1cb0d60c01b612874565b611d6667c3dd3d162ee8a64760c01b612874565b60005b600860003373ffffffffffffffffffffffffffffffffffffffff1673ffffffffffffffffffffffffffffffffffffffff16815260200190815260200160002080549050811015611f0957611dc76778c0d4dbaf7dc02560c01b612874565b611ddb67b04f915e1329b54e60c01b612874565b83600860003373ffffffffffffffffffffffffffffffffffffffff1673ffffffffffffffffffffffffffffffffffffffff1681526020019081526020016000208281548110611e2d57611e2c613557565b5b90600052602060002090600502016001015403611ee157611e586757eafed0f14ab5e660c01b612874565b611e6c6746937268b995ec9f60c01b612874565b600860003373ffffffffffffffffffffffffffffffffffffffff1673ffffffffffffffffffffffffffffffffffffffff1681526020019081526020016000208181548110611ebd57611ebc613557565b5b90600052602060002090600502016000015482611eda9190613636565b9150611ef6565b611ef567cd8073a47bfef2b660c01b612874565b5b8080611f01906133f2565b915050611d69565b50611f1e673b454058e3f18c8e60c01b612874565b611f326726668a6de66aeca260c01b612874565b611f4667cbe7a2e86cf9af3660c01b612874565b81602001518482611f579190613636565b1115611f98576040517f08c379a0000000000000000000000000000000000000000000000000000000008152600401611f8f906138c9565b60405180910390fd5b611fac67ab9a178442bf44b260c01b612874565b611fc06705b7fa7838c6d24060c01b612874565b611fd467e21c9778629acf5d60c01b612874565b600860003373ffffffffffffffffffffffffffffffffffffffff1673ffffffffffffffffffffffffffffffffffffffff1681526020019081526020016000206040518060a0016040528086815260200185815260200142815260200142815260200160008152509080600181540180825580915050600190039060005260206000209060050201600090919091909150600082015181600001556020820151816001015560408201518160020155606082015181600301556080820151816004015550506120ac67b72f2112563b724160c01b612874565b83600960003373ffffffffffffffffffffffffffffffffffffffff1673ffffffffffffffffffffffffffffffffffffffff16815260200190815260200160002060008282546120fb9190613636565b9250508190555061211667492c55465225ac4e60c01b612874565b83600560008282546121289190613636565b9250508190555061214367443cb63913dd44a760c01b612874565b612157678462d2a83ac741f860c01b612874565b6121a6333086600260009054906101000a900473ffffffffffffffffffffffffffffffffffffffff1673ffffffffffffffffffffffffffffffffffffffff16612a97909392919063ffffffff16565b6121ba67d7fbe2c36b985c1860c01b612874565b6121ce677398c2e1a767994360c01b612874565b3373ffffffffffffffffffffffffffffffffffffffff167fb4caaf29adda3eefee3ad552a8e85058589bf834c7466cae4ee58787f70589ed85856001600860003373ffffffffffffffffffffffffffffffffffffffff1673ffffffffffffffffffffffffffffffffffffffff1681526020019081526020016000208054905061225791906136d6565b604051612266939291906138e9565b60405180910390a250506122786129ca565b5050565b60055481565b606061229867bcd339b1b7abc34960c01b612874565b6122ac67cdd20a0046f5287960c01b612874565b6122c067a7812b466126b85960c01b612874565b600860008373ffffffffffffffffffffffffffffffffffffffff1673ffffffffffffffffffffffffffffffffffffffff168152602001908152602001600020805480602002602001604051908101604052809291908181526020016000905b8282101561238357838290600052602060002090600502016040518060a0016040529081600082015481526020016001820154815260200160028201548152602001600382015481526020016004820154815250508152602001906001019061231f565b505050509050919050565b60008060009054906101000a900473ffffffffffffffffffffffffffffffffffffffff16905090565b6123cb675fc2b77b3b855f3a60c01b612874565b6123d3612877565b6123e76764823fc75b12597460c01b612874565b6123fb67fbfe3c0f140cd99560c01b612874565b61240f67674bb05d2dd9783960c01b612874565b6124236701091e398955f34e60c01b612874565b612472333083600360009054906101000a900473ffffffffffffffffffffffffffffffffffffffff1673ffffffffffffffffffffffffffffffffffffffff16612a97909392919063ffffffff16565b50565b60075481565b60045481565b6008602052816000526040600020818154811061249d57600080fd5b9060005260206000209060050201600091509150508060000154908060010154908060020154908060030154908060040154905085565b60006124ea67266e537279f200a560c01b612874565b6124fe67d3a652e28cca9a1860c01b612874565b61251267d2abf9af9370710060c01b612874565b6000600860008573ffffffffffffffffffffffffffffffffffffffff1673ffffffffffffffffffffffffffffffffffffffff168152602001908152602001600020838154811061256557612564613557565b5b90600052602060002090600502016040518060a00160405290816000820154815260200160018201548152602001600282015481526020016003820154815260200160048201548152505090506125c667f066f004427cbfe260c01b612874565b6125da671a3fdad37edf3c1d60c01b612874565b600060066000836020015181526020019081526020016000206040518060a0016040529081600082015481526020016001820154815260200160028201548152602001600382015481526020016004820160009054906101000a900460ff161515151581525050905061265767661645f8e9d4cd7460c01b612874565b61266b6752689bd3e54f916d60c01b612874565b600082606001514261267d91906136d6565b9050612693678669edd3f135457060c01b612874565b6126a767e3af9d5365a796b660c01b612874565b6000670de0b6b3a76400008260045486600001516126c59190613920565b6126cf9190613920565b6126d99190613991565b90506126ef677c8628880eb88dc960c01b612874565b612703675b5fb6913292343a60c01b612874565b60006127108460400151836127189190613920565b6127229190613991565b9050612738677223332ee26d012660c01b612874565b61274c676b3c05c9f660422d60c01b612874565b84608001518161275c9190613636565b9550505050505092915050565b61277d679635acf6d324955e60c01b612874565b612785612877565b61279967b768ec2ec26bd32d60c01b612874565b6127ad6736d1e86e91cbc04360c01b612874565b6127c167df0d80146bfe100b60c01b612874565b8060048190555050565b6127d3612877565b600073ffffffffffffffffffffffffffffffffffffffff168173ffffffffffffffffffffffffffffffffffffffff1603612842576040517f08c379a000000000000000000000000000000000000000000000000000000000815260040161283990613a34565b60405180910390fd5b61284b816129d3565b50565b600360009054906101000a900473ffffffffffffffffffffffffffffffffffffffff1681565b50565b61287f612b20565b73ffffffffffffffffffffffffffffffffffffffff1661289d61238e565b73ffffffffffffffffffffffffffffffffffffffff16146128f3576040517f08c379a00000000000000000000000000000000000000000000000000000000081526004016128ea90613aa0565b60405180910390fd5b565b60026001540361293a576040517f08c379a000000000000000000000000000000000000000000000000000000000815260040161293190613b0c565b60405180910390fd5b6002600181905550565b6129c58363a9059cbb60e01b8484604051602401612963929190613b2c565b604051602081830303815290604052907bffffffffffffffffffffffffffffffffffffffffffffffffffffffff19166020820180517bffffffffffffffffffffffffffffffffffffffffffffffffffffffff8381831617835250505050612b28565b505050565b60018081905550565b60008060009054906101000a900473ffffffffffffffffffffffffffffffffffffffff169050816000806101000a81548173ffffffffffffffffffffffffffffffffffffffff021916908373ffffffffffffffffffffffffffffffffffffffff1602179055508173ffffffffffffffffffffffffffffffffffffffff168173ffffffffffffffffffffffffffffffffffffffff167f8be0079c531659141344cd1fd0a4f28419497f9722a3daafe3b4186f6b6457e060405160405180910390a35050565b612b1a846323b872dd60e01b858585604051602401612ab893929190613b55565b604051602081830303815290604052907bffffffffffffffffffffffffffffffffffffffffffffffffffffffff19166020820180517bffffffffffffffffffffffffffffffffffffffffffffffffffffffff8381831617835250505050612b28565b50505050565b600033905090565b6000612b8a826040518060400160405280602081526020017f5361666545524332303a206c6f772d6c6576656c2063616c6c206661696c65648152508573ffffffffffffffffffffffffffffffffffffffff16612bf09092919063ffffffff16565b9050600081511480612bac575080806020019051810190612bab9190613ba1565b5b612beb576040517f08c379a0000000000000000000000000000000000000000000000000000000008152600401612be290613c40565b60405180910390fd5b505050565b6060612bff8484600085612c08565b90509392505050565b606082471015612c4d576040517f08c379a0000000000000000000000000000000000000000000000000000000008152600401612c4490613cd2565b60405180910390fd5b6000808673ffffffffffffffffffffffffffffffffffffffff168587604051612c769190613d63565b60006040518083038185875af1925050503d8060008114612cb3576040519150601f19603f3d011682016040523d82523d6000602084013e612cb8565b606091505b5091509150612cc987838387612cd5565b92505050949350505050565b60608315612d37576000835103612d2f57612cef85612d4a565b612d2e576040517f08c379a0000000000000000000000000000000000000000000000000000000008152600401612d2590613dc6565b60405180910390fd5b5b829050612d42565b612d418383612d6d565b5b949350505050565b6000808273ffffffffffffffffffffffffffffffffffffffff163b119050919050565b600082511115612d805781518083602001fd5b806040517f08c379a0000000000000000000000000000000000000000000000000000000008152600401612db49190613e3b565b60405180910390fd5b600080fd5b6000819050919050565b612dd581612dc2565b8114612de057600080fd5b50565b600081359050612df281612dcc565b92915050565b600060208284031215612e0e57612e0d612dbd565b5b6000612e1c84828501612de3565b91505092915050565b612e2e81612dc2565b82525050565b60008115159050919050565b612e4981612e34565b82525050565b600060a082019050612e646000830188612e25565b612e716020830187612e25565b612e7e6040830186612e25565b612e8b6060830185612e25565b612e986080830184612e40565b9695505050505050565b60008060008060808587031215612ebc57612ebb612dbd565b5b6000612eca87828801612de3565b9450506020612edb87828801612de3565b9350506040612eec87828801612de3565b9250506060612efd87828801612de3565b91505092959194509250565b612f1281612e34565b8114612f1d57600080fd5b50565b600081359050612f2f81612f09565b92915050565b60008060408385031215612f4c57612f4b612dbd565b5b6000612f5a85828601612de3565b9250506020612f6b85828601612f20565b9150509250929050565b600073ffffffffffffffffffffffffffffffffffffffff82169050919050565b6000612fa082612f75565b9050919050565b612fb081612f95565b8114612fbb57600080fd5b50565b600081359050612fcd81612fa7565b92915050565b600060208284031215612fe957612fe8612dbd565b5b6000612ff784828501612fbe565b91505092915050565b60006020820190506130156000830184612e25565b92915050565b6000819050919050565b600061304061303b61303684612f75565b61301b565b612f75565b9050919050565b600061305282613025565b9050919050565b600061306482613047565b9050919050565b61307481613059565b82525050565b600060208201905061308f600083018461306b565b92915050565b600080604083850312156130ac576130ab612dbd565b5b60006130ba85828601612de3565b92505060206130cb85828601612de3565b9150509250929050565b600081519050919050565b600082825260208201905092915050565b6000819050602082019050919050565b61310a81612dc2565b82525050565b60a0820160008201516131266000850182613101565b5060208201516131396020850182613101565b50604082015161314c6040850182613101565b50606082015161315f6060850182613101565b5060808201516131726080850182613101565b50505050565b60006131848383613110565b60a08301905092915050565b6000602082019050919050565b60006131a8826130d5565b6131b281856130e0565b93506131bd836130f1565b8060005b838110156131ee5781516131d58882613178565b97506131e083613190565b9250506001810190506131c1565b5085935050505092915050565b60006020820190508181036000830152613215818461319d565b905092915050565b61322681612f95565b82525050565b6000602082019050613241600083018461321d565b92915050565b6000806040838503121561325e5761325d612dbd565b5b600061326c85828601612fbe565b925050602061327d85828601612de3565b9150509250929050565b600060a08201905061329c6000830188612e25565b6132a96020830187612e25565b6132b66040830186612e25565b6132c36060830185612e25565b6132d06080830184612e25565b9695505050505050565b600082825260208201905092915050565b7f496e76616c696420616d6f756e74730000000000000000000000000000000000600082015250565b6000613321600f836132da565b915061332c826132eb565b602082019050919050565b6000602082019050818103600083015261335081613314565b9050919050565b7f496e76616c6964206d756c7469706c6965720000000000000000000000000000600082015250565b600061338d6012836132da565b915061339882613357565b602082019050919050565b600060208201905081810360008301526133bc81613380565b9050919050565b7f4e487b7100000000000000000000000000000000000000000000000000000000600052601160045260246000fd5b60006133fd82612dc2565b91507fffffffffffffffffffffffffffffffffffffffffffffffffffffffffffffffff820361342f5761342e6133c3565b5b600182019050919050565b600060808201905061344f6000830187612e25565b61345c6020830186612e25565b6134696040830185612e25565b6134766060830184612e25565b95945050505050565b7f496e76616c6964207374616b6500000000000000000000000000000000000000600082015250565b60006134b5600d836132da565b91506134c08261347f565b602082019050919050565b600060208201905081810360008301526134e4816134a8565b9050919050565b7f4e6f207265776172647320746f20636c61696d00000000000000000000000000600082015250565b60006135216013836132da565b915061352c826134eb565b602082019050919050565b6000602082019050818103600083015261355081613514565b9050919050565b7f4e487b7100000000000000000000000000000000000000000000000000000000600052603260045260246000fd5b600060408201905061359b6000830185612e25565b6135a86020830184612e25565b9392505050565b7f496e76616c696420746965720000000000000000000000000000000000000000600082015250565b60006135e5600c836132da565b91506135f0826135af565b602082019050919050565b60006020820190508181036000830152613614816135d8565b9050919050565b60006020820190506136306000830184612e40565b92915050565b600061364182612dc2565b915061364c83612dc2565b9250828201905080821115613664576136636133c3565b5b92915050565b7f5374616b65207374696c6c206c6f636b65640000000000000000000000000000600082015250565b60006136a06012836132da565b91506136ab8261366a565b602082019050919050565b600060208201905081810360008301526136cf81613693565b9050919050565b60006136e182612dc2565b91506136ec83612dc2565b9250828203905081811115613704576137036133c3565b5b92915050565b7f4e487b7100000000000000000000000000000000000000000000000000000000600052603160045260246000fd5b7f54696572206e6f74206163746976650000000000000000000000000000000000600082015250565b600061376f600f836132da565b915061377a82613739565b602082019050919050565b6000602082019050818103600083015261379e81613762565b9050919050565b7f416d6f756e74206e6f7420696e20746965722072616e67650000000000000000600082015250565b60006137db6018836132da565b91506137e6826137a5565b602082019050919050565b6000602082019050818103600083015261380a816137ce565b9050919050565b7f43616e6e6f74207374616b652030000000000000000000000000000000000000600082015250565b6000613847600e836132da565b915061385282613811565b602082019050919050565b600060208201905081810360008301526138768161383a565b9050919050565b7f457863656564732074696572206d617800000000000000000000000000000000600082015250565b60006138b36010836132da565b91506138be8261387d565b602082019050919050565b600060208201905081810360008301526138e2816138a6565b9050919050565b60006060820190506138fe6000830186612e25565b61390b6020830185612e25565b6139186040830184612e25565b949350505050565b600061392b82612dc2565b915061393683612dc2565b925082820261394481612dc2565b9150828204841483151761395b5761395a6133c3565b5b5092915050565b7f4e487b7100000000000000000000000000000000000000000000000000000000600052601260045260246000fd5b600061399c82612dc2565b91506139a783612dc2565b9250826139b7576139b6613962565b5b828204905092915050565b7f4f776e61626c653a206e6577206f776e657220697320746865207a65726f206160008201527f6464726573730000000000000000000000000000000000000000000000000000602082015250565b6000613a1e6026836132da565b9150613a29826139c2565b604082019050919050565b60006020820190508181036000830152613a4d81613a11565b9050919050565b7f4f776e61626c653a2063616c6c6572206973206e6f7420746865206f776e6572600082015250565b6000613a8a6020836132da565b9150613a9582613a54565b602082019050919050565b60006020820190508181036000830152613ab981613a7d565b9050919050565b7f5265656e7472616e637947756172643a207265656e7472616e742063616c6c00600082015250565b6000613af6601f836132da565b9150613b0182613ac0565b602082019050919050565b60006020820190508181036000830152613b2581613ae9565b9050919050565b6000604082019050613b41600083018561321d565b613b4e6020830184612e25565b9392505050565b6000606082019050613b6a600083018661321d565b613b77602083018561321d565b613b846040830184612e25565b949350505050565b600081519050613b9b81612f09565b92915050565b600060208284031215613bb757613bb6612dbd565b5b6000613bc584828501613b8c565b91505092915050565b7f5361666545524332303a204552433230206f7065726174696f6e20646964206e60008201527f6f74207375636365656400000000000000000000000000000000000000000000602082015250565b6000613c2a602a836132da565b9150613c3582613bce565b604082019050919050565b60006020820190508181036000830152613c5981613c1d565b9050919050565b7f416464726573733a20696e73756666696369656e742062616c616e636520666f60008201527f722063616c6c0000000000000000000000000000000000000000000000000000602082015250565b6000613cbc6026836132da565b9150613cc782613c60565b604082019050919050565b60006020820190508181036000830152613ceb81613caf565b9050919050565b600081519050919050565b600081905092915050565b60005b83811015613d26578082015181840152602081019050613d0b565b60008484015250505050565b6000613d3d82613cf2565b613d478185613cfd565b9350613d57818560208601613d08565b80840191505092915050565b6000613d6f8284613d32565b915081905092915050565b7f416464726573733a2063616c6c20746f206e6f6e2d636f6e7472616374000000600082015250565b6000613db0601d836132da565b9150613dbb82613d7a565b602082019050919050565b60006020820190508181036000830152613ddf81613da3565b9050919050565b600081519050919050565b6000601f19601f8301169050919050565b6000613e0d82613de6565b613e1781856132da565b9350613e27818560208601613d08565b613e3081613df1565b840191505092915050565b60006020820190508181036000830152613e558184613e02565b90509291505056fea2646970667358221220c5827a10a3e8d6de6c60bb9cb4bdc69da688efecddd756a3ce966d105235797364736f6c63430008130033",
  "linkReferences": {},
  "deployedLinkReferences": {}
}