{
  "_format": "hh-sol-artifact-1",
  "contractName": "StakingContract",
  "sourceName": "contracts/ai.sol",
  "abi": [
    {
      "inputs": [
        {
          "internalType": "address",
          "name": "_stakingToken",
          "type": "address"
        },
        {
          "internalType": "address",
          "name": "_rewardToken",
          "type": "address"
        },
        {
          "internalType": "uint256",
          "name": "_rewardRate",
          "type": "uint256"
        }
      ],
      "stateMutability": "nonpayable",
      "type": "constructor"
    },
    {
      "anonymous": false,
      "inputs": [
        {
          "indexed": true,
          "internalType": "address",
          "name": "previousOwner",
          "type": "address"
        },
        {
          "indexed": true,
          "internalType": "address",
          "name": "newOwner",
          "type": "address"
        }
      ],
      "name": "OwnershipTransferred",
      "type": "event"
    },
    {
      "anonymous": false,
      "inputs": [
        {
          "indexed": false,
          "internalType": "address",
          "name": "account",
          "type": "address"
        }
      ],
      "name": "Paused",
      "type": "event"
    },
    {
      "anonymous": false,
      "inputs": [
        {
          "indexed": true,
          "internalType": "address",
          "name": "user",
          "type": "address"
        },
        {
          "indexed": false,
          "internalType": "uint256",
          "name": "reward",
          "type": "uint256"
        }
      ],
      "name": "RewardPaid",
      "type": "event"
    },
    {
      "anonymous": false,
      "inputs": [
        {
          "indexed": false,
          "internalType": "uint256",
          "name": "newRate",
          "type": "uint256"
        }
      ],
      "name": "RewardRateUpdated",
      "type": "event"
    },
    {
      "anonymous": false,
      "inputs": [
        {
          "indexed": true,
          "internalType": "address",
          "name": "user",
          "type": "address"
        },
        {
          "indexed": false,
          "internalType": "uint256",
          "name": "amount",
          "type": "uint256"
        }
      ],
      "name": "Staked",
      "type": "event"
    },
    {
      "anonymous": false,
      "inputs": [
        {
          "indexed": false,
          "internalType": "uint256",
          "name": "newDuration",
          "type": "uint256"
        }
      ],
      "name": "StakingDurationUpdated",
      "type": "event"
    },
    {
      "anonymous": false,
      "inputs": [
        {
          "indexed": false,
          "internalType": "address",
          "name": "account",
          "type": "address"
        }
      ],
      "name": "Unpaused",
      "type": "event"
    },
    {
      "anonymous": false,
      "inputs": [
        {
          "indexed": true,
          "internalType": "address",
          "name": "user",
          "type": "address"
        },
        {
          "indexed": false,
          "internalType": "uint256",
          "name": "amount",
          "type": "uint256"
        }
      ],
      "name": "Withdrawn",
      "type": "event"
    },
    {
      "inputs": [
        {
          "internalType": "address",
          "name": "account",
          "type": "address"
        }
      ],
      "name": "earned",
      "outputs": [
        {
          "internalType": "uint256",
          "name": "",
          "type": "uint256"
        }
      ],
      "stateMutability": "view",
      "type": "function"
    },
    {
      "inputs": [],
      "name": "emergencyWithdraw",
      "outputs": [],
      "stateMutability": "nonpayable",
      "type": "function"
    },
    {
      "inputs": [
        {
          "internalType": "uint256",
          "name": "amount",
          "type": "uint256"
        }
      ],
      "name": "fundRewards",
      "outputs": [],
      "stateMutability": "nonpayable",
      "type": "function"
    },
    {
      "inputs": [],
      "name": "getReward",
      "outputs": [],
      "stateMutability": "nonpayable",
      "type": "function"
    },
    {
      "inputs": [],
      "name": "lastUpdateTime",
      "outputs": [
        {
          "internalType": "uint256",
          "name": "",
          "type": "uint256"
        }
      ],
      "stateMutability": "view",
      "type": "function"
    },
    {
      "inputs": [],
      "name": "owner",
      "outputs": [
        {
          "internalType": "address",
          "name": "",
          "type": "address"
        }
      ],
      "stateMutability": "view",
      "type": "function"
    },
    {
      "inputs": [],
      "name": "pause",
      "outputs": [],
      "stateMutability": "nonpayable",
      "type": "function"
    },
    {
      "inputs": [],
      "name": "paused",
      "outputs": [
        {
          "internalType": "bool",
          "name": "",
          "type": "bool"
        }
      ],
      "stateMutability": "view",
      "type": "function"
    },
    {
      "inputs": [],
      "name": "renounceOwnership",
      "outputs": [],
      "stateMutability": "nonpayable",
      "type": "function"
    },
    {
      "inputs": [],
      "name": "rewardPerToken",
      "outputs": [
        {
          "internalType": "uint256",
          "name": "",
          "type": "uint256"
        }
      ],
      "stateMutability": "view",
      "type": "function"
    },
    {
      "inputs": [],
      "name": "rewardPerTokenStored",
      "outputs": [
        {
          "internalType": "uint256",
          "name": "",
          "type": "uint256"
        }
      ],
      "stateMutability": "view",
      "type": "function"
    },
    {
      "inputs": [],
      "name": "rewardRate",
      "outputs": [
        {
          "internalType": "uint256",
          "name": "",
          "type": "uint256"
        }
      ],
      "stateMutability": "view",
      "type": "function"
    },
    {
      "inputs": [],
      "name": "rewardToken",
      "outputs": [
        {
          "internalType": "contract IERC20",
          "name": "",
          "type": "address"
        }
      ],
      "stateMutability": "view",
      "type": "function"
    },
    {
      "inputs": [
        {
          "internalType": "address",
          "name": "",
          "type": "address"
        }
      ],
      "name": "rewards",
      "outputs": [
        {
          "internalType": "uint256",
          "name": "",
          "type": "uint256"
        }
      ],
      "stateMutability": "view",
      "type": "function"
    },
    {
      "inputs": [
        {
          "internalType": "uint256",
          "name": "_rewardRate",
          "type": "uint256"
        }
      ],
      "name": "setRewardRate",
      "outputs": [],
      "stateMutability": "nonpayable",
      "type": "function"
    },
    {
      "inputs": [
        {
          "internalType": "uint256",
          "name": "_duration",
          "type": "uint256"
        }
      ],
      "name": "setStakingDuration",
      "outputs": [],
      "stateMutability": "nonpayable",
      "type": "function"
    },
    {
      "inputs": [
        {
          "internalType": "uint256",
          "name": "amount",
          "type": "uint256"
        }
      ],
      "name": "stake",
      "outputs": [],
      "stateMutability": "nonpayable",
      "type": "function"
    },
    {
      "inputs": [
        {
          "internalType": "address",
          "name": "",
          "type": "address"
        }
      ],
      "name": "stakedBalance",
      "outputs": [
        {
          "internalType": "uint256",
          "name": "",
          "type": "uint256"
        }
      ],
      "stateMutability": "view",
      "type": "function"
    },
    {
      "inputs": [],
      "name": "stakingDuration",
      "outputs": [
        {
          "internalType": "uint256",
          "name": "",
          "type": "uint256"
        }
      ],
      "stateMutability": "view",
      "type": "function"
    },
    {
      "inputs": [
        {
          "internalType": "address",
          "name": "",
          "type": "address"
        }
      ],
      "name": "stakingTimestamp",
      "outputs": [
        {
          "internalType": "uint256",
          "name": "",
          "type": "uint256"
        }
      ],
      "stateMutability": "view",
      "type": "function"
    },
    {
      "inputs": [],
      "name": "stakingToken",
      "outputs": [
        {
          "internalType": "contract IERC20",
          "name": "",
          "type": "address"
        }
      ],
      "stateMutability": "view",
      "type": "function"
    },
    {
      "inputs": [],
      "name": "totalStaked",
      "outputs": [
        {
          "internalType": "uint256",
          "name": "",
          "type": "uint256"
        }
      ],
      "stateMutability": "view",
      "type": "function"
    },
    {
      "inputs": [
        {
          "internalType": "address",
          "name": "newOwner",
          "type": "address"
        }
      ],
      "name": "transferOwnership",
      "outputs": [],
      "stateMutability": "nonpayable",
      "type": "function"
    },
    {
      "inputs": [],
      "name": "unpause",
      "outputs": [],
      "stateMutability": "nonpayable",
      "type": "function"
    },
    {
      "inputs": [
        {
          "internalType": "address",
          "name": "",
          "type": "address"
        }
      ],
      "name": "userRewardPerTokenPaid",
      "outputs": [
        {
          "internalType": "uint256",
          "name": "",
          "type": "uint256"
        }
      ],
      "stateMutability": "view",
      "type": "function"
    },
    {
      "inputs": [
        {
          "internalType": "uint256",
          "name": "amount",
          "type": "uint256"
        }
      ],
      "name": "withdraw",
      "outputs": [],
      "stateMutability": "nonpayable",
      "type": "function"
    },
    {
      "inputs": [],
      "name": "withdrawAndGetReward",
      "outputs": [],
      "stateMutability": "nonpayable",
      "type": "function"
    }
  ],
  "bytecode": "0x6080604052603c6008553480156200001657600080fd5b50604051620037fd380380620037fd83398181016040528101906200003c9190620004db565b6200005c620000506200036760201b60201c565b6200036f60201b60201c565b600180819055506000600260006101000a81548160ff0219169083151502179055506200009a677431f18d8f81a00d60c01b6200043360201b60201c565b620000b667a015c1628621ed5360c01b6200043360201b60201c565b620000d2675643f5ed683acc5260c01b6200043360201b60201c565b620000ee674b8c0b225563291f60c01b6200043360201b60201c565b600073ffffffffffffffffffffffffffffffffffffffff168373ffffffffffffffffffffffffffffffffffffffff160362000160576040517f08c379a0000000000000000000000000000000000000000000000000000000008152600401620001579062000598565b60405180910390fd5b6200017c67e55cefa3e6572ac460c01b6200043360201b60201c565b6200019867f49f9891916b6bc560c01b6200043360201b60201c565b620001b46748c58f1fa66aa71260c01b6200043360201b60201c565b620001d0679525646314c2caa260c01b6200043360201b60201c565b600073ffffffffffffffffffffffffffffffffffffffff168273ffffffffffffffffffffffffffffffffffffffff160362000242576040517f08c379a000000000000000000000000000000000000000000000000000000000815260040162000239906200060a565b60405180910390fd5b6200025e67cc5b8479f523614460c01b6200043360201b60201c565b6200027a67887c7fd249de50c060c01b6200043360201b60201c565b82600260016101000a81548173ffffffffffffffffffffffffffffffffffffffff021916908373ffffffffffffffffffffffffffffffffffffffff160217905550620002d7671dfa5450d2dd26aa60c01b6200043360201b60201c565b81600360006101000a81548173ffffffffffffffffffffffffffffffffffffffff021916908373ffffffffffffffffffffffffffffffffffffffff160217905550620003346730baf568fdf0864a60c01b6200043360201b60201c565b80600481905550620003576773fd9e29099e447f60c01b6200043360201b60201c565b426005819055505050506200062c565b600033905090565b60008060009054906101000a900473ffffffffffffffffffffffffffffffffffffffff169050816000806101000a81548173ffffffffffffffffffffffffffffffffffffffff021916908373ffffffffffffffffffffffffffffffffffffffff1602179055508173ffffffffffffffffffffffffffffffffffffffff168173ffffffffffffffffffffffffffffffffffffffff167f8be0079c531659141344cd1fd0a4f28419497f9722a3daafe3b4186f6b6457e060405160405180910390a35050565b50565b600080fd5b600073ffffffffffffffffffffffffffffffffffffffff82169050919050565b600062000468826200043b565b9050919050565b6200047a816200045b565b81146200048657600080fd5b50565b6000815190506200049a816200046f565b92915050565b6000819050919050565b620004b581620004a0565b8114620004c157600080fd5b50565b600081519050620004d581620004aa565b92915050565b600080600060608486031215620004f757620004f662000436565b5b6000620005078682870162000489565b93505060206200051a8682870162000489565b92505060406200052d86828701620004c4565b9150509250925092565b600082825260208201905092915050565b7f496e76616c6964207374616b696e6720746f6b656e0000000000000000000000600082015250565b60006200058060158362000537565b91506200058d8262000548565b602082019050919050565b60006020820190508181036000830152620005b38162000571565b9050919050565b7f496e76616c69642072657761726420746f6b656e000000000000000000000000600082015250565b6000620005f260148362000537565b9150620005ff82620005ba565b602082019050919050565b600060208201905081810360008301526200062581620005e3565b9050919050565b6131c1806200063c6000396000f3fe608060405234801561001057600080fd5b50600436106101b85760003560e01c80638456cb59116100f9578063c8f33c9111610097578063df136d6511610071578063df136d651461045b578063f2fde38b14610479578063f7c618c114610495578063fc7cb627146104b3576101b8565b8063c8f33c9114610415578063cd3daf9d14610433578063db2e21bc14610451576101b8565b80638f0794fe116100d35780638f0794fe1461039157806393707a19146103c15780639e447fc6146103dd578063a694fc3a146103f9576101b8565b80638456cb59146103395780638b876347146103435780638da5cb5b14610373576101b8565b8063602172671161016657806372f702f31161014057806372f702f3146102c15780637b0a47ee146102df5780638005a7de146102fd578063817b1cd21461031b576101b8565b8063602172671461026b5780636a8ca6911461029b578063715018a6146102b7576101b8565b80633d18b912116101975780633d18b912146102395780633f4ba83a146102435780635c975abb1461024d576101b8565b80628cc262146101bd5780630700037d146101ed5780632e1a7d4d1461021d575b600080fd5b6101d760048036038101906101d29190612707565b6104bd565b6040516101e4919061274d565b60405180910390f35b61020760048036038101906102029190612707565b6105fb565b604051610214919061274d565b60405180910390f35b61023760048036038101906102329190612794565b610613565b005b610241610bfb565b005b61024b61102c565b005b6102556110a2565b60405161026291906127dc565b60405180910390f35b61028560048036038101906102809190612707565b6110b9565b604051610292919061274d565b60405180910390f35b6102b560048036038101906102b09190612794565b6110d1565b005b6102bf611192565b005b6102c96111a6565b6040516102d69190612856565b60405180910390f35b6102e76111cc565b6040516102f4919061274d565b60405180910390f35b6103056111d2565b604051610312919061274d565b60405180910390f35b6103236111d8565b604051610330919061274d565b60405180910390f35b6103416111de565b005b61035d60048036038101906103589190612707565b611254565b60405161036a919061274d565b60405180910390f35b61037b61126c565b6040516103889190612880565b60405180910390f35b6103ab60048036038101906103a69190612707565b611295565b6040516103b8919061274d565b60405180910390f35b6103db60048036038101906103d69190612794565b6112ad565b005b6103f760048036038101906103f29190612794565b61136b565b005b610413600480360381019061040e9190612794565b611600565b005b61041d611ac0565b60405161042a919061274d565b60405180910390f35b61043b611ac6565b604051610448919061274d565b60405180910390f35b610459611bde565b005b610463611e9d565b604051610470919061274d565b60405180910390f35b610493600480360381019061048e9190612707565b611ea3565b005b61049d611f26565b6040516104aa9190612856565b60405180910390f35b6104bb611f4c565b005b60006104d367fa615ce246664f1b60c01b612002565b6104e76705c44b9c502ad80660c01b612002565b6104fb673d5b08df140db02560c01b612002565b600b60008373ffffffffffffffffffffffffffffffffffffffff1673ffffffffffffffffffffffffffffffffffffffff16815260200190815260200160002054670de0b6b3a7640000600a60008573ffffffffffffffffffffffffffffffffffffffff1673ffffffffffffffffffffffffffffffffffffffff1681526020019081526020016000205461058c611ac6565b61059691906128ca565b600960008673ffffffffffffffffffffffffffffffffffffffff1673ffffffffffffffffffffffffffffffffffffffff168152602001908152602001600020546105e091906128fe565b6105ea919061296f565b6105f491906129a0565b9050919050565b600b6020528060005260406000206000915090505481565b6106276797b7d3e7716d190e60c01b612002565b61062f612005565b61064367dcc85319bb8a0d3860c01b612002565b610657677da244cb474016b860c01b612002565b3361066c675f1a46dcf794757c60c01b612002565b6106806704d20ce6c32e632c60c01b612002565b610688611ac6565b6006819055506106a267d9b957e8147a301460c01b612002565b426005819055506106bd677fc5bccd3a4cde2260c01b612002565b6106d167b691c835a1be9d8460c01b612002565b600073ffffffffffffffffffffffffffffffffffffffff168173ffffffffffffffffffffffffffffffffffffffff16146107d857610719679602c7a61c152bcb60c01b612002565b61072d678f330b826ab5577660c01b612002565b610736816104bd565b600b60008373ffffffffffffffffffffffffffffffffffffffff1673ffffffffffffffffffffffffffffffffffffffff1681526020019081526020016000208190555061078d67189b8d2b5977605e60c01b612002565b600654600a60008373ffffffffffffffffffffffffffffffffffffffff1673ffffffffffffffffffffffffffffffffffffffff168152602001908152602001600020819055506107ed565b6107ec675da3fb5b2d84690060c01b612002565b5b61080167082b08a44723524460c01b612002565b61081567957b3024b31b492c60c01b612002565b610829674b0ce647b9c0d05c60c01b612002565b61083d6764bdc4346ca459d160c01b612002565b61085167dfee981c24514e8860c01b612002565b610865674fed3b7dca455f4460c01b612002565b600082116108a8576040517f08c379a000000000000000000000000000000000000000000000000000000000815260040161089f90612a31565b60405180910390fd5b6108bc679d8ae378c317f70060c01b612002565b6108d0675bab873a32dc92c960c01b612002565b6108e467ee91f938dfc0995a60c01b612002565b6108f8675f690a03517249af60c01b612002565b81600960003373ffffffffffffffffffffffffffffffffffffffff1673ffffffffffffffffffffffffffffffffffffffff16815260200190815260200160002054101561097a576040517f08c379a000000000000000000000000000000000000000000000000000000000815260040161097190612a9d565b60405180910390fd5b61098e67ee6f26f3eef5912b60c01b612002565b6109a267c714b7077f4c509760c01b612002565b6109b66750d5f610ae0433a460c01b612002565b6109ca67d958df88289367cb60c01b612002565b600854600c60003373ffffffffffffffffffffffffffffffffffffffff1673ffffffffffffffffffffffffffffffffffffffff16815260200190815260200160002054610a1791906129a0565b421015610a59576040517f08c379a0000000000000000000000000000000000000000000000000000000008152600401610a5090612b09565b60405180910390fd5b610a6d671663f38e947d43ea60c01b612002565b610a8167c2bff0ebd01aeb8160c01b612002565b81600960003373ffffffffffffffffffffffffffffffffffffffff1673ffffffffffffffffffffffffffffffffffffffff1681526020019081526020016000206000828254610ad091906128ca565b92505081905550610aeb670cbf19f1a59da5b460c01b612002565b8160076000828254610afd91906128ca565b92505081905550610b1867ff8d910054bf885460c01b612002565b610b2c67a10b999c7112dbde60c01b612002565b610b793383600260019054906101000a900473ffffffffffffffffffffffffffffffffffffffff1673ffffffffffffffffffffffffffffffffffffffff166120549092919063ffffffff16565b610b8d679896cddb7c1026bf60c01b612002565b610ba167fb96487e805c768260c01b612002565b3373ffffffffffffffffffffffffffffffffffffffff167f7084f5476618d8e60b11ef0d7d3f06914655adb8793e28ff7f018d4c76d505d583604051610be7919061274d565b60405180910390a250610bf86120da565b50565b610c0f6725126f741d51c9c260c01b612002565b610c17612005565b610c2b676326a486d0933d7060c01b612002565b610c3f67ec6e04af4d1a240e60c01b612002565b33610c54675f1a46dcf794757c60c01b612002565b610c686704d20ce6c32e632c60c01b612002565b610c70611ac6565b600681905550610c8a67d9b957e8147a301460c01b612002565b42600581905550610ca5677fc5bccd3a4cde2260c01b612002565b610cb967b691c835a1be9d8460c01b612002565b600073ffffffffffffffffffffffffffffffffffffffff168173ffffffffffffffffffffffffffffffffffffffff1614610dc057610d01679602c7a61c152bcb60c01b612002565b610d15678f330b826ab5577660c01b612002565b610d1e816104bd565b600b60008373ffffffffffffffffffffffffffffffffffffffff1673ffffffffffffffffffffffffffffffffffffffff16815260200190815260200160002081905550610d7567189b8d2b5977605e60c01b612002565b600654600a60008373ffffffffffffffffffffffffffffffffffffffff1673ffffffffffffffffffffffffffffffffffffffff16815260200190815260200160002081905550610dd5565b610dd4675da3fb5b2d84690060c01b612002565b5b610de967082b08a44723524460c01b612002565b610dfd678fceb7d0281f1cb460c01b612002565b610e1167ca4fccf715dd325a60c01b612002565b610e2567257ace2a3075239e60c01b612002565b610e396749236c49fa317d7060c01b612002565b6000600b60003373ffffffffffffffffffffffffffffffffffffffff1673ffffffffffffffffffffffffffffffffffffffff168152602001908152602001600020549050610e91679d32d8716653974d60c01b612002565b610ea56740ff9245fdb9d45060c01b612002565b600081111561100b57610ec267d675121463ed9f4a60c01b612002565b610ed66740734f2cd05cbf9f60c01b612002565b6000600b60003373ffffffffffffffffffffffffffffffffffffffff1673ffffffffffffffffffffffffffffffffffffffff16815260200190815260200160002081905550610f2f678cd26e40177292c560c01b612002565b610f436761e306e1236dd99760c01b612002565b610f903382600360009054906101000a900473ffffffffffffffffffffffffffffffffffffffff1673ffffffffffffffffffffffffffffffffffffffff166120549092919063ffffffff16565b610fa467aa53db8e2e5a9ae060c01b612002565b610fb867c931279c4315660b60c01b612002565b3373ffffffffffffffffffffffffffffffffffffffff167fe2403640ba68fed3a2f88b7557551d1993f84b99bb10ff833f0cf8db0c5e048682604051610ffe919061274d565b60405180910390a2611020565b61101f67b997df0e52a356fe60c01b612002565b5b505061102a6120da565b565b61104067d56dc82d149075d160c01b612002565b6110486120e3565b61105c675a8ce6da9739f39b60c01b612002565b61107067fe9150c76a194d0360c01b612002565b61108467e366b63a7687cbbf60c01b612002565b6110986784697fd42038c00d60c01b612002565b6110a0612161565b565b6000600260009054906101000a900460ff16905090565b60096020528060005260406000206000915090505481565b6110e56768f38f41cf8256a960c01b612002565b6110ed6120e3565b6111016746e51396ae10420f60c01b612002565b611115676c3b0494d0707f7660c01b612002565b61112967863e3f5ccaddb6de60c01b612002565b8060088190555061114467f0e42ae62902ffb360c01b612002565b61115867c3cb4a8ea86e592e60c01b612002565b7f8c7ba3004ed566ca0f3da73aaa1e3470028922c65772882a9b89612e44a72dcf81604051611187919061274d565b60405180910390a150565b61119a6120e3565b6111a460006121c4565b565b600260019054906101000a900473ffffffffffffffffffffffffffffffffffffffff1681565b60045481565b60085481565b60075481565b6111f267e93bbc7ddcbdbef760c01b612002565b6111fa6120e3565b61120e67d54b258939ed0afa60c01b612002565b61122267d59650c2578f718960c01b612002565b611236672c5ac06856c812eb60c01b612002565b61124a6745cc19470bf8f0fe60c01b612002565b611252612288565b565b600a6020528060005260406000206000915090505481565b60008060009054906101000a900473ffffffffffffffffffffffffffffffffffffffff16905090565b600c6020528060005260406000206000915090505481565b6112c167b5c03a3b40e34ef560c01b612002565b6112c96120e3565b6112dd6704adc74377b9e36860c01b612002565b6112f167d5677f0532b0cb1960c01b612002565b61130567a7dc62025e284e3d60c01b612002565b61131967f0828f93a06eeb8a60c01b612002565b611368333083600360009054906101000a900473ffffffffffffffffffffffffffffffffffffffff1673ffffffffffffffffffffffffffffffffffffffff166122eb909392919063ffffffff16565b50565b61137f67ef9a5158e80e320d60c01b612002565b6113876120e3565b61139b671c9dee7857a83f8d60c01b612002565b6113af675a349157dea3ee9660c01b612002565b60006113c5675f1a46dcf794757c60c01b612002565b6113d96704d20ce6c32e632c60c01b612002565b6113e1611ac6565b6006819055506113fb67d9b957e8147a301460c01b612002565b42600581905550611416677fc5bccd3a4cde2260c01b612002565b61142a67b691c835a1be9d8460c01b612002565b600073ffffffffffffffffffffffffffffffffffffffff168173ffffffffffffffffffffffffffffffffffffffff161461153157611472679602c7a61c152bcb60c01b612002565b611486678f330b826ab5577660c01b612002565b61148f816104bd565b600b60008373ffffffffffffffffffffffffffffffffffffffff1673ffffffffffffffffffffffffffffffffffffffff168152602001908152602001600020819055506114e667189b8d2b5977605e60c01b612002565b600654600a60008373ffffffffffffffffffffffffffffffffffffffff1673ffffffffffffffffffffffffffffffffffffffff16815260200190815260200160002081905550611546565b611545675da3fb5b2d84690060c01b612002565b5b61155a67082b08a44723524460c01b612002565b61156e6798c19ef207d5597360c01b612002565b61158267cf4a9577e00e8db160c01b612002565b61159667d9e67de5050dd25e60c01b612002565b816004819055506115b1673b8828f34fa130c360c01b612002565b6115c567ad3e9941ef8bfd7c60c01b612002565b7f41d466ebd06fb97e7786086ac8b69b7eb7da798592036251291d34e9791cde01826040516115f4919061274d565b60405180910390a15050565b61161467a03e5a3128a61aca60c01b612002565b61161c612005565b61163067b8b67247b63f313760c01b612002565b6116446705dd95b384fb42ec60c01b612002565b61164c612374565b61166067b1d4202bc50279ab60c01b612002565b6116746781f4832a46b99e8360c01b612002565b33611689675f1a46dcf794757c60c01b612002565b61169d6704d20ce6c32e632c60c01b612002565b6116a5611ac6565b6006819055506116bf67d9b957e8147a301460c01b612002565b426005819055506116da677fc5bccd3a4cde2260c01b612002565b6116ee67b691c835a1be9d8460c01b612002565b600073ffffffffffffffffffffffffffffffffffffffff168173ffffffffffffffffffffffffffffffffffffffff16146117f557611736679602c7a61c152bcb60c01b612002565b61174a678f330b826ab5577660c01b612002565b611753816104bd565b600b60008373ffffffffffffffffffffffffffffffffffffffff1673ffffffffffffffffffffffffffffffffffffffff168152602001908152602001600020819055506117aa67189b8d2b5977605e60c01b612002565b600654600a60008373ffffffffffffffffffffffffffffffffffffffff1673ffffffffffffffffffffffffffffffffffffffff1681526020019081526020016000208190555061180a565b611809675da3fb5b2d84690060c01b612002565b5b61181e67082b08a44723524460c01b612002565b61183267e32719099ca1e37160c01b612002565b61184667a68e3ea2eb9f08dc60c01b612002565b61185a67c47404006016042360c01b612002565b61186e679485283043aa94ff60c01b612002565b611882672130a3e95f75b8f860c01b612002565b600082116118c5576040517f08c379a00000000000000000000000000000000000000000000000000000000081526004016118bc90612b75565b60405180910390fd5b6118d96765a161b8de669d0a60c01b612002565b6118ed678b50453d718f2fce60c01b612002565b81600960003373ffffffffffffffffffffffffffffffffffffffff1673ffffffffffffffffffffffffffffffffffffffff168152602001908152602001600020600082825461193c91906129a0565b9250508190555061195666033f294264ea8e60c01b612002565b816007600082825461196891906129a0565b92505081905550611983672b2e991310c9870a60c01b612002565b42600c60003373ffffffffffffffffffffffffffffffffffffffff1673ffffffffffffffffffffffffffffffffffffffff168152602001908152602001600020819055506119db67c8b5a09f853d9b1f60c01b612002565b6119ef670c73a1cff902863b60c01b612002565b611a3e333084600260019054906101000a900473ffffffffffffffffffffffffffffffffffffffff1673ffffffffffffffffffffffffffffffffffffffff166122eb909392919063ffffffff16565b611a5267c966abb3038683c960c01b612002565b611a666747b6d2eac56334cf60c01b612002565b3373ffffffffffffffffffffffffffffffffffffffff167f9e71bc8eea02a63969f509818f2dafb9254532904319f9dbda79b67bd34a5f3d83604051611aac919061274d565b60405180910390a250611abd6120da565b50565b60055481565b6000611adc675d445bd5551aa11d60c01b612002565b611af06797c0e0dc5551296c60c01b612002565b611b0467804a3307496f0c7c60c01b612002565b600060075403611b5457611b226733b5a4ac2447ef5b60c01b612002565b611b3667b44a41b2be1d629360c01b612002565b611b4a674496dc909bb9a1c260c01b612002565b6006549050611bdb565b611b6867e582fae95a26b6bf60c01b612002565b611b7c675c73a6febb4487fc60c01b612002565b611b906759737c8b0b28c0a160c01b612002565b600754670de0b6b3a764000060045460055442611bad91906128ca565b611bb791906128fe565b611bc191906128fe565b611bcb919061296f565b600654611bd891906129a0565b90505b90565b611bf267a0ed367b1123fadf60c01b612002565b611bfa612005565b611c0e675f301a6ab18e23d360c01b612002565b611c22670ec813faec3c599360c01b612002565b611c3667c74c8e3fd1dde6e860c01b612002565b611c4a67bb456986d3ac19f760c01b612002565b6000600960003373ffffffffffffffffffffffffffffffffffffffff1673ffffffffffffffffffffffffffffffffffffffff168152602001908152602001600020549050611ca267594a382de21484ed60c01b612002565b611cb6672afe46aa8240dd8560c01b612002565b611cca6724b0cd757087787d60c01b612002565b60008111611d0d576040517f08c379a0000000000000000000000000000000000000000000000000000000008152600401611d0490612be1565b60405180910390fd5b611d2167d9e612e2d036122d60c01b612002565b611d3567ab48864223941ee860c01b612002565b6000600960003373ffffffffffffffffffffffffffffffffffffffff1673ffffffffffffffffffffffffffffffffffffffff16815260200190815260200160002081905550611d8e67cded2ac98ca5a53a60c01b612002565b8060076000828254611da091906128ca565b92505081905550611dbb675cb7877408f5766160c01b612002565b611dcf673659179b1cfb372d60c01b612002565b611e1c3382600260019054906101000a900473ffffffffffffffffffffffffffffffffffffffff1673ffffffffffffffffffffffffffffffffffffffff166120549092919063ffffffff16565b611e306765f912faaa7a21f260c01b612002565b611e44670dc4a2442e09a0cd60c01b612002565b3373ffffffffffffffffffffffffffffffffffffffff167f7084f5476618d8e60b11ef0d7d3f06914655adb8793e28ff7f018d4c76d505d582604051611e8a919061274d565b60405180910390a250611e9b6120da565b565b60065481565b611eab6120e3565b600073ffffffffffffffffffffffffffffffffffffffff168173ffffffffffffffffffffffffffffffffffffffff1603611f1a576040517f08c379a0000000000000000000000000000000000000000000000000000000008152600401611f1190612c73565b60405180910390fd5b611f23816121c4565b50565b600360009054906101000a900473ffffffffffffffffffffffffffffffffffffffff1681565b611f606758982975c290922f60c01b612002565b611f746730dced80a245748960c01b612002565b611f88679f9df81b0c4d206360c01b612002565b611fd0600960003373ffffffffffffffffffffffffffffffffffffffff1673ffffffffffffffffffffffffffffffffffffffff16815260200190815260200160002054610613565b611fe467dc5ebcca67af299560c01b612002565b611ff867c05f207a73d88f2960c01b612002565b612000610bfb565b565b50565b60026001540361204a576040517f08c379a000000000000000000000000000000000000000000000000000000000815260040161204190612cdf565b60405180910390fd5b6002600181905550565b6120d58363a9059cbb60e01b8484604051602401612073929190612cff565b604051602081830303815290604052907bffffffffffffffffffffffffffffffffffffffffffffffffffffffff19166020820180517bffffffffffffffffffffffffffffffffffffffffffffffffffffffff83818316178352505050506123be565b505050565b60018081905550565b6120eb612486565b73ffffffffffffffffffffffffffffffffffffffff1661210961126c565b73ffffffffffffffffffffffffffffffffffffffff161461215f576040517f08c379a000000000000000000000000000000000000000000000000000000000815260040161215690612d74565b60405180910390fd5b565b61216961248e565b6000600260006101000a81548160ff0219169083151502179055507f5db9ee0a495bf2e6ff9c91a7834c1ba4fdd244a5e8aa4e537bd38aeae4b073aa6121ad612486565b6040516121ba9190612880565b60405180910390a1565b60008060009054906101000a900473ffffffffffffffffffffffffffffffffffffffff169050816000806101000a81548173ffffffffffffffffffffffffffffffffffffffff021916908373ffffffffffffffffffffffffffffffffffffffff1602179055508173ffffffffffffffffffffffffffffffffffffffff168173ffffffffffffffffffffffffffffffffffffffff167f8be0079c531659141344cd1fd0a4f28419497f9722a3daafe3b4186f6b6457e060405160405180910390a35050565b612290612374565b6001600260006101000a81548160ff0219169083151502179055507f62e78cea01bee320cd4e420270b5ea74000d11b0c9f74754ebdbfc544b05a2586122d4612486565b6040516122e19190612880565b60405180910390a1565b61236e846323b872dd60e01b85858560405160240161230c93929190612d94565b604051602081830303815290604052907bffffffffffffffffffffffffffffffffffffffffffffffffffffffff19166020820180517bffffffffffffffffffffffffffffffffffffffffffffffffffffffff83818316178352505050506123be565b50505050565b61237c6110a2565b156123bc576040517f08c379a00000000000000000000000000000000000000000000000000000000081526004016123b390612e17565b60405180910390fd5b565b6000612420826040518060400160405280602081526020017f5361666545524332303a206c6f772d6c6576656c2063616c6c206661696c65648152508573ffffffffffffffffffffffffffffffffffffffff166124d79092919063ffffffff16565b90506000815114806124425750808060200190518101906124419190612e63565b5b612481576040517f08c379a000000000000000000000000000000000000000000000000000000000815260040161247890612f02565b60405180910390fd5b505050565b600033905090565b6124966110a2565b6124d5576040517f08c379a00000000000000000000000000000000000000000000000000000000081526004016124cc90612f6e565b60405180910390fd5b565b60606124e684846000856124ef565b90509392505050565b606082471015612534576040517f08c379a000000000000000000000000000000000000000000000000000000000815260040161252b90613000565b60405180910390fd5b6000808673ffffffffffffffffffffffffffffffffffffffff16858760405161255d9190613091565b60006040518083038185875af1925050503d806000811461259a576040519150601f19603f3d011682016040523d82523d6000602084013e61259f565b606091505b50915091506125b0878383876125bc565b92505050949350505050565b6060831561261e576000835103612616576125d685612631565b612615576040517f08c379a000000000000000000000000000000000000000000000000000000000815260040161260c906130f4565b60405180910390fd5b5b829050612629565b6126288383612654565b5b949350505050565b6000808273ffffffffffffffffffffffffffffffffffffffff163b119050919050565b6000825111156126675781518083602001fd5b806040517f08c379a000000000000000000000000000000000000000000000000000000000815260040161269b9190613169565b60405180910390fd5b600080fd5b600073ffffffffffffffffffffffffffffffffffffffff82169050919050565b60006126d4826126a9565b9050919050565b6126e4816126c9565b81146126ef57600080fd5b50565b600081359050612701816126db565b92915050565b60006020828403121561271d5761271c6126a4565b5b600061272b848285016126f2565b91505092915050565b6000819050919050565b61274781612734565b82525050565b6000602082019050612762600083018461273e565b92915050565b61277181612734565b811461277c57600080fd5b50565b60008135905061278e81612768565b92915050565b6000602082840312156127aa576127a96126a4565b5b60006127b88482850161277f565b91505092915050565b60008115159050919050565b6127d6816127c1565b82525050565b60006020820190506127f160008301846127cd565b92915050565b6000819050919050565b600061281c612817612812846126a9565b6127f7565b6126a9565b9050919050565b600061282e82612801565b9050919050565b600061284082612823565b9050919050565b61285081612835565b82525050565b600060208201905061286b6000830184612847565b92915050565b61287a816126c9565b82525050565b60006020820190506128956000830184612871565b92915050565b7f4e487b7100000000000000000000000000000000000000000000000000000000600052601160045260246000fd5b60006128d582612734565b91506128e083612734565b92508282039050818111156128f8576128f761289b565b5b92915050565b600061290982612734565b915061291483612734565b925082820261292281612734565b915082820484148315176129395761293861289b565b5b5092915050565b7f4e487b7100000000000000000000000000000000000000000000000000000000600052601260045260246000fd5b600061297a82612734565b915061298583612734565b92508261299557612994612940565b5b828204905092915050565b60006129ab82612734565b91506129b683612734565b92508282019050808211156129ce576129cd61289b565b5b92915050565b600082825260208201905092915050565b7f43616e6e6f742077697468647261772030000000000000000000000000000000600082015250565b6000612a1b6011836129d4565b9150612a26826129e5565b602082019050919050565b60006020820190508181036000830152612a4a81612a0e565b9050919050565b7f496e73756666696369656e742062616c616e6365000000000000000000000000600082015250565b6000612a876014836129d4565b9150612a9282612a51565b602082019050919050565b60006020820190508181036000830152612ab681612a7a565b9050919050565b7f5374696c6c206c6f636b65640000000000000000000000000000000000000000600082015250565b6000612af3600c836129d4565b9150612afe82612abd565b602082019050919050565b60006020820190508181036000830152612b2281612ae6565b9050919050565b7f43616e6e6f74207374616b652030000000000000000000000000000000000000600082015250565b6000612b5f600e836129d4565b9150612b6a82612b29565b602082019050919050565b60006020820190508181036000830152612b8e81612b52565b9050919050565b7f4e6f20746f6b656e73207374616b656400000000000000000000000000000000600082015250565b6000612bcb6010836129d4565b9150612bd682612b95565b602082019050919050565b60006020820190508181036000830152612bfa81612bbe565b9050919050565b7f4f776e61626c653a206e6577206f776e657220697320746865207a65726f206160008201527f6464726573730000000000000000000000000000000000000000000000000000602082015250565b6000612c5d6026836129d4565b9150612c6882612c01565b604082019050919050565b60006020820190508181036000830152612c8c81612c50565b9050919050565b7f5265656e7472616e637947756172643a207265656e7472616e742063616c6c00600082015250565b6000612cc9601f836129d4565b9150612cd482612c93565b602082019050919050565b60006020820190508181036000830152612cf881612cbc565b9050919050565b6000604082019050612d146000830185612871565b612d21602083018461273e565b9392505050565b7f4f776e61626c653a2063616c6c6572206973206e6f7420746865206f776e6572600082015250565b6000612d5e6020836129d4565b9150612d6982612d28565b602082019050919050565b60006020820190508181036000830152612d8d81612d51565b9050919050565b6000606082019050612da96000830186612871565b612db66020830185612871565b612dc3604083018461273e565b949350505050565b7f5061757361626c653a2070617573656400000000000000000000000000000000600082015250565b6000612e016010836129d4565b9150612e0c82612dcb565b602082019050919050565b60006020820190508181036000830152612e3081612df4565b9050919050565b612e40816127c1565b8114612e4b57600080fd5b50565b600081519050612e5d81612e37565b92915050565b600060208284031215612e7957612e786126a4565b5b6000612e8784828501612e4e565b91505092915050565b7f5361666545524332303a204552433230206f7065726174696f6e20646964206e60008201527f6f74207375636365656400000000000000000000000000000000000000000000602082015250565b6000612eec602a836129d4565b9150612ef782612e90565b604082019050919050565b60006020820190508181036000830152612f1b81612edf565b9050919050565b7f5061757361626c653a206e6f7420706175736564000000000000000000000000600082015250565b6000612f586014836129d4565b9150612f6382612f22565b602082019050919050565b60006020820190508181036000830152612f8781612f4b565b9050919050565b7f416464726573733a20696e73756666696369656e742062616c616e636520666f60008201527f722063616c6c0000000000000000000000000000000000000000000000000000602082015250565b6000612fea6026836129d4565b9150612ff582612f8e565b604082019050919050565b6000602082019050818103600083015261301981612fdd565b9050919050565b600081519050919050565b600081905092915050565b60005b83811015613054578082015181840152602081019050613039565b60008484015250505050565b600061306b82613020565b613075818561302b565b9350613085818560208601613036565b80840191505092915050565b600061309d8284613060565b915081905092915050565b7f416464726573733a2063616c6c20746f206e6f6e2d636f6e7472616374000000600082015250565b60006130de601d836129d4565b91506130e9826130a8565b602082019050919050565b6000602082019050818103600083015261310d816130d1565b9050919050565b600081519050919050565b6000601f19601f8301169050919050565b600061313b82613114565b61314581856129d4565b9350613155818560208601613036565b61315e8161311f565b840191505092915050565b600060208201905081810360008301526131838184613130565b90509291505056fea264697066735822122098af37bc6708ce4d22a53d2e0a1f5990aa4161cda13108bf700290787469ddcd64736f6c63430008130033",
  "linkReferences": {},
  "deployedLinkReferences": {}
}