{
  "_format": "hh-sol-artifact-1",
  "contractName": "My_Staking_Contract",
  "sourceName": "contracts/My_Staking_Contract.sol",
  "abi": [
    {
      "inputs": [
        {
          "internalType": "address",
          "name": "_stakingNFT",
          "type": "address"
        },
        {
          "internalType": "address",
          "name": "_rewardToken",
          "type": "address"
        }
      ],
      "stateMutability": "nonpayable",
      "type": "constructor"
    },
    {
      "anonymous": false,
      "inputs": [
        {
          "indexed": true,
          "internalType": "address",
          "name": "previousOwner",
          "type": "address"
        },
        {
          "indexed": true,
          "internalType": "address",
          "name": "newOwner",
          "type": "address"
        }
      ],
      "name": "OwnershipTransferred",
      "type": "event"
    },
    {
      "anonymous": false,
      "inputs": [
        {
          "indexed": false,
          "internalType": "address",
          "name": "account",
          "type": "address"
        }
      ],
      "name": "Paused",
      "type": "event"
    },
    {
      "anonymous": false,
      "inputs": [
        {
          "indexed": false,
          "internalType": "uint256",
          "name": "newRate",
          "type": "uint256"
        }
      ],
      "name": "RewardRateUpdated",
      "type": "event"
    },
    {
      "anonymous": false,
      "inputs": [
        {
          "indexed": true,
          "internalType": "address",
          "name": "user",
          "type": "address"
        },
        {
          "indexed": false,
          "internalType": "uint256",
          "name": "amount",
          "type": "uint256"
        }
      ],
      "name": "RewardsClaimed",
      "type": "event"
    },
    {
      "anonymous": false,
      "inputs": [
        {
          "indexed": true,
          "internalType": "address",
          "name": "user",
          "type": "address"
        },
        {
          "indexed": false,
          "internalType": "uint256",
          "name": "tokenId",
          "type": "uint256"
        }
      ],
      "name": "Staked",
      "type": "event"
    },
    {
      "anonymous": false,
      "inputs": [
        {
          "indexed": false,
          "internalType": "uint256",
          "name": "newDuration",
          "type": "uint256"
        }
      ],
      "name": "StakingDurationUpdated",
      "type": "event"
    },
    {
      "anonymous": false,
      "inputs": [
        {
          "indexed": false,
          "internalType": "address",
          "name": "account",
          "type": "address"
        }
      ],
      "name": "Unpaused",
      "type": "event"
    },
    {
      "anonymous": false,
      "inputs": [
        {
          "indexed": true,
          "internalType": "address",
          "name": "user",
          "type": "address"
        },
        {
          "indexed": false,
          "internalType": "uint256",
          "name": "tokenId",
          "type": "uint256"
        }
      ],
      "name": "Withdrawn",
      "type": "event"
    },
    {
      "inputs": [
        {
          "internalType": "address",
          "name": "account",
          "type": "address"
        }
      ],
      "name": "calculateRewards",
      "outputs": [
        {
          "internalType": "uint256",
          "name": "",
          "type": "uint256"
        }
      ],
      "stateMutability": "view",
      "type": "function"
    },
    {
      "inputs": [],
      "name": "claimRewards",
      "outputs": [],
      "stateMutability": "nonpayable",
      "type": "function"
    },
    {
      "inputs": [],
      "name": "coolTime",
      "outputs": [
        {
          "internalType": "uint256",
          "name": "",
          "type": "uint256"
        }
      ],
      "stateMutability": "view",
      "type": "function"
    },
    {
      "inputs": [
        {
          "internalType": "uint256",
          "name": "tokenId",
          "type": "uint256"
        }
      ],
      "name": "emergencyWithdraw",
      "outputs": [],
      "stateMutability": "nonpayable",
      "type": "function"
    },
    {
      "inputs": [
        {
          "internalType": "uint256",
          "name": "amount",
          "type": "uint256"
        }
      ],
      "name": "fundRewards",
      "outputs": [],
      "stateMutability": "nonpayable",
      "type": "function"
    },
    {
      "inputs": [
        {
          "internalType": "address",
          "name": "user",
          "type": "address"
        }
      ],
      "name": "getStakedTokenIds",
      "outputs": [
        {
          "internalType": "uint256[]",
          "name": "",
          "type": "uint256[]"
        }
      ],
      "stateMutability": "view",
      "type": "function"
    },
    {
      "inputs": [
        {
          "internalType": "address",
          "name": "",
          "type": "address"
        },
        {
          "internalType": "address",
          "name": "",
          "type": "address"
        },
        {
          "internalType": "uint256",
          "name": "",
          "type": "uint256"
        },
        {
          "internalType": "bytes",
          "name": "",
          "type": "bytes"
        }
      ],
      "name": "onERC721Received",
      "outputs": [
        {
          "internalType": "bytes4",
          "name": "",
          "type": "bytes4"
        }
      ],
      "stateMutability": "pure",
      "type": "function"
    },
    {
      "inputs": [],
      "name": "owner",
      "outputs": [
        {
          "internalType": "address",
          "name": "",
          "type": "address"
        }
      ],
      "stateMutability": "view",
      "type": "function"
    },
    {
      "inputs": [],
      "name": "pause",
      "outputs": [],
      "stateMutability": "nonpayable",
      "type": "function"
    },
    {
      "inputs": [],
      "name": "paused",
      "outputs": [
        {
          "internalType": "bool",
          "name": "",
          "type": "bool"
        }
      ],
      "stateMutability": "view",
      "type": "function"
    },
    {
      "inputs": [],
      "name": "renounceOwnership",
      "outputs": [],
      "stateMutability": "nonpayable",
      "type": "function"
    },
    {
      "inputs": [],
      "name": "rewardRate",
      "outputs": [
        {
          "internalType": "uint256",
          "name": "",
          "type": "uint256"
        }
      ],
      "stateMutability": "view",
      "type": "function"
    },
    {
      "inputs": [],
      "name": "rewardToken",
      "outputs": [
        {
          "internalType": "contract IERC20",
          "name": "",
          "type": "address"
        }
      ],
      "stateMutability": "view",
      "type": "function"
    },
    {
      "inputs": [
        {
          "internalType": "uint256",
          "name": "_coolTime",
          "type": "uint256"
        }
      ],
      "name": "setCoolTime",
      "outputs": [],
      "stateMutability": "nonpayable",
      "type": "function"
    },
    {
      "inputs": [
        {
          "internalType": "uint256",
          "name": "_rewardRate",
          "type": "uint256"
        }
      ],
      "name": "setRewardRate",
      "outputs": [],
      "stateMutability": "nonpayable",
      "type": "function"
    },
    {
      "inputs": [
        {
          "internalType": "uint256",
          "name": "tokenId",
          "type": "uint256"
        }
      ],
      "name": "stake",
      "outputs": [],
      "stateMutability": "nonpayable",
      "type": "function"
    },
    {
      "inputs": [],
      "name": "stakingNFT",
      "outputs": [
        {
          "internalType": "contract IERC721",
          "name": "",
          "type": "address"
        }
      ],
      "stateMutability": "view",
      "type": "function"
    },
    {
      "inputs": [
        {
          "internalType": "uint256",
          "name": "",
          "type": "uint256"
        }
      ],
      "name": "tokenOwner",
      "outputs": [
        {
          "internalType": "address",
          "name": "",
          "type": "address"
        }
      ],
      "stateMutability": "view",
      "type": "function"
    },
    {
      "inputs": [],
      "name": "totalStaked",
      "outputs": [
        {
          "internalType": "uint256",
          "name": "",
          "type": "uint256"
        }
      ],
      "stateMutability": "view",
      "type": "function"
    },
    {
      "inputs": [
        {
          "internalType": "address",
          "name": "newOwner",
          "type": "address"
        }
      ],
      "name": "transferOwnership",
      "outputs": [],
      "stateMutability": "nonpayable",
      "type": "function"
    },
    {
      "inputs": [],
      "name": "unpause",
      "outputs": [],
      "stateMutability": "nonpayable",
      "type": "function"
    },
    {
      "inputs": [
        {
          "internalType": "address",
          "name": "",
          "type": "address"
        }
      ],
      "name": "userInfo",
      "outputs": [
        {
          "internalType": "uint256",
          "name": "rewards",
          "type": "uint256"
        },
        {
          "internalType": "uint256",
          "name": "lastClaimTime",
          "type": "uint256"
        },
        {
          "internalType": "uint256",
          "name": "stakedAt",
          "type": "uint256"
        }
      ],
      "stateMutability": "view",
      "type": "function"
    },
    {
      "inputs": [
        {
          "internalType": "uint256",
          "name": "tokenId",
          "type": "uint256"
        }
      ],
      "name": "withdraw",
      "outputs": [],
      "stateMutability": "nonpayable",
      "type": "function"
    },
    {
      "inputs": [
        {
          "internalType": "uint256",
          "name": "tokenId",
          "type": "uint256"
        }
      ],
      "name": "withdrawAndClaim",
      "outputs": [],
      "stateMutability": "nonpayable",
      "type": "function"
    }
  ],
  "bytecode": "0x60806040526078600755670de0b6b3a76400006008553480156200002257600080fd5b5060405162003c9338038062003c93833981810160405281019062000048919062000465565b620000686200005c6200032c60201b60201c565b6200033460201b60201c565b600180819055506000600260006101000a81548160ff021916908315150217905550620000a66794995b3f31ce134660c01b620003f860201b60201c565b620000c2673bf18636e6f2d49860c01b620003f860201b60201c565b620000de67b06c50ba00fe0e9b60c01b620003f860201b60201c565b620000fa6771b7cc2ca826d05f60c01b620003f860201b60201c565b600073ffffffffffffffffffffffffffffffffffffffff168273ffffffffffffffffffffffffffffffffffffffff16036200016c576040517f08c379a000000000000000000000000000000000000000000000000000000000815260040162000163906200050d565b60405180910390fd5b6200018867194d15728506cb6660c01b620003f860201b60201c565b620001a46711993a7e18f54cda60c01b620003f860201b60201c565b620001c0677de07d797a3ae79860c01b620003f860201b60201c565b620001dc677b9310ee0e48a77260c01b620003f860201b60201c565b600073ffffffffffffffffffffffffffffffffffffffff168173ffffffffffffffffffffffffffffffffffffffff16036200024e576040517f08c379a000000000000000000000000000000000000000000000000000000000815260040162000245906200057f565b60405180910390fd5b6200026a6723b6da395d2681ce60c01b620003f860201b60201c565b6200028667e74a8e531022b73a60c01b620003f860201b60201c565b81600360006101000a81548173ffffffffffffffffffffffffffffffffffffffff021916908373ffffffffffffffffffffffffffffffffffffffff160217905550620002e36718298797b7201eae60c01b620003f860201b60201c565b80600260016101000a81548173ffffffffffffffffffffffffffffffffffffffff021916908373ffffffffffffffffffffffffffffffffffffffff1602179055505050620005a1565b600033905090565b60008060009054906101000a900473ffffffffffffffffffffffffffffffffffffffff169050816000806101000a81548173ffffffffffffffffffffffffffffffffffffffff021916908373ffffffffffffffffffffffffffffffffffffffff1602179055508173ffffffffffffffffffffffffffffffffffffffff168173ffffffffffffffffffffffffffffffffffffffff167f8be0079c531659141344cd1fd0a4f28419497f9722a3daafe3b4186f6b6457e060405160405180910390a35050565b50565b600080fd5b600073ffffffffffffffffffffffffffffffffffffffff82169050919050565b60006200042d8262000400565b9050919050565b6200043f8162000420565b81146200044b57600080fd5b50565b6000815190506200045f8162000434565b92915050565b600080604083850312156200047f576200047e620003fb565b5b60006200048f858286016200044e565b9250506020620004a2858286016200044e565b9150509250929050565b600082825260208201905092915050565b7f496e76616c6964207374616b696e6720746f6b656e0000000000000000000000600082015250565b6000620004f5601583620004ac565b91506200050282620004bd565b602082019050919050565b600060208201905081810360008301526200052881620004e6565b9050919050565b7f496e76616c69642072657761726420746f6b656e000000000000000000000000600082015250565b600062000567601483620004ac565b915062000574826200052f565b602082019050919050565b600060208201905081810360008301526200059a8162000558565b9050919050565b6136e280620005b16000396000f3fe608060405234801561001057600080fd5b50600436106101985760003560e01c8063715018a6116100e35780639e447fc61161008c578063f195aabd11610066578063f195aabd14610413578063f2fde38b1461042f578063f7c618c11461044b57610198565b80639e447fc6146103bd578063a4493b47146103d9578063a694fc3a146103f757610198565b80638456cb59116100bd5780638456cb59146103795780638da5cb5b1461038357806393707a19146103a157610198565b8063715018a6146103335780637b0a47ee1461033d578063817b1cd21461035b57610198565b80633f4ba83a116101455780635c975abb1161011f5780635c975abb146102b557806364ab8675146102d35780637047bc521461030357610198565b80633f4ba83a14610273578063448a10471461027d5780635312ea8e1461029957610198565b80631caaa487116101765780631caaa4871461021d5780632e1a7d4d1461024d578063372500ab1461026957610198565b80630ce71e321461019d578063150b7a02146101bb5780631959a002146101eb575b600080fd5b6101a5610469565b6040516101b291906129b2565b60405180910390f35b6101d560048036038101906101d09190612ab0565b61048f565b6040516101e29190612b73565b60405180910390f35b61020560048036038101906102009190612b8e565b6104e0565b60405161021493929190612bca565b60405180910390f35b61023760048036038101906102329190612c01565b61050a565b6040516102449190612c3d565b60405180910390f35b61026760048036038101906102629190612c01565b61053d565b005b61027161086a565b005b61027b610cb0565b005b61029760048036038101906102929190612c01565b610d26565b005b6102b360048036038101906102ae9190612c01565b610d9e565b005b6102bd610f6c565b6040516102ca9190612c73565b60405180910390f35b6102ed60048036038101906102e89190612b8e565b610f83565b6040516102fa9190612c8e565b60405180910390f35b61031d60048036038101906103189190612b8e565b611209565b60405161032a9190612d67565b60405180910390f35b61033b6112df565b005b6103456112f3565b6040516103529190612c8e565b60405180910390f35b6103636112f9565b6040516103709190612c8e565b60405180910390f35b6103816112ff565b005b61038b611375565b6040516103989190612c3d565b60405180910390f35b6103bb60048036038101906103b69190612c01565b61139e565b005b6103d760048036038101906103d29190612c01565b61145c565b005b6103e16116b8565b6040516103ee9190612c8e565b60405180910390f35b610411600480360381019061040c9190612c01565b6116be565b005b61042d60048036038101906104289190612c01565b611d71565b005b61044960048036038101906104449190612b8e565b611e32565b005b610453611eb5565b6040516104609190612daa565b60405180910390f35b600360009054906101000a900473ffffffffffffffffffffffffffffffffffffffff1681565b60006104a567121742caedf5e99760c01b611edb565b6104b967c8850c2c30d1ae8e60c01b611edb565b6104cd671517554c379f907860c01b611edb565b63150b7a0260e01b905095945050505050565b60046020528060005260406000206000915090508060010154908060020154908060030154905083565b60056020528060005260406000206000915054906101000a900473ffffffffffffffffffffffffffffffffffffffff1681565b61055167b49d53615f78f71760c01b611edb565b610559611ede565b61056d678da586b29bda6f4d60c01b611edb565b61058167afbfb700560cd18160c01b611edb565b610589611f2d565b61059d6764103ad956931a4760c01b611edb565b6105b1678b569d8a033fdc4660c01b611edb565b336105c6671a93ba774dbc686a60c01b611edb565b6105da67a1f6f9ad678a73f860c01b611edb565b6105ee67015f29a550f6127660c01b611edb565b600073ffffffffffffffffffffffffffffffffffffffff168173ffffffffffffffffffffffffffffffffffffffff16146106f957610636671f8253aa070298a760c01b611edb565b61064a67e258a7c570ae4fff60c01b611edb565b61065381610f83565b600460008373ffffffffffffffffffffffffffffffffffffffff1673ffffffffffffffffffffffffffffffffffffffff168152602001908152602001600020600101819055506106ad67d562a70c01f6ae9b60c01b611edb565b42600460008373ffffffffffffffffffffffffffffffffffffffff1673ffffffffffffffffffffffffffffffffffffffff1681526020019081526020016000206002018190555061070e565b61070d677837356f9a37431160c01b611edb565b5b6107226773809c58564e495660c01b611edb565b61073667f887e23b46c7d3c460c01b611edb565b61074a676a1e35ccd0561e8460c01b611edb565b61075e67ed716c3e149196a760c01b611edb565b6107726769d6217562a78a6860c01b611edb565b610786672800e1fd2a63b23e60c01b611edb565b600754600460003373ffffffffffffffffffffffffffffffffffffffff1673ffffffffffffffffffffffffffffffffffffffff168152602001908152602001600020600301546107d69190612df4565b421015610818576040517f08c379a000000000000000000000000000000000000000000000000000000000815260040161080f90612e85565b60405180910390fd5b61082c67f6d0b38120d70b1460c01b611edb565b61084067c7509cc43a831caf60c01b611edb565b6108546783438f45ee74db1960c01b611edb565b61085e3383611f77565b5061086761232d565b50565b61087e67030570c1ed130ced60c01b611edb565b610886611ede565b61089a67940615fe335aa22160c01b611edb565b6108ae67927ec72eda3d29c360c01b611edb565b6108b6611f2d565b6108ca67e6a5e866e9af74ad60c01b611edb565b6108de67b156066916b5abcc60c01b611edb565b336108f3671a93ba774dbc686a60c01b611edb565b61090767a1f6f9ad678a73f860c01b611edb565b61091b67015f29a550f6127660c01b611edb565b600073ffffffffffffffffffffffffffffffffffffffff168173ffffffffffffffffffffffffffffffffffffffff1614610a2657610963671f8253aa070298a760c01b611edb565b61097767e258a7c570ae4fff60c01b611edb565b61098081610f83565b600460008373ffffffffffffffffffffffffffffffffffffffff1673ffffffffffffffffffffffffffffffffffffffff168152602001908152602001600020600101819055506109da67d562a70c01f6ae9b60c01b611edb565b42600460008373ffffffffffffffffffffffffffffffffffffffff1673ffffffffffffffffffffffffffffffffffffffff16815260200190815260200160002060020181905550610a3b565b610a3a677837356f9a37431160c01b611edb565b5b610a4f6773809c58564e495660c01b611edb565b610a63676cc68cc9c226acd560c01b611edb565b610a7767795902cac8cfbed360c01b611edb565b610a8b67e9c4b17bc943c7a160c01b611edb565b610a9f67b894a25d5b8bef5960c01b611edb565b6000600460003373ffffffffffffffffffffffffffffffffffffffff1673ffffffffffffffffffffffffffffffffffffffff168152602001908152602001600020600101549050610afa67416ec1c12102565a60c01b611edb565b610b0e67c2d5ef14fba0b3a860c01b611edb565b6000811115610c7757610b2b67816ac4ea4572af7c60c01b611edb565b610b3f674994742d2ddfff9360c01b611edb565b6000600460003373ffffffffffffffffffffffffffffffffffffffff1673ffffffffffffffffffffffffffffffffffffffff16815260200190815260200160002060010181905550610b9b67b1f6bc21063b351160c01b611edb565b610baf670f076db28f18f62160c01b611edb565b610bfc3382600260019054906101000a900473ffffffffffffffffffffffffffffffffffffffff1673ffffffffffffffffffffffffffffffffffffffff166123369092919063ffffffff16565b610c1067e4c7d47546f8d93760c01b611edb565b610c2467ece5b56eff185ab160c01b611edb565b3373ffffffffffffffffffffffffffffffffffffffff167ffc30cddea38e2bf4d6ea7d3f9ed3b6ad7f176419f4963bd81318067a4aee73fe82604051610c6a9190612c8e565b60405180910390a2610c8c565b610c8b6791a3091dfafd26b060c01b611edb565b5b610ca06759c5666c4c0597ee60c01b611edb565b600090505050610cae61232d565b565b610cc467f5a650ef42af99e960c01b611edb565b610ccc6123bc565b610ce067f496a1a9b15f377d60c01b611edb565b610cf4679ed97abcc90c488e60c01b611edb565b610d0867c6c537fb831d31cd60c01b611edb565b610d1c67824df3e257b8619e60c01b611edb565b610d2461243a565b565b610d3a6750ee6be3cf06744c60c01b611edb565b610d4e6784c10e186f65398560c01b611edb565b610d6267ddb277a7ce197fa260c01b611edb565b610d6b8161053d565b610d7f670bca842f73cc634560c01b611edb565b610d936708c381afba5a6dd160c01b611edb565b610d9b61086a565b50565b610db2671d0379b4e2e97ae560c01b611edb565b610dba611ede565b610dce677877a52ca3f6df8b60c01b611edb565b610de267c1c111113aef33c960c01b611edb565b610df6675718df73c2afd1d960c01b611edb565b610e0a6754fb4f565553a18260c01b611edb565b610e1e67128b0e0e67ce310360c01b611edb565b3373ffffffffffffffffffffffffffffffffffffffff166005600083815260200190815260200160002060009054906101000a900473ffffffffffffffffffffffffffffffffffffffff1673ffffffffffffffffffffffffffffffffffffffff1614610ebf576040517f08c379a0000000000000000000000000000000000000000000000000000000008152600401610eb690612ef1565b60405180910390fd5b610ed367d6f1a9707287d08460c01b611edb565b610ee767c0efbb4252c07ec360c01b611edb565b610efb678872f9277cf52c8d60c01b611edb565b610f053382611f77565b610f1967ec5ac2cc34b816e360c01b611edb565b6000600460003373ffffffffffffffffffffffffffffffffffffffff1673ffffffffffffffffffffffffffffffffffffffff16815260200190815260200160002060010181905550610f6961232d565b50565b6000600260009054906101000a900460ff16905090565b6000610f99679876b9abc53aa03060c01b611edb565b610fad675eac239a70f3e1b560c01b611edb565b610fc167ce5e8abb00ab43f460c01b611edb565b6000600460008473ffffffffffffffffffffffffffffffffffffffff1673ffffffffffffffffffffffffffffffffffffffff1681526020019081526020016000206040518060800160405290816000820180548060200260200160405190810160405280929190818152602001828054801561105c57602002820191906000526020600020905b815481526020019060010190808311611048575b505050505081526020016001820154815260200160028201548152602001600382015481525050905061109967b0e24a226b35dba060c01b611edb565b6110ad67b5c275bb332ef1bc60c01b611edb565b600081600001515190506110cb674048bff8a7a6ea7e60c01b611edb565b6110df67ad2ab8e52c9a809a60c01b611edb565b6000810361111d576110fb675ecdfc829c20d0e960c01b611edb565b61110f6753432465fddbc0fe60c01b611edb565b816020015192505050611204565b61113167812d2c39ea10551c60c01b611edb565b6111456739794722b4a3249560c01b611edb565b61115967cb17ae632639643760c01b611edb565b600082604001514261116b9190612f11565b9050611181670acaad227b0baed760c01b611edb565b611195674bbf3aca4f3321bf60c01b611edb565b6000670de0b6b3a764000082600854856111af9190612f45565b6111b99190612f45565b6111c39190612fb6565b90506111d967ec293a9a0f4bd63060c01b611edb565b6111ed67c3b5586b36ffb13660c01b611edb565b8360200151816111fd9190612df4565b9450505050505b919050565b606061121f67a11f59cdca33238360c01b611edb565b61123367b66b7f49fe8ed1ee60c01b611edb565b6112476794f7c16340420c4c60c01b611edb565b600460008373ffffffffffffffffffffffffffffffffffffffff1673ffffffffffffffffffffffffffffffffffffffff1681526020019081526020016000206000018054806020026020016040519081016040528092919081815260200182805480156112d357602002820191906000526020600020905b8154815260200190600101908083116112bf575b50505050509050919050565b6112e76123bc565b6112f1600061249d565b565b60085481565b60065481565b6113136779874440a5f1429160c01b611edb565b61131b6123bc565b61132f67b02a6ab526ff02c960c01b611edb565b611343679d6bd6755761ed1360c01b611edb565b61135767231749c706798a4060c01b611edb565b61136b67ec903abce888a60760c01b611edb565b611373612561565b565b60008060009054906101000a900473ffffffffffffffffffffffffffffffffffffffff16905090565b6113b267b8dfbd5ceb519b2660c01b611edb565b6113ba6123bc565b6113ce67d4b683396ad3f3ac60c01b611edb565b6113e267bb9d68ff9180240060c01b611edb565b6113f667da24f737bd12fdac60c01b611edb565b61140a670f980802fb33091260c01b611edb565b611459333083600260019054906101000a900473ffffffffffffffffffffffffffffffffffffffff1673ffffffffffffffffffffffffffffffffffffffff166125c4909392919063ffffffff16565b50565b61147067add8695e7b809e7d60c01b611edb565b6114786123bc565b61148c67c0b9e67d4e6f55ae60c01b611edb565b6114a067069c6bb43b77202260c01b611edb565b60006114b6671a93ba774dbc686a60c01b611edb565b6114ca67a1f6f9ad678a73f860c01b611edb565b6114de67015f29a550f6127660c01b611edb565b600073ffffffffffffffffffffffffffffffffffffffff168173ffffffffffffffffffffffffffffffffffffffff16146115e957611526671f8253aa070298a760c01b611edb565b61153a67e258a7c570ae4fff60c01b611edb565b61154381610f83565b600460008373ffffffffffffffffffffffffffffffffffffffff1673ffffffffffffffffffffffffffffffffffffffff1681526020019081526020016000206001018190555061159d67d562a70c01f6ae9b60c01b611edb565b42600460008373ffffffffffffffffffffffffffffffffffffffff1673ffffffffffffffffffffffffffffffffffffffff168152602001908152602001600020600201819055506115fe565b6115fd677837356f9a37431160c01b611edb565b5b6116126773809c58564e495660c01b611edb565b6116266780b11b1f6e41537160c01b611edb565b61163a6763d161bf7684847560c01b611edb565b61164e6783f788d85388bed560c01b611edb565b8160088190555061166967d1aeaeaa7fed0b5160c01b611edb565b61167d6736d28246897a07bd60c01b611edb565b7f41d466ebd06fb97e7786086ac8b69b7eb7da798592036251291d34e9791cde01826040516116ac9190612c8e565b60405180910390a15050565b60075481565b6116d26799ce4060eca24c4260c01b611edb565b6116da611ede565b6116ee67b8bc6cc52552113d60c01b611edb565b6117026714a46075e84e122660c01b611edb565b61170a611f2d565b61171e67a2c16e5144a3035960c01b611edb565b6117326722a6c11f13fdd8da60c01b611edb565b33611747671a93ba774dbc686a60c01b611edb565b61175b67a1f6f9ad678a73f860c01b611edb565b61176f67015f29a550f6127660c01b611edb565b600073ffffffffffffffffffffffffffffffffffffffff168173ffffffffffffffffffffffffffffffffffffffff161461187a576117b7671f8253aa070298a760c01b611edb565b6117cb67e258a7c570ae4fff60c01b611edb565b6117d481610f83565b600460008373ffffffffffffffffffffffffffffffffffffffff1673ffffffffffffffffffffffffffffffffffffffff1681526020019081526020016000206001018190555061182e67d562a70c01f6ae9b60c01b611edb565b42600460008373ffffffffffffffffffffffffffffffffffffffff1673ffffffffffffffffffffffffffffffffffffffff1681526020019081526020016000206002018190555061188f565b61188e677837356f9a37431160c01b611edb565b5b6118a36773809c58564e495660c01b611edb565b6118b767d1e49c2cd8fb9d0360c01b611edb565b6118cb676e967a1b2de1f78f60c01b611edb565b6118df67f2710b86fe3f35a360c01b611edb565b6118f367f66bd75bdd7719e560c01b611edb565b61190767486431709cc8c75060c01b611edb565b600073ffffffffffffffffffffffffffffffffffffffff166005600084815260200190815260200160002060009054906101000a900473ffffffffffffffffffffffffffffffffffffffff1673ffffffffffffffffffffffffffffffffffffffff16146119a9576040517f08c379a00000000000000000000000000000000000000000000000000000000081526004016119a090613033565b60405180910390fd5b6119bd6722102253936ce05460c01b611edb565b6119d16784bad6c741ef398b60c01b611edb565b6119e567a4bd3506e89d0fe260c01b611edb565b600460003373ffffffffffffffffffffffffffffffffffffffff1673ffffffffffffffffffffffffffffffffffffffff168152602001908152602001600020600001829080600181540180825580915050600190039060005260206000200160009091909190915055611a6267a6ca738246d8df1660c01b611edb565b336005600084815260200190815260200160002060006101000a81548173ffffffffffffffffffffffffffffffffffffffff021916908373ffffffffffffffffffffffffffffffffffffffff160217905550611ac867a485c6b5e003e0a260c01b611edb565b60066000815480929190611adb90613053565b9190505550611af467d1d6d347b762428160c01b611edb565b611b08677cadf6b46d4a716560c01b611edb565b6000600460003373ffffffffffffffffffffffffffffffffffffffff1673ffffffffffffffffffffffffffffffffffffffff1681526020019081526020016000206002015403611bc657611b66670f31b1b4a74c056360c01b611edb565b611b7a67e94882b951676f1e60c01b611edb565b42600460003373ffffffffffffffffffffffffffffffffffffffff1673ffffffffffffffffffffffffffffffffffffffff16815260200190815260200160002060020181905550611bdb565b611bda67da1a76e99164269f60c01b611edb565b5b611bef67ecef6ad4298cb6c860c01b611edb565b42600460003373ffffffffffffffffffffffffffffffffffffffff1673ffffffffffffffffffffffffffffffffffffffff16815260200190815260200160002060030181905550611c4a672b0255fc0ef4dc3e60c01b611edb565b611c5e67ee19be2787e7237060c01b611edb565b600360009054906101000a900473ffffffffffffffffffffffffffffffffffffffff1673ffffffffffffffffffffffffffffffffffffffff166342842e0e3330856040518463ffffffff1660e01b8152600401611cbd9392919061309b565b600060405180830381600087803b158015611cd757600080fd5b505af1158015611ceb573d6000803e3d6000fd5b50505050611d0367df04d25c7b06fa9260c01b611edb565b611d1767b85916de1f3c15d960c01b611edb565b3373ffffffffffffffffffffffffffffffffffffffff167f9e71bc8eea02a63969f509818f2dafb9254532904319f9dbda79b67bd34a5f3d83604051611d5d9190612c8e565b60405180910390a250611d6e61232d565b50565b611d8567fa91845ce3acb61060c01b611edb565b611d8d6123bc565b611da16727f314a22feb41eb60c01b611edb565b611db5675ae380ca7d5cff2f60c01b611edb565b611dc9672cf3468ce66ea5c760c01b611edb565b80600781905550611de46751bf56bb907961f460c01b611edb565b611df867ca089110ddd7d3e060c01b611edb565b7f8c7ba3004ed566ca0f3da73aaa1e3470028922c65772882a9b89612e44a72dcf81604051611e279190612c8e565b60405180910390a150565b611e3a6123bc565b600073ffffffffffffffffffffffffffffffffffffffff168173ffffffffffffffffffffffffffffffffffffffff1603611ea9576040517f08c379a0000000000000000000000000000000000000000000000000000000008152600401611ea090613144565b60405180910390fd5b611eb28161249d565b50565b600260019054906101000a900473ffffffffffffffffffffffffffffffffffffffff1681565b50565b600260015403611f23576040517f08c379a0000000000000000000000000000000000000000000000000000000008152600401611f1a906131b0565b60405180910390fd5b6002600181905550565b611f35610f6c565b15611f75576040517f08c379a0000000000000000000000000000000000000000000000000000000008152600401611f6c9061321c565b60405180910390fd5b565b611f8b67f27aaa84b7bddbf260c01b611edb565b611f9f67a7ae4fb9907f03e460c01b611edb565b611fb3673eea843141233cde60c01b611edb565b6000600460008473ffffffffffffffffffffffffffffffffffffffff1673ffffffffffffffffffffffffffffffffffffffff168152602001908152602001600020600001905061200d677d9ec559a8e47b0260c01b611edb565b612021675ed8a0ff062b9b7d60c01b611edb565b60005b81805490508110156121825761204467db340653e997297660c01b611edb565b6120586773072ec3c4e9907960c01b611edb565b8282828154811061206c5761206b61323c565b5b90600052602060002001540361215b5761209067ca33f4fe76d0fd0460c01b611edb565b6120a467222c08f712c68fb660c01b611edb565b81600183805490506120b69190612f11565b815481106120c7576120c661323c565b5b90600052602060002001548282815481106120e5576120e461323c565b5b90600052602060002001819055506121076767c7eac56f048e2960c01b611edb565b61211b67a5ffec45c779db8060c01b611edb565b8180548061212c5761212b61326b565b5b60019003818190600052602060002001600090559055612156678e5f016ececc233c60c01b611edb565b612182565b61216f671e1c5c58a77ca51f60c01b611edb565b808061217a90613053565b915050612024565b5061219767efb70937fc333cbc60c01b611edb565b6005600083815260200190815260200160002060006101000a81549073ffffffffffffffffffffffffffffffffffffffff02191690556121e16745a0c1119549110560c01b611edb565b600660008154809291906121f49061329a565b919050555061220d67ec2bbef5e5a6657460c01b611edb565b6122216727e294727ff3a34f60c01b611edb565b600360009054906101000a900473ffffffffffffffffffffffffffffffffffffffff1673ffffffffffffffffffffffffffffffffffffffff166342842e0e3085856040518463ffffffff1660e01b81526004016122809392919061309b565b600060405180830381600087803b15801561229a57600080fd5b505af11580156122ae573d6000803e3d6000fd5b505050506122c667d17fb673d448b73f60c01b611edb565b6122da6724d79045147362dd60c01b611edb565b8273ffffffffffffffffffffffffffffffffffffffff167f7084f5476618d8e60b11ef0d7d3f06914655adb8793e28ff7f018d4c76d505d5836040516123209190612c8e565b60405180910390a2505050565b60018081905550565b6123b78363a9059cbb60e01b84846040516024016123559291906132c3565b604051602081830303815290604052907bffffffffffffffffffffffffffffffffffffffffffffffffffffffff19166020820180517bffffffffffffffffffffffffffffffffffffffffffffffffffffffff838183161783525050505061264d565b505050565b6123c4612715565b73ffffffffffffffffffffffffffffffffffffffff166123e2611375565b73ffffffffffffffffffffffffffffffffffffffff1614612438576040517f08c379a000000000000000000000000000000000000000000000000000000000815260040161242f90613338565b60405180910390fd5b565b61244261271d565b6000600260006101000a81548160ff0219169083151502179055507f5db9ee0a495bf2e6ff9c91a7834c1ba4fdd244a5e8aa4e537bd38aeae4b073aa612486612715565b6040516124939190612c3d565b60405180910390a1565b60008060009054906101000a900473ffffffffffffffffffffffffffffffffffffffff169050816000806101000a81548173ffffffffffffffffffffffffffffffffffffffff021916908373ffffffffffffffffffffffffffffffffffffffff1602179055508173ffffffffffffffffffffffffffffffffffffffff168173ffffffffffffffffffffffffffffffffffffffff167f8be0079c531659141344cd1fd0a4f28419497f9722a3daafe3b4186f6b6457e060405160405180910390a35050565b612569611f2d565b6001600260006101000a81548160ff0219169083151502179055507f62e78cea01bee320cd4e420270b5ea74000d11b0c9f74754ebdbfc544b05a2586125ad612715565b6040516125ba9190612c3d565b60405180910390a1565b612647846323b872dd60e01b8585856040516024016125e59392919061309b565b604051602081830303815290604052907bffffffffffffffffffffffffffffffffffffffffffffffffffffffff19166020820180517bffffffffffffffffffffffffffffffffffffffffffffffffffffffff838183161783525050505061264d565b50505050565b60006126af826040518060400160405280602081526020017f5361666545524332303a206c6f772d6c6576656c2063616c6c206661696c65648152508573ffffffffffffffffffffffffffffffffffffffff166127669092919063ffffffff16565b90506000815114806126d15750808060200190518101906126d09190613384565b5b612710576040517f08c379a000000000000000000000000000000000000000000000000000000000815260040161270790613423565b60405180910390fd5b505050565b600033905090565b612725610f6c565b612764576040517f08c379a000000000000000000000000000000000000000000000000000000000815260040161275b9061348f565b60405180910390fd5b565b6060612775848460008561277e565b90509392505050565b6060824710156127c3576040517f08c379a00000000000000000000000000000000000000000000000000000000081526004016127ba90613521565b60405180910390fd5b6000808673ffffffffffffffffffffffffffffffffffffffff1685876040516127ec91906135b2565b60006040518083038185875af1925050503d8060008114612829576040519150601f19603f3d011682016040523d82523d6000602084013e61282e565b606091505b509150915061283f8783838761284b565b92505050949350505050565b606083156128ad5760008351036128a557612865856128c0565b6128a4576040517f08c379a000000000000000000000000000000000000000000000000000000000815260040161289b90613615565b60405180910390fd5b5b8290506128b8565b6128b783836128e3565b5b949350505050565b6000808273ffffffffffffffffffffffffffffffffffffffff163b119050919050565b6000825111156128f65781518083602001fd5b806040517f08c379a000000000000000000000000000000000000000000000000000000000815260040161292a919061368a565b60405180910390fd5b600073ffffffffffffffffffffffffffffffffffffffff82169050919050565b6000819050919050565b600061297861297361296e84612933565b612953565b612933565b9050919050565b600061298a8261295d565b9050919050565b600061299c8261297f565b9050919050565b6129ac81612991565b82525050565b60006020820190506129c760008301846129a3565b92915050565b600080fd5b600080fd5b60006129e282612933565b9050919050565b6129f2816129d7565b81146129fd57600080fd5b50565b600081359050612a0f816129e9565b92915050565b6000819050919050565b612a2881612a15565b8114612a3357600080fd5b50565b600081359050612a4581612a1f565b92915050565b600080fd5b600080fd5b600080fd5b60008083601f840112612a7057612a6f612a4b565b5b8235905067ffffffffffffffff811115612a8d57612a8c612a50565b5b602083019150836001820283011115612aa957612aa8612a55565b5b9250929050565b600080600080600060808688031215612acc57612acb6129cd565b5b6000612ada88828901612a00565b9550506020612aeb88828901612a00565b9450506040612afc88828901612a36565b935050606086013567ffffffffffffffff811115612b1d57612b1c6129d2565b5b612b2988828901612a5a565b92509250509295509295909350565b60007fffffffff0000000000000000000000000000000000000000000000000000000082169050919050565b612b6d81612b38565b82525050565b6000602082019050612b886000830184612b64565b92915050565b600060208284031215612ba457612ba36129cd565b5b6000612bb284828501612a00565b91505092915050565b612bc481612a15565b82525050565b6000606082019050612bdf6000830186612bbb565b612bec6020830185612bbb565b612bf96040830184612bbb565b949350505050565b600060208284031215612c1757612c166129cd565b5b6000612c2584828501612a36565b91505092915050565b612c37816129d7565b82525050565b6000602082019050612c526000830184612c2e565b92915050565b60008115159050919050565b612c6d81612c58565b82525050565b6000602082019050612c886000830184612c64565b92915050565b6000602082019050612ca36000830184612bbb565b92915050565b600081519050919050565b600082825260208201905092915050565b6000819050602082019050919050565b612cde81612a15565b82525050565b6000612cf08383612cd5565b60208301905092915050565b6000602082019050919050565b6000612d1482612ca9565b612d1e8185612cb4565b9350612d2983612cc5565b8060005b83811015612d5a578151612d418882612ce4565b9750612d4c83612cfc565b925050600181019050612d2d565b5085935050505092915050565b60006020820190508181036000830152612d818184612d09565b905092915050565b6000612d948261297f565b9050919050565b612da481612d89565b82525050565b6000602082019050612dbf6000830184612d9b565b92915050565b7f4e487b7100000000000000000000000000000000000000000000000000000000600052601160045260246000fd5b6000612dff82612a15565b9150612e0a83612a15565b9250828201905080821115612e2257612e21612dc5565b5b92915050565b600082825260208201905092915050565b7f5374696c6c206c6f636b65640000000000000000000000000000000000000000600082015250565b6000612e6f600c83612e28565b9150612e7a82612e39565b602082019050919050565b60006020820190508181036000830152612e9e81612e62565b9050919050565b7f4e6f7420796f7572204e46540000000000000000000000000000000000000000600082015250565b6000612edb600c83612e28565b9150612ee682612ea5565b602082019050919050565b60006020820190508181036000830152612f0a81612ece565b9050919050565b6000612f1c82612a15565b9150612f2783612a15565b9250828203905081811115612f3f57612f3e612dc5565b5b92915050565b6000612f5082612a15565b9150612f5b83612a15565b9250828202612f6981612a15565b91508282048414831517612f8057612f7f612dc5565b5b5092915050565b7f4e487b7100000000000000000000000000000000000000000000000000000000600052601260045260246000fd5b6000612fc182612a15565b9150612fcc83612a15565b925082612fdc57612fdb612f87565b5b828204905092915050565b7f4e465420616c7265616479207374616b65640000000000000000000000000000600082015250565b600061301d601283612e28565b915061302882612fe7565b602082019050919050565b6000602082019050818103600083015261304c81613010565b9050919050565b600061305e82612a15565b91507fffffffffffffffffffffffffffffffffffffffffffffffffffffffffffffffff82036130905761308f612dc5565b5b600182019050919050565b60006060820190506130b06000830186612c2e565b6130bd6020830185612c2e565b6130ca6040830184612bbb565b949350505050565b7f4f776e61626c653a206e6577206f776e657220697320746865207a65726f206160008201527f6464726573730000000000000000000000000000000000000000000000000000602082015250565b600061312e602683612e28565b9150613139826130d2565b604082019050919050565b6000602082019050818103600083015261315d81613121565b9050919050565b7f5265656e7472616e637947756172643a207265656e7472616e742063616c6c00600082015250565b600061319a601f83612e28565b91506131a582613164565b602082019050919050565b600060208201905081810360008301526131c98161318d565b9050919050565b7f5061757361626c653a2070617573656400000000000000000000000000000000600082015250565b6000613206601083612e28565b9150613211826131d0565b602082019050919050565b60006020820190508181036000830152613235816131f9565b9050919050565b7f4e487b7100000000000000000000000000000000000000000000000000000000600052603260045260246000fd5b7f4e487b7100000000000000000000000000000000000000000000000000000000600052603160045260246000fd5b60006132a582612a15565b9150600082036132b8576132b7612dc5565b5b600182039050919050565b60006040820190506132d86000830185612c2e565b6132e56020830184612bbb565b9392505050565b7f4f776e61626c653a2063616c6c6572206973206e6f7420746865206f776e6572600082015250565b6000613322602083612e28565b915061332d826132ec565b602082019050919050565b6000602082019050818103600083015261335181613315565b9050919050565b61336181612c58565b811461336c57600080fd5b50565b60008151905061337e81613358565b92915050565b60006020828403121561339a576133996129cd565b5b60006133a88482850161336f565b91505092915050565b7f5361666545524332303a204552433230206f7065726174696f6e20646964206e60008201527f6f74207375636365656400000000000000000000000000000000000000000000602082015250565b600061340d602a83612e28565b9150613418826133b1565b604082019050919050565b6000602082019050818103600083015261343c81613400565b9050919050565b7f5061757361626c653a206e6f7420706175736564000000000000000000000000600082015250565b6000613479601483612e28565b915061348482613443565b602082019050919050565b600060208201905081810360008301526134a88161346c565b9050919050565b7f416464726573733a20696e73756666696369656e742062616c616e636520666f60008201527f722063616c6c0000000000000000000000000000000000000000000000000000602082015250565b600061350b602683612e28565b9150613516826134af565b604082019050919050565b6000602082019050818103600083015261353a816134fe565b9050919050565b600081519050919050565b600081905092915050565b60005b8381101561357557808201518184015260208101905061355a565b60008484015250505050565b600061358c82613541565b613596818561354c565b93506135a6818560208601613557565b80840191505092915050565b60006135be8284613581565b915081905092915050565b7f416464726573733a2063616c6c20746f206e6f6e2d636f6e7472616374000000600082015250565b60006135ff601d83612e28565b915061360a826135c9565b602082019050919050565b6000602082019050818103600083015261362e816135f2565b9050919050565b600081519050919050565b6000601f19601f8301169050919050565b600061365c82613635565b6136668185612e28565b9350613676818560208601613557565b61367f81613640565b840191505092915050565b600060208201905081810360008301526136a48184613651565b90509291505056fea2646970667358221220f6c28f3a0ceff8b931c2a1fa070ba741ecde2e9a67287c9795b0392799c10c5b64736f6c63430008130033",
  "linkReferences": {},
  "deployedLinkReferences": {}
}