{
  "_format": "hh-sol-artifact-1",
  "contractName": "My_Staking_Contract",
  "sourceName": "contracts/My_Staking_Contract.sol",
  "abi": [
    {
      "inputs": [
        {
          "internalType": "address",
          "name": "_stakingNFT",
          "type": "address"
        },
        {
          "internalType": "address",
          "name": "_rewardToken",
          "type": "address"
        }
      ],
      "stateMutability": "nonpayable",
      "type": "constructor"
    },
    {
      "anonymous": false,
      "inputs": [
        {
          "indexed": true,
          "internalType": "address",
          "name": "previousOwner",
          "type": "address"
        },
        {
          "indexed": true,
          "internalType": "address",
          "name": "newOwner",
          "type": "address"
        }
      ],
      "name": "OwnershipTransferred",
      "type": "event"
    },
    {
      "anonymous": false,
      "inputs": [
        {
          "indexed": false,
          "internalType": "address",
          "name": "account",
          "type": "address"
        }
      ],
      "name": "Paused",
      "type": "event"
    },
    {
      "anonymous": false,
      "inputs": [
        {
          "indexed": false,
          "internalType": "uint256",
          "name": "newRate",
          "type": "uint256"
        }
      ],
      "name": "RewardRateUpdated",
      "type": "event"
    },
    {
      "anonymous": false,
      "inputs": [
        {
          "indexed": true,
          "internalType": "address",
          "name": "user",
          "type": "address"
        },
        {
          "indexed": false,
          "internalType": "uint256",
          "name": "amount",
          "type": "uint256"
        }
      ],
      "name": "RewardsClaimed",
      "type": "event"
    },
    {
      "anonymous": false,
      "inputs": [
        {
          "indexed": true,
          "internalType": "address",
          "name": "user",
          "type": "address"
        },
        {
          "indexed": false,
          "internalType": "uint256",
          "name": "tokenId",
          "type": "uint256"
        }
      ],
      "name": "Staked",
      "type": "event"
    },
    {
      "anonymous": false,
      "inputs": [
        {
          "indexed": false,
          "internalType": "uint256",
          "name": "newDuration",
          "type": "uint256"
        }
      ],
      "name": "StakingDurationUpdated",
      "type": "event"
    },
    {
      "anonymous": false,
      "inputs": [
        {
          "indexed": false,
          "internalType": "address",
          "name": "account",
          "type": "address"
        }
      ],
      "name": "Unpaused",
      "type": "event"
    },
    {
      "anonymous": false,
      "inputs": [
        {
          "indexed": true,
          "internalType": "address",
          "name": "user",
          "type": "address"
        },
        {
          "indexed": false,
          "internalType": "uint256",
          "name": "tokenId",
          "type": "uint256"
        }
      ],
      "name": "Withdrawn",
      "type": "event"
    },
    {
      "inputs": [
        {
          "internalType": "address",
          "name": "account",
          "type": "address"
        }
      ],
      "name": "calculateRewards",
      "outputs": [
        {
          "internalType": "uint256",
          "name": "",
          "type": "uint256"
        }
      ],
      "stateMutability": "view",
      "type": "function"
    },
    {
      "inputs": [],
      "name": "claimRewards",
      "outputs": [],
      "stateMutability": "nonpayable",
      "type": "function"
    },
    {
      "inputs": [],
      "name": "coolTime",
      "outputs": [
        {
          "internalType": "uint256",
          "name": "",
          "type": "uint256"
        }
      ],
      "stateMutability": "view",
      "type": "function"
    },
    {
      "inputs": [
        {
          "internalType": "uint256",
          "name": "tokenId",
          "type": "uint256"
        }
      ],
      "name": "emergencyWithdraw",
      "outputs": [],
      "stateMutability": "nonpayable",
      "type": "function"
    },
    {
      "inputs": [
        {
          "internalType": "uint256",
          "name": "amount",
          "type": "uint256"
        }
      ],
      "name": "fundRewards",
      "outputs": [],
      "stateMutability": "nonpayable",
      "type": "function"
    },
    {
      "inputs": [
        {
          "internalType": "address",
          "name": "user",
          "type": "address"
        }
      ],
      "name": "getStakedTokenIds",
      "outputs": [
        {
          "internalType": "uint256[]",
          "name": "",
          "type": "uint256[]"
        }
      ],
      "stateMutability": "view",
      "type": "function"
    },
    {
      "inputs": [
        {
          "internalType": "address",
          "name": "",
          "type": "address"
        },
        {
          "internalType": "address",
          "name": "",
          "type": "address"
        },
        {
          "internalType": "uint256",
          "name": "",
          "type": "uint256"
        },
        {
          "internalType": "bytes",
          "name": "",
          "type": "bytes"
        }
      ],
      "name": "onERC721Received",
      "outputs": [
        {
          "internalType": "bytes4",
          "name": "",
          "type": "bytes4"
        }
      ],
      "stateMutability": "pure",
      "type": "function"
    },
    {
      "inputs": [],
      "name": "owner",
      "outputs": [
        {
          "internalType": "address",
          "name": "",
          "type": "address"
        }
      ],
      "stateMutability": "view",
      "type": "function"
    },
    {
      "inputs": [],
      "name": "pause",
      "outputs": [],
      "stateMutability": "nonpayable",
      "type": "function"
    },
    {
      "inputs": [],
      "name": "paused",
      "outputs": [
        {
          "internalType": "bool",
          "name": "",
          "type": "bool"
        }
      ],
      "stateMutability": "view",
      "type": "function"
    },
    {
      "inputs": [],
      "name": "renounceOwnership",
      "outputs": [],
      "stateMutability": "nonpayable",
      "type": "function"
    },
    {
      "inputs": [],
      "name": "rewardRate",
      "outputs": [
        {
          "internalType": "uint256",
          "name": "",
          "type": "uint256"
        }
      ],
      "stateMutability": "view",
      "type": "function"
    },
    {
      "inputs": [],
      "name": "rewardToken",
      "outputs": [
        {
          "internalType": "contract IERC20",
          "name": "",
          "type": "address"
        }
      ],
      "stateMutability": "view",
      "type": "function"
    },
    {
      "inputs": [
        {
          "internalType": "uint256",
          "name": "_coolTime",
          "type": "uint256"
        }
      ],
      "name": "setCoolTime",
      "outputs": [],
      "stateMutability": "nonpayable",
      "type": "function"
    },
    {
      "inputs": [
        {
          "internalType": "uint256",
          "name": "_rewardRate",
          "type": "uint256"
        }
      ],
      "name": "setRewardRate",
      "outputs": [],
      "stateMutability": "nonpayable",
      "type": "function"
    },
    {
      "inputs": [
        {
          "internalType": "uint256",
          "name": "tokenId",
          "type": "uint256"
        }
      ],
      "name": "stake",
      "outputs": [],
      "stateMutability": "nonpayable",
      "type": "function"
    },
    {
      "inputs": [],
      "name": "stakingNFT",
      "outputs": [
        {
          "internalType": "contract IERC721",
          "name": "",
          "type": "address"
        }
      ],
      "stateMutability": "view",
      "type": "function"
    },
    {
      "inputs": [
        {
          "internalType": "uint256",
          "name": "",
          "type": "uint256"
        }
      ],
      "name": "tokenOwner",
      "outputs": [
        {
          "internalType": "address",
          "name": "",
          "type": "address"
        }
      ],
      "stateMutability": "view",
      "type": "function"
    },
    {
      "inputs": [],
      "name": "totalStaked",
      "outputs": [
        {
          "internalType": "uint256",
          "name": "",
          "type": "uint256"
        }
      ],
      "stateMutability": "view",
      "type": "function"
    },
    {
      "inputs": [
        {
          "internalType": "address",
          "name": "newOwner",
          "type": "address"
        }
      ],
      "name": "transferOwnership",
      "outputs": [],
      "stateMutability": "nonpayable",
      "type": "function"
    },
    {
      "inputs": [],
      "name": "unpause",
      "outputs": [],
      "stateMutability": "nonpayable",
      "type": "function"
    },
    {
      "inputs": [
        {
          "internalType": "address",
          "name": "",
          "type": "address"
        }
      ],
      "name": "userInfo",
      "outputs": [
        {
          "internalType": "uint256",
          "name": "rewards",
          "type": "uint256"
        },
        {
          "internalType": "uint256",
          "name": "lastClaimTime",
          "type": "uint256"
        },
        {
          "internalType": "uint256",
          "name": "stakedAt",
          "type": "uint256"
        }
      ],
      "stateMutability": "view",
      "type": "function"
    },
    {
      "inputs": [
        {
          "internalType": "uint256",
          "name": "tokenId",
          "type": "uint256"
        }
      ],
      "name": "withdraw",
      "outputs": [],
      "stateMutability": "nonpayable",
      "type": "function"
    },
    {
      "inputs": [
        {
          "internalType": "uint256",
          "name": "tokenId",
          "type": "uint256"
        }
      ],
      "name": "withdrawAndClaim",
      "outputs": [],
      "stateMutability": "nonpayable",
      "type": "function"
    }
  ],
  "bytecode": "0x608060405260786007556604ef1b32aa00006008553480156200002157600080fd5b506040516200176c3803806200176c8339810160408190526200004491620001be565b6200004f3362000151565b600180556002805460ff191690556001600160a01b038216620000b95760405162461bcd60e51b815260206004820152601560248201527f496e76616c6964207374616b696e6720746f6b656e000000000000000000000060448201526064015b60405180910390fd5b6001600160a01b038116620001115760405162461bcd60e51b815260206004820152601460248201527f496e76616c69642072657761726420746f6b656e0000000000000000000000006044820152606401620000b0565b600380546001600160a01b039384166001600160a01b0319909116179055600280549190921661010002610100600160a81b0319909116179055620001f6565b600080546001600160a01b038381166001600160a01b0319831681178455604051919092169283917f8be0079c531659141344cd1fd0a4f28419497f9722a3daafe3b4186f6b6457e09190a35050565b80516001600160a01b0381168114620001b957600080fd5b919050565b60008060408385031215620001d257600080fd5b620001dd83620001a1565b9150620001ed60208401620001a1565b90509250929050565b61156680620002066000396000f3fe608060405234801561001057600080fd5b50600436106101985760003560e01c8063715018a6116100e35780639e447fc61161008c578063f195aabd11610066578063f195aabd146103c3578063f2fde38b146103d6578063f7c618c1146103e957600080fd5b80639e447fc614610394578063a4493b47146103a7578063a694fc3a146103b057600080fd5b80638456cb59116100bd5780638456cb59146103685780638da5cb5b1461037057806393707a191461038157600080fd5b8063715018a61461034e5780637b0a47ee14610356578063817b1cd21461035f57600080fd5b80633f4ba83a116101455780635c975abb1161011f5780635c975abb146102f757806364ab86751461030d5780637047bc521461032e57600080fd5b80633f4ba83a146102c9578063448a1047146102d15780635312ea8e146102e457600080fd5b80631caaa487116101765780631caaa487146102835780632e1a7d4d146102ac578063372500ab146102c157600080fd5b80630ce71e321461019d578063150b7a02146101cd5780631959a00214610236575b600080fd5b6003546101b0906001600160a01b031681565b6040516001600160a01b0390911681526020015b60405180910390f35b6102056101db3660046112cc565b7f150b7a020000000000000000000000000000000000000000000000000000000095945050505050565b6040517fffffffff0000000000000000000000000000000000000000000000000000000090911681526020016101c4565b610268610244366004611367565b60046020526000908152604090206001810154600282015460039092015490919083565b604080519384526020840192909252908201526060016101c4565b6101b0610291366004611389565b6005602052600090815260409020546001600160a01b031681565b6102bf6102ba366004611389565b610401565b005b6102bf6104d4565b6102bf6105a8565b6102bf6102df366004611389565b6105b8565b6102bf6102f2366004611389565b6105c9565b60025460ff1660405190151581526020016101c4565b61032061031b366004611367565b61065d565b6040519081526020016101c4565b61034161033c366004611367565b610754565b6040516101c491906113a2565b6102bf6107c0565b61032060085481565b61032060065481565b6102bf6107d2565b6000546001600160a01b03166101b0565b6102bf61038f366004611389565b6107e2565b6102bf6103a2366004611389565b610807565b61032060075481565b6102bf6103be366004611389565b61084d565b6102bf6103d1366004611389565b610a49565b6102bf6103e4366004611367565b610a8c565b6002546101b09061010090046001600160a01b031681565b610409610b19565b610411610b72565b338015610449576104218161065d565b6001600160a01b03821660009081526004602052604090206001810191909155426002909101555b6007543360009081526004602052604090206003015461046991906113fc565b4210156104bd5760405162461bcd60e51b815260206004820152600c60248201527f5374696c6c206c6f636b6564000000000000000000000000000000000000000060448201526064015b60405180910390fd5b6104c73383610bc5565b506104d160018055565b50565b6104dc610b19565b6104e4610b72565b33801561051c576104f48161065d565b6001600160a01b03821660009081526004602052604090206001810191909155426002909101555b33600090815260046020526040902060010154801561059b5733600081815260046020526040812060010155600254610565916101009091046001600160a01b03169083610d84565b60405181815233907ffc30cddea38e2bf4d6ea7d3f9ed3b6ad7f176419f4963bd81318067a4aee73fe9060200160405180910390a25b50506105a660018055565b565b6105b0610e32565b6105a6610e8c565b6105c181610401565b6104d16104d4565b6105d1610b19565b6000818152600560205260409020546001600160a01b031633146106375760405162461bcd60e51b815260206004820152600c60248201527f4e6f7420796f7572204e4654000000000000000000000000000000000000000060448201526064016104b4565b6106413382610bc5565b336000908152600460205260408120600101556104d160018055565b6001600160a01b03811660009081526004602090815260408083208151815460a094810282018501909352608081018381528594919384928491908401828280156106c757602002820191906000526020600020905b8154815260200190600101908083116106b3575b50505091835250506001820154602082015260028201546040820152600390910154606090910152805151909150600081900361070957506020015192915050565b600082604001514261071b9190611415565b90506000816008548461072e9190611428565b6107389190611428565b905083602001518161074a91906113fc565b9695505050505050565b6001600160a01b0381166000908152600460209081526040918290208054835181840281018401909452808452606093928301828280156107b457602002820191906000526020600020905b8154815260200190600101908083116107a0575b50505050509050919050565b6107c8610e32565b6105a66000610ede565b6107da610e32565b6105a6610f3b565b6107ea610e32565b6002546104d19061010090046001600160a01b0316333084610f78565b61080f610e32565b600060088290556040518281527f41d466ebd06fb97e7786086ac8b69b7eb7da798592036251291d34e9791cde019060200160405180910390a15050565b610855610b19565b61085d610b72565b3380156108955761086d8161065d565b6001600160a01b03821660009081526004602052604090206001810191909155426002909101555b6000828152600560205260409020546001600160a01b0316156108fa5760405162461bcd60e51b815260206004820152601260248201527f4e465420616c7265616479207374616b6564000000000000000000000000000060448201526064016104b4565b33600081815260046020908152604080832080546001810182559084528284200186905585835260059091528120805473ffffffffffffffffffffffffffffffffffffffff191690921790915560068054916109558361143f565b909155505033600090815260046020526040812060020154900361098a57336000908152600460205260409020426002909101555b3360008181526004602081905260409182902042600391820155549151632142170760e11b815290810192909252306024830152604482018490526001600160a01b0316906342842e0e90606401600060405180830381600087803b1580156109f257600080fd5b505af1158015610a06573d6000803e3d6000fd5b50506040518481523392507f9e71bc8eea02a63969f509818f2dafb9254532904319f9dbda79b67bd34a5f3d915060200160405180910390a2506104d160018055565b610a51610e32565b60078190556040518181527f8c7ba3004ed566ca0f3da73aaa1e3470028922c65772882a9b89612e44a72dcf9060200160405180910390a150565b610a94610e32565b6001600160a01b038116610b105760405162461bcd60e51b815260206004820152602660248201527f4f776e61626c653a206e6577206f776e657220697320746865207a65726f206160448201527f646472657373000000000000000000000000000000000000000000000000000060648201526084016104b4565b6104d181610ede565b600260015403610b6b5760405162461bcd60e51b815260206004820152601f60248201527f5265656e7472616e637947756172643a207265656e7472616e742063616c6c0060448201526064016104b4565b6002600155565b60025460ff16156105a65760405162461bcd60e51b815260206004820152601060248201527f5061757361626c653a207061757365640000000000000000000000000000000060448201526064016104b4565b6001600160a01b0382166000908152600460205260408120905b8154811015610c935782828281548110610bfb57610bfb611458565b906000526020600020015403610c815781548290610c1b90600190611415565b81548110610c2b57610c2b611458565b9060005260206000200154828281548110610c4857610c48611458565b906000526020600020018190555081805480610c6657610c6661146e565b60019003818190600052602060002001600090559055610c93565b80610c8b8161143f565b915050610bdf565b506000828152600560205260408120805473ffffffffffffffffffffffffffffffffffffffff191690556006805491610ccb83611484565b9091555050600354604051632142170760e11b81523060048201526001600160a01b03858116602483015260448201859052909116906342842e0e90606401600060405180830381600087803b158015610d2457600080fd5b505af1158015610d38573d6000803e3d6000fd5b50505050826001600160a01b03167f7084f5476618d8e60b11ef0d7d3f06914655adb8793e28ff7f018d4c76d505d583604051610d7791815260200190565b60405180910390a2505050565b6040516001600160a01b038316602482015260448101829052610e2d9084907fa9059cbb00000000000000000000000000000000000000000000000000000000906064015b60408051601f198184030181529190526020810180517bffffffffffffffffffffffffffffffffffffffffffffffffffffffff167fffffffff0000000000000000000000000000000000000000000000000000000090931692909217909152610fcf565b505050565b6000546001600160a01b031633146105a65760405162461bcd60e51b815260206004820181905260248201527f4f776e61626c653a2063616c6c6572206973206e6f7420746865206f776e657260448201526064016104b4565b610e946110b7565b6002805460ff191690557f5db9ee0a495bf2e6ff9c91a7834c1ba4fdd244a5e8aa4e537bd38aeae4b073aa335b6040516001600160a01b03909116815260200160405180910390a1565b600080546001600160a01b0383811673ffffffffffffffffffffffffffffffffffffffff19831681178455604051919092169283917f8be0079c531659141344cd1fd0a4f28419497f9722a3daafe3b4186f6b6457e09190a35050565b610f43610b72565b6002805460ff191660011790557f62e78cea01bee320cd4e420270b5ea74000d11b0c9f74754ebdbfc544b05a258610ec13390565b6040516001600160a01b0380851660248301528316604482015260648101829052610fc99085907f23b872dd0000000000000000000000000000000000000000000000000000000090608401610dc9565b50505050565b6000611024826040518060400160405280602081526020017f5361666545524332303a206c6f772d6c6576656c2063616c6c206661696c6564815250856001600160a01b03166111099092919063ffffffff16565b9050805160001480611045575080806020019051810190611045919061149b565b610e2d5760405162461bcd60e51b815260206004820152602a60248201527f5361666545524332303a204552433230206f7065726174696f6e20646964206e60448201527f6f7420737563636565640000000000000000000000000000000000000000000060648201526084016104b4565b60025460ff166105a65760405162461bcd60e51b815260206004820152601460248201527f5061757361626c653a206e6f742070617573656400000000000000000000000060448201526064016104b4565b60606111188484600085611120565b949350505050565b6060824710156111985760405162461bcd60e51b815260206004820152602660248201527f416464726573733a20696e73756666696369656e742062616c616e636520666f60448201527f722063616c6c000000000000000000000000000000000000000000000000000060648201526084016104b4565b600080866001600160a01b031685876040516111b491906114e1565b60006040518083038185875af1925050503d80600081146111f1576040519150601f19603f3d011682016040523d82523d6000602084013e6111f6565b606091505b509150915061120787838387611212565b979650505050505050565b6060831561128157825160000361127a576001600160a01b0385163b61127a5760405162461bcd60e51b815260206004820152601d60248201527f416464726573733a2063616c6c20746f206e6f6e2d636f6e747261637400000060448201526064016104b4565b5081611118565b61111883838151156112965781518083602001fd5b8060405162461bcd60e51b81526004016104b491906114fd565b80356001600160a01b03811681146112c757600080fd5b919050565b6000806000806000608086880312156112e457600080fd5b6112ed866112b0565b94506112fb602087016112b0565b935060408601359250606086013567ffffffffffffffff8082111561131f57600080fd5b818801915088601f83011261133357600080fd5b81358181111561134257600080fd5b89602082850101111561135457600080fd5b9699959850939650602001949392505050565b60006020828403121561137957600080fd5b611382826112b0565b9392505050565b60006020828403121561139b57600080fd5b5035919050565b6020808252825182820181905260009190848201906040850190845b818110156113da578351835292840192918401916001016113be565b50909695505050505050565b634e487b7160e01b600052601160045260246000fd5b8082018082111561140f5761140f6113e6565b92915050565b8181038181111561140f5761140f6113e6565b808202811582820484141761140f5761140f6113e6565b600060018201611451576114516113e6565b5060010190565b634e487b7160e01b600052603260045260246000fd5b634e487b7160e01b600052603160045260246000fd5b600081611493576114936113e6565b506000190190565b6000602082840312156114ad57600080fd5b8151801515811461138257600080fd5b60005b838110156114d85781810151838201526020016114c0565b50506000910152565b600082516114f38184602087016114bd565b9190910192915050565b602081526000825180602084015261151c8160408501602087016114bd565b601f01601f1916919091016040019291505056fea2646970667358221220862b370d17e9c014d13f1131ecc655f9d55dc80531e8a18d41392e1e7b49bcef64736f6c63430008130033",
  "linkReferences": {},
  "deployedLinkReferences": {}
}