{
  "_format": "hh-sol-artifact-1",
  "contractName": "My_Staking_Contract",
  "sourceName": "contracts/My_Staking_Contract.sol",
  "abi": [
    {
      "inputs": [
        {
          "internalType": "address",
          "name": "_stakingNFT",
          "type": "address"
        },
        {
          "internalType": "address",
          "name": "_rewardToken",
          "type": "address"
        },
        {
          "internalType": "uint256",
          "name": "_coolingTime",
          "type": "uint256"
        },
        {
          "internalType": "uint256",
          "name": "_rewardRate",
          "type": "uint256"
        }
      ],
      "stateMutability": "nonpayable",
      "type": "constructor"
    },
    {
      "anonymous": false,
      "inputs": [
        {
          "indexed": true,
          "internalType": "address",
          "name": "previousOwner",
          "type": "address"
        },
        {
          "indexed": true,
          "internalType": "address",
          "name": "newOwner",
          "type": "address"
        }
      ],
      "name": "OwnershipTransferred",
      "type": "event"
    },
    {
      "anonymous": false,
      "inputs": [
        {
          "indexed": false,
          "internalType": "address",
          "name": "account",
          "type": "address"
        }
      ],
      "name": "Paused",
      "type": "event"
    },
    {
      "anonymous": false,
      "inputs": [
        {
          "indexed": false,
          "internalType": "uint256",
          "name": "newRate",
          "type": "uint256"
        }
      ],
      "name": "RewardRateUpdated",
      "type": "event"
    },
    {
      "anonymous": false,
      "inputs": [
        {
          "indexed": true,
          "internalType": "address",
          "name": "user",
          "type": "address"
        },
        {
          "indexed": false,
          "internalType": "uint256",
          "name": "amount",
          "type": "uint256"
        }
      ],
      "name": "RewardsClaimed",
      "type": "event"
    },
    {
      "anonymous": false,
      "inputs": [
        {
          "indexed": true,
          "internalType": "address",
          "name": "user",
          "type": "address"
        },
        {
          "indexed": false,
          "internalType": "uint256",
          "name": "tokenId",
          "type": "uint256"
        }
      ],
      "name": "Staked",
      "type": "event"
    },
    {
      "anonymous": false,
      "inputs": [
        {
          "indexed": false,
          "internalType": "uint256",
          "name": "newDuration",
          "type": "uint256"
        }
      ],
      "name": "StakingDurationUpdated",
      "type": "event"
    },
    {
      "anonymous": false,
      "inputs": [
        {
          "indexed": false,
          "internalType": "address",
          "name": "account",
          "type": "address"
        }
      ],
      "name": "Unpaused",
      "type": "event"
    },
    {
      "anonymous": false,
      "inputs": [
        {
          "indexed": true,
          "internalType": "address",
          "name": "user",
          "type": "address"
        },
        {
          "indexed": false,
          "internalType": "uint256",
          "name": "tokenId",
          "type": "uint256"
        }
      ],
      "name": "Withdrawn",
      "type": "event"
    },
    {
      "inputs": [
        {
          "internalType": "address",
          "name": "account",
          "type": "address"
        }
      ],
      "name": "calculateRewards",
      "outputs": [
        {
          "internalType": "uint256",
          "name": "",
          "type": "uint256"
        }
      ],
      "stateMutability": "view",
      "type": "function"
    },
    {
      "inputs": [],
      "name": "claimRewards",
      "outputs": [],
      "stateMutability": "nonpayable",
      "type": "function"
    },
    {
      "inputs": [],
      "name": "coolingTime",
      "outputs": [
        {
          "internalType": "uint256",
          "name": "",
          "type": "uint256"
        }
      ],
      "stateMutability": "view",
      "type": "function"
    },
    {
      "inputs": [
        {
          "internalType": "uint256",
          "name": "tokenId",
          "type": "uint256"
        }
      ],
      "name": "emergencyWithdraw",
      "outputs": [],
      "stateMutability": "nonpayable",
      "type": "function"
    },
    {
      "inputs": [],
      "name": "emergencyWithdrawAll",
      "outputs": [],
      "stateMutability": "nonpayable",
      "type": "function"
    },
    {
      "inputs": [
        {
          "internalType": "uint256",
          "name": "amount",
          "type": "uint256"
        }
      ],
      "name": "fundRewards",
      "outputs": [],
      "stateMutability": "nonpayable",
      "type": "function"
    },
    {
      "inputs": [],
      "name": "owner",
      "outputs": [
        {
          "internalType": "address",
          "name": "",
          "type": "address"
        }
      ],
      "stateMutability": "view",
      "type": "function"
    },
    {
      "inputs": [],
      "name": "pause",
      "outputs": [],
      "stateMutability": "nonpayable",
      "type": "function"
    },
    {
      "inputs": [],
      "name": "paused",
      "outputs": [
        {
          "internalType": "bool",
          "name": "",
          "type": "bool"
        }
      ],
      "stateMutability": "view",
      "type": "function"
    },
    {
      "inputs": [],
      "name": "renounceOwnership",
      "outputs": [],
      "stateMutability": "nonpayable",
      "type": "function"
    },
    {
      "inputs": [],
      "name": "rewardRate",
      "outputs": [
        {
          "internalType": "uint256",
          "name": "",
          "type": "uint256"
        }
      ],
      "stateMutability": "view",
      "type": "function"
    },
    {
      "inputs": [],
      "name": "rewardToken",
      "outputs": [
        {
          "internalType": "contract IERC20",
          "name": "",
          "type": "address"
        }
      ],
      "stateMutability": "view",
      "type": "function"
    },
    {
      "inputs": [
        {
          "internalType": "uint256",
          "name": "_duration",
          "type": "uint256"
        }
      ],
      "name": "setCoolingTime",
      "outputs": [],
      "stateMutability": "nonpayable",
      "type": "function"
    },
    {
      "inputs": [
        {
          "internalType": "uint256",
          "name": "_rewardRate",
          "type": "uint256"
        }
      ],
      "name": "setRewardRate",
      "outputs": [],
      "stateMutability": "nonpayable",
      "type": "function"
    },
    {
      "inputs": [
        {
          "internalType": "uint256",
          "name": "tokenId",
          "type": "uint256"
        }
      ],
      "name": "stake",
      "outputs": [],
      "stateMutability": "nonpayable",
      "type": "function"
    },
    {
      "inputs": [],
      "name": "stakingNFT",
      "outputs": [
        {
          "internalType": "contract IERC721",
          "name": "",
          "type": "address"
        }
      ],
      "stateMutability": "view",
      "type": "function"
    },
    {
      "inputs": [
        {
          "internalType": "uint256",
          "name": "",
          "type": "uint256"
        }
      ],
      "name": "tokenOwner",
      "outputs": [
        {
          "internalType": "address",
          "name": "",
          "type": "address"
        }
      ],
      "stateMutability": "view",
      "type": "function"
    },
    {
      "inputs": [],
      "name": "totalStaked",
      "outputs": [
        {
          "internalType": "uint256",
          "name": "",
          "type": "uint256"
        }
      ],
      "stateMutability": "view",
      "type": "function"
    },
    {
      "inputs": [
        {
          "internalType": "address",
          "name": "newOwner",
          "type": "address"
        }
      ],
      "name": "transferOwnership",
      "outputs": [],
      "stateMutability": "nonpayable",
      "type": "function"
    },
    {
      "inputs": [],
      "name": "unpause",
      "outputs": [],
      "stateMutability": "nonpayable",
      "type": "function"
    },
    {
      "inputs": [
        {
          "internalType": "address",
          "name": "",
          "type": "address"
        }
      ],
      "name": "userInfo",
      "outputs": [
        {
          "internalType": "uint256",
          "name": "rewards",
          "type": "uint256"
        },
        {
          "internalType": "uint256",
          "name": "lastClaimTime",
          "type": "uint256"
        },
        {
          "internalType": "uint256",
          "name": "stakedAt",
          "type": "uint256"
        }
      ],
      "stateMutability": "view",
      "type": "function"
    },
    {
      "inputs": [
        {
          "internalType": "uint256",
          "name": "tokenId",
          "type": "uint256"
        }
      ],
      "name": "withdraw",
      "outputs": [],
      "stateMutability": "nonpayable",
      "type": "function"
    },
    {
      "inputs": [],
      "name": "withdrawAll",
      "outputs": [],
      "stateMutability": "nonpayable",
      "type": "function"
    },
    {
      "inputs": [],
      "name": "withdrawAllAndClaim",
      "outputs": [],
      "stateMutability": "nonpayable",
      "type": "function"
    },
    {
      "inputs": [
        {
          "internalType": "uint256",
          "name": "tokenId",
          "type": "uint256"
        }
      ],
      "name": "withdrawAndClaim",
      "outputs": [],
      "stateMutability": "nonpayable",
      "type": "function"
    }
  ],
  "bytecode": "0x60806040523480156200001157600080fd5b5060405162001a3538038062001a358339810160408190526200003491620001b7565b6200003f336200014a565b600180556002805460ff191690556001600160a01b038416620000a95760405162461bcd60e51b815260206004820152601560248201527f496e76616c6964207374616b696e6720746f6b656e000000000000000000000060448201526064015b60405180910390fd5b6001600160a01b038316620001015760405162461bcd60e51b815260206004820152601460248201527f496e76616c69642072657761726420746f6b656e0000000000000000000000006044820152606401620000a0565b600380546001600160a01b0319166001600160a01b0395861617905560028054610100600160a81b031916610100949095169390930293909317909155600755600855620001ff565b600080546001600160a01b038381166001600160a01b0319831681178455604051919092169283917f8be0079c531659141344cd1fd0a4f28419497f9722a3daafe3b4186f6b6457e09190a35050565b80516001600160a01b0381168114620001b257600080fd5b919050565b60008060008060808587031215620001ce57600080fd5b620001d9856200019a565b9350620001e9602086016200019a565b6040860151606090960151949790965092505050565b611826806200020f6000396000f3fe608060405234801561001057600080fd5b50600436106101a25760003560e01c8063715018a6116100ee57806393707a1911610097578063da10b68211610071578063da10b6821461035f578063dd19171914610367578063f2fde38b1461036f578063f7c618c11461038257600080fd5b806393707a19146103265780639e447fc614610339578063a694fc3a1461034c57600080fd5b80638456cb59116100c85780638456cb5914610305578063853828b61461030d5780638da5cb5b1461031557600080fd5b8063715018a6146102eb5780637b0a47ee146102f3578063817b1cd2146102fc57600080fd5b80633f4ba83a116101505780635312ea8e1161012a5780635312ea8e146102af5780635c975abb146102c257806364ab8675146102d857600080fd5b80633f4ba83a1461027d578063439c960d14610285578063448a10471461029c57600080fd5b80631caaa487116101815780631caaa487146102395780632e1a7d4d14610262578063372500ab1461027557600080fd5b806225c57b146101a75780630ce71e32146101bc5780631959a002146101ec575b600080fd5b6101ba6101b536600461163b565b61039a565b005b6003546101cf906001600160a01b031681565b6040516001600160a01b0390911681526020015b60405180910390f35b61021e6101fa366004611654565b60046020526000908152604090206001810154600282015460039092015490919083565b604080519384526020840192909252908201526060016101e3565b6101cf61024736600461163b565b6005602052600090815260409020546001600160a01b031681565b6101ba61027036600461163b565b6103dd565b6101ba6104f4565b6101ba6105c8565b61028e60075481565b6040519081526020016101e3565b6101ba6102aa36600461163b565b6105d8565b6101ba6102bd36600461163b565b6105e9565b60025460ff1660405190151581526020016101e3565b61028e6102e6366004611654565b61066c565b6101ba610776565b61028e60085481565b61028e60065481565b6101ba610788565b6101ba610798565b6000546001600160a01b03166101cf565b6101ba61033436600461163b565b61094e565b6101ba61034736600461163b565b610973565b6101ba61035a36600461163b565b6109b9565b6101ba610bb5565b6101ba610bc5565b6101ba61037d366004611654565b610de5565b6002546101cf9061010090046001600160a01b031681565b6103a2610e72565b60078190556040518181527f8c7ba3004ed566ca0f3da73aaa1e3470028922c65772882a9b89612e44a72dcf9060200160405180910390a150565b6103e5610ecc565b6103ed610f25565b338015610425576103fd8161066c565b6001600160a01b03821660009081526004602052604090206001810191909155426002909101555b6000828152600560205260409020546001600160a01b0316331461047f5760405162461bcd60e51b815260206004820152600c60248201526b139bdd081e5bdd5c8813919560a21b60448201526064015b60405180910390fd5b6007543360009081526004602052604090206003015461049f919061169a565b4210156104dd5760405162461bcd60e51b815260206004820152600c60248201526b14dd1a5b1b081b1bd8dad95960a21b6044820152606401610476565b6104e73383610f78565b506104f160018055565b50565b6104fc610ecc565b610504610f25565b33801561053c576105148161066c565b6001600160a01b03821660009081526004602052604090206001810191909155426002909101555b3360009081526004602052604090206001015480156105bb5733600081815260046020526040812060010155600254610585916101009091046001600160a01b03169083611137565b60405181815233907ffc30cddea38e2bf4d6ea7d3f9ed3b6ad7f176419f4963bd81318067a4aee73fe9060200160405180910390a25b50506105c660018055565b565b6105d0610e72565b6105c66111e5565b6105e1816103dd565b6104f16104f4565b6105f1610ecc565b6000818152600560205260409020546001600160a01b031633146106465760405162461bcd60e51b815260206004820152600c60248201526b139bdd081e5bdd5c8813919560a21b6044820152606401610476565b6106503382610f78565b336000908152600460205260408120600101556104f160018055565b6001600160a01b03811660009081526004602090815260408083208151815460a094810282018501909352608081018381528594919384928491908401828280156106d657602002820191906000526020600020905b8154815260200190600101908083116106c2575b50505091835250506001820154602082015260028201546040820152600390910154606090910152805151909150600081900361071857506020015192915050565b600082604001514261072a91906116b3565b90506000670de0b6b3a7640000826008548561074691906116c6565b61075091906116c6565b61075a91906116dd565b905083602001518161076c919061169a565b9695505050505050565b61077e610e72565b6105c66000611237565b610790610e72565b6105c6611294565b6107a0610ecc565b6107a8610f25565b3380156107e0576107b88161066c565b6001600160a01b03821660009081526004602052604090206001810191909155426002909101555b60075433600090815260046020526040902060030154610800919061169a565b42101561083e5760405162461bcd60e51b815260206004820152600c60248201526b14dd1a5b1b081b1bd8dad95960a21b6044820152606401610476565b3360009081526004602090815260408083208054825181850281018501909352808352919290919083018282801561089557602002820191906000526020600020905b815481526020019060010190808311610881575b5050505050905060008151116108ed5760405162461bcd60e51b815260206004820152601360248201527f4e6f204e46547320746f207769746864726177000000000000000000000000006044820152606401610476565b80515b80156109355761092333836109066001856116b3565b81518110610916576109166116ff565b6020026020010151610f78565b8061092d81611715565b9150506108f0565b503360009081526004602052604081206105bb91611609565b610956610e72565b6002546104f19061010090046001600160a01b03163330846112d1565b61097b610e72565b600060088290556040518281527f41d466ebd06fb97e7786086ac8b69b7eb7da798592036251291d34e9791cde019060200160405180910390a15050565b6109c1610ecc565b6109c9610f25565b338015610a01576109d98161066c565b6001600160a01b03821660009081526004602052604090206001810191909155426002909101555b6000828152600560205260409020546001600160a01b031615610a665760405162461bcd60e51b815260206004820152601260248201527f4e465420616c7265616479207374616b656400000000000000000000000000006044820152606401610476565b33600081815260046020908152604080832080546001810182559084528284200186905585835260059091528120805473ffffffffffffffffffffffffffffffffffffffff19169092179091556006805491610ac18361172c565b9091555050336000908152600460205260408120600201549003610af657336000908152600460205260409020426002909101555b3360008181526004602081905260409182902042600391820155549151632142170760e11b815290810192909252306024830152604482018490526001600160a01b0316906342842e0e90606401600060405180830381600087803b158015610b5e57600080fd5b505af1158015610b72573d6000803e3d6000fd5b50506040518481523392507f9e71bc8eea02a63969f509818f2dafb9254532904319f9dbda79b67bd34a5f3d915060200160405180910390a2506104f160018055565b610bbd610798565b6105c66104f4565b610bcd610ecc565b33600090815260046020908152604080832080548251818502810185019093528083529192909190830182828015610c2457602002820191906000526020600020905b815481526020019060010190808311610c10575b505050505090506000815111610c7c5760405162461bcd60e51b815260206004820152600e60248201527f4e6f204e465473207374616b65640000000000000000000000000000000000006044820152606401610476565b80515b8015610da157600082610c936001846116b3565b81518110610ca357610ca36116ff565b6020908102919091018101516000818152600590925260408220805473ffffffffffffffffffffffffffffffffffffffff19169055600680549193509091610cea83611715565b9091555050600354604051632142170760e11b8152306004820152336024820152604481018390526001600160a01b03909116906342842e0e90606401600060405180830381600087803b158015610d4157600080fd5b505af1158015610d55573d6000803e3d6000fd5b50506040518381523392507f7084f5476618d8e60b11ef0d7d3f06914655adb8793e28ff7f018d4c76d505d5915060200160405180910390a25080610d9981611715565b915050610c7f565b50336000908152600460205260408120610dba91611609565b503360009081526004602052604081206001810182905560028101829055600301556105c660018055565b610ded610e72565b6001600160a01b038116610e695760405162461bcd60e51b815260206004820152602660248201527f4f776e61626c653a206e6577206f776e657220697320746865207a65726f206160448201527f64647265737300000000000000000000000000000000000000000000000000006064820152608401610476565b6104f181611237565b6000546001600160a01b031633146105c65760405162461bcd60e51b815260206004820181905260248201527f4f776e61626c653a2063616c6c6572206973206e6f7420746865206f776e65726044820152606401610476565b600260015403610f1e5760405162461bcd60e51b815260206004820152601f60248201527f5265656e7472616e637947756172643a207265656e7472616e742063616c6c006044820152606401610476565b6002600155565b60025460ff16156105c65760405162461bcd60e51b815260206004820152601060248201527f5061757361626c653a20706175736564000000000000000000000000000000006044820152606401610476565b6001600160a01b0382166000908152600460205260408120905b81548110156110465782828281548110610fae57610fae6116ff565b9060005260206000200154036110345781548290610fce906001906116b3565b81548110610fde57610fde6116ff565b9060005260206000200154828281548110610ffb57610ffb6116ff565b90600052602060002001819055508180548061101957611019611745565b60019003818190600052602060002001600090559055611046565b8061103e8161172c565b915050610f92565b506000828152600560205260408120805473ffffffffffffffffffffffffffffffffffffffff19169055600680549161107e83611715565b9091555050600354604051632142170760e11b81523060048201526001600160a01b03858116602483015260448201859052909116906342842e0e90606401600060405180830381600087803b1580156110d757600080fd5b505af11580156110eb573d6000803e3d6000fd5b50505050826001600160a01b03167f7084f5476618d8e60b11ef0d7d3f06914655adb8793e28ff7f018d4c76d505d58360405161112a91815260200190565b60405180910390a2505050565b6040516001600160a01b0383166024820152604481018290526111e09084907fa9059cbb00000000000000000000000000000000000000000000000000000000906064015b60408051601f198184030181529190526020810180517bffffffffffffffffffffffffffffffffffffffffffffffffffffffff167fffffffff0000000000000000000000000000000000000000000000000000000090931692909217909152611328565b505050565b6111ed611410565b6002805460ff191690557f5db9ee0a495bf2e6ff9c91a7834c1ba4fdd244a5e8aa4e537bd38aeae4b073aa335b6040516001600160a01b03909116815260200160405180910390a1565b600080546001600160a01b0383811673ffffffffffffffffffffffffffffffffffffffff19831681178455604051919092169283917f8be0079c531659141344cd1fd0a4f28419497f9722a3daafe3b4186f6b6457e09190a35050565b61129c610f25565b6002805460ff191660011790557f62e78cea01bee320cd4e420270b5ea74000d11b0c9f74754ebdbfc544b05a25861121a3390565b6040516001600160a01b03808516602483015283166044820152606481018290526113229085907f23b872dd000000000000000000000000000000000000000000000000000000009060840161117c565b50505050565b600061137d826040518060400160405280602081526020017f5361666545524332303a206c6f772d6c6576656c2063616c6c206661696c6564815250856001600160a01b03166114629092919063ffffffff16565b905080516000148061139e57508080602001905181019061139e919061175b565b6111e05760405162461bcd60e51b815260206004820152602a60248201527f5361666545524332303a204552433230206f7065726174696f6e20646964206e60448201527f6f742073756363656564000000000000000000000000000000000000000000006064820152608401610476565b60025460ff166105c65760405162461bcd60e51b815260206004820152601460248201527f5061757361626c653a206e6f74207061757365640000000000000000000000006044820152606401610476565b60606114718484600085611479565b949350505050565b6060824710156114f15760405162461bcd60e51b815260206004820152602660248201527f416464726573733a20696e73756666696369656e742062616c616e636520666f60448201527f722063616c6c00000000000000000000000000000000000000000000000000006064820152608401610476565b600080866001600160a01b0316858760405161150d91906117a1565b60006040518083038185875af1925050503d806000811461154a576040519150601f19603f3d011682016040523d82523d6000602084013e61154f565b606091505b50915091506115608783838761156b565b979650505050505050565b606083156115da5782516000036115d3576001600160a01b0385163b6115d35760405162461bcd60e51b815260206004820152601d60248201527f416464726573733a2063616c6c20746f206e6f6e2d636f6e74726163740000006044820152606401610476565b5081611471565b61147183838151156115ef5781518083602001fd5b8060405162461bcd60e51b815260040161047691906117bd565b50805460008255906000526020600020908101906104f191905b808211156116375760008155600101611623565b5090565b60006020828403121561164d57600080fd5b5035919050565b60006020828403121561166657600080fd5b81356001600160a01b038116811461167d57600080fd5b9392505050565b634e487b7160e01b600052601160045260246000fd5b808201808211156116ad576116ad611684565b92915050565b818103818111156116ad576116ad611684565b80820281158282048414176116ad576116ad611684565b6000826116fa57634e487b7160e01b600052601260045260246000fd5b500490565b634e487b7160e01b600052603260045260246000fd5b60008161172457611724611684565b506000190190565b60006001820161173e5761173e611684565b5060010190565b634e487b7160e01b600052603160045260246000fd5b60006020828403121561176d57600080fd5b8151801515811461167d57600080fd5b60005b83811015611798578181015183820152602001611780565b50506000910152565b600082516117b381846020870161177d565b9190910192915050565b60208152600082518060208401526117dc81604085016020870161177d565b601f01601f1916919091016040019291505056fea2646970667358221220403e1246f306a7df92dcd9f3cdbf2cd6c81c806ff7cf05898d2a33a435486de664736f6c63430008130033",
  "linkReferences": {},
  "deployedLinkReferences": {}
}