{
  "_format": "hh-sol-artifact-1",
  "contractName": "NFT",
  "sourceName": "contracts/NFT.sol",
  "abi": [
    {
      "inputs": [
        {
          "internalType": "string",
          "name": "_name",
          "type": "string"
        },
        {
          "internalType": "string",
          "name": "_symbol",
          "type": "string"
        },
        {
          "internalType": "string",
          "name": "_initBaseURI",
          "type": "string"
        },
        {
          "internalType": "string",
          "name": "_initNotRevealedUri",
          "type": "string"
        }
      ],
      "stateMutability": "nonpayable",
      "type": "constructor"
    },
    {
      "anonymous": false,
      "inputs": [
        {
          "indexed": true,
          "internalType": "address",
          "name": "owner",
          "type": "address"
        },
        {
          "indexed": true,
          "internalType": "address",
          "name": "approved",
          "type": "address"
        },
        {
          "indexed": true,
          "internalType": "uint256",
          "name": "tokenId",
          "type": "uint256"
        }
      ],
      "name": "Approval",
      "type": "event"
    },
    {
      "anonymous": false,
      "inputs": [
        {
          "indexed": true,
          "internalType": "address",
          "name": "owner",
          "type": "address"
        },
        {
          "indexed": true,
          "internalType": "address",
          "name": "operator",
          "type": "address"
        },
        {
          "indexed": false,
          "internalType": "bool",
          "name": "approved",
          "type": "bool"
        }
      ],
      "name": "ApprovalForAll",
      "type": "event"
    },
    {
      "anonymous": false,
      "inputs": [
        {
          "indexed": true,
          "internalType": "address",
          "name": "previousOwner",
          "type": "address"
        },
        {
          "indexed": true,
          "internalType": "address",
          "name": "newOwner",
          "type": "address"
        }
      ],
      "name": "OwnershipTransferred",
      "type": "event"
    },
    {
      "anonymous": false,
      "inputs": [
        {
          "indexed": true,
          "internalType": "address",
          "name": "from",
          "type": "address"
        },
        {
          "indexed": true,
          "internalType": "address",
          "name": "to",
          "type": "address"
        },
        {
          "indexed": true,
          "internalType": "uint256",
          "name": "tokenId",
          "type": "uint256"
        }
      ],
      "name": "Transfer",
      "type": "event"
    },
    {
      "inputs": [
        {
          "internalType": "address",
          "name": "to",
          "type": "address"
        },
        {
          "internalType": "uint256",
          "name": "tokenId",
          "type": "uint256"
        }
      ],
      "name": "approve",
      "outputs": [],
      "stateMutability": "nonpayable",
      "type": "function"
    },
    {
      "inputs": [
        {
          "internalType": "address",
          "name": "owner",
          "type": "address"
        }
      ],
      "name": "balanceOf",
      "outputs": [
        {
          "internalType": "uint256",
          "name": "",
          "type": "uint256"
        }
      ],
      "stateMutability": "view",
      "type": "function"
    },
    {
      "inputs": [],
      "name": "baseExtension",
      "outputs": [
        {
          "internalType": "string",
          "name": "",
          "type": "string"
        }
      ],
      "stateMutability": "view",
      "type": "function"
    },
    {
      "inputs": [],
      "name": "cost",
      "outputs": [
        {
          "internalType": "uint256",
          "name": "",
          "type": "uint256"
        }
      ],
      "stateMutability": "view",
      "type": "function"
    },
    {
      "inputs": [
        {
          "internalType": "uint256",
          "name": "tokenId",
          "type": "uint256"
        }
      ],
      "name": "getApproved",
      "outputs": [
        {
          "internalType": "address",
          "name": "",
          "type": "address"
        }
      ],
      "stateMutability": "view",
      "type": "function"
    },
    {
      "inputs": [
        {
          "internalType": "address",
          "name": "owner",
          "type": "address"
        },
        {
          "internalType": "address",
          "name": "operator",
          "type": "address"
        }
      ],
      "name": "isApprovedForAll",
      "outputs": [
        {
          "internalType": "bool",
          "name": "",
          "type": "bool"
        }
      ],
      "stateMutability": "view",
      "type": "function"
    },
    {
      "inputs": [],
      "name": "maxMintAmount",
      "outputs": [
        {
          "internalType": "uint256",
          "name": "",
          "type": "uint256"
        }
      ],
      "stateMutability": "view",
      "type": "function"
    },
    {
      "inputs": [],
      "name": "maxSupply",
      "outputs": [
        {
          "internalType": "uint256",
          "name": "",
          "type": "uint256"
        }
      ],
      "stateMutability": "view",
      "type": "function"
    },
    {
      "inputs": [
        {
          "internalType": "uint256",
          "name": "_mintAmount",
          "type": "uint256"
        }
      ],
      "name": "mint",
      "outputs": [],
      "stateMutability": "payable",
      "type": "function"
    },
    {
      "inputs": [],
      "name": "name",
      "outputs": [
        {
          "internalType": "string",
          "name": "",
          "type": "string"
        }
      ],
      "stateMutability": "view",
      "type": "function"
    },
    {
      "inputs": [],
      "name": "notRevealedUri",
      "outputs": [
        {
          "internalType": "string",
          "name": "",
          "type": "string"
        }
      ],
      "stateMutability": "view",
      "type": "function"
    },
    {
      "inputs": [],
      "name": "owner",
      "outputs": [
        {
          "internalType": "address",
          "name": "",
          "type": "address"
        }
      ],
      "stateMutability": "view",
      "type": "function"
    },
    {
      "inputs": [
        {
          "internalType": "uint256",
          "name": "tokenId",
          "type": "uint256"
        }
      ],
      "name": "ownerOf",
      "outputs": [
        {
          "internalType": "address",
          "name": "",
          "type": "address"
        }
      ],
      "stateMutability": "view",
      "type": "function"
    },
    {
      "inputs": [
        {
          "internalType": "bool",
          "name": "_state",
          "type": "bool"
        }
      ],
      "name": "pause",
      "outputs": [],
      "stateMutability": "nonpayable",
      "type": "function"
    },
    {
      "inputs": [],
      "name": "paused",
      "outputs": [
        {
          "internalType": "bool",
          "name": "",
          "type": "bool"
        }
      ],
      "stateMutability": "view",
      "type": "function"
    },
    {
      "inputs": [],
      "name": "renounceOwnership",
      "outputs": [],
      "stateMutability": "nonpayable",
      "type": "function"
    },
    {
      "inputs": [],
      "name": "reveal",
      "outputs": [],
      "stateMutability": "nonpayable",
      "type": "function"
    },
    {
      "inputs": [],
      "name": "revealed",
      "outputs": [
        {
          "internalType": "bool",
          "name": "",
          "type": "bool"
        }
      ],
      "stateMutability": "view",
      "type": "function"
    },
    {
      "inputs": [
        {
          "internalType": "address",
          "name": "from",
          "type": "address"
        },
        {
          "internalType": "address",
          "name": "to",
          "type": "address"
        },
        {
          "internalType": "uint256",
          "name": "tokenId",
          "type": "uint256"
        }
      ],
      "name": "safeTransferFrom",
      "outputs": [],
      "stateMutability": "nonpayable",
      "type": "function"
    },
    {
      "inputs": [
        {
          "internalType": "address",
          "name": "from",
          "type": "address"
        },
        {
          "internalType": "address",
          "name": "to",
          "type": "address"
        },
        {
          "internalType": "uint256",
          "name": "tokenId",
          "type": "uint256"
        },
        {
          "internalType": "bytes",
          "name": "_data",
          "type": "bytes"
        }
      ],
      "name": "safeTransferFrom",
      "outputs": [],
      "stateMutability": "nonpayable",
      "type": "function"
    },
    {
      "inputs": [
        {
          "internalType": "address",
          "name": "operator",
          "type": "address"
        },
        {
          "internalType": "bool",
          "name": "approved",
          "type": "bool"
        }
      ],
      "name": "setApprovalForAll",
      "outputs": [],
      "stateMutability": "nonpayable",
      "type": "function"
    },
    {
      "inputs": [
        {
          "internalType": "string",
          "name": "_newBaseExtension",
          "type": "string"
        }
      ],
      "name": "setBaseExtension",
      "outputs": [],
      "stateMutability": "nonpayable",
      "type": "function"
    },
    {
      "inputs": [
        {
          "internalType": "string",
          "name": "_newBaseURI",
          "type": "string"
        }
      ],
      "name": "setBaseURI",
      "outputs": [],
      "stateMutability": "nonpayable",
      "type": "function"
    },
    {
      "inputs": [
        {
          "internalType": "uint256",
          "name": "_newCost",
          "type": "uint256"
        }
      ],
      "name": "setCost",
      "outputs": [],
      "stateMutability": "nonpayable",
      "type": "function"
    },
    {
      "inputs": [
        {
          "internalType": "string",
          "name": "_notRevealedURI",
          "type": "string"
        }
      ],
      "name": "setNotRevealedURI",
      "outputs": [],
      "stateMutability": "nonpayable",
      "type": "function"
    },
    {
      "inputs": [
        {
          "internalType": "uint256",
          "name": "_newmaxMintAmount",
          "type": "uint256"
        }
      ],
      "name": "setmaxMintAmount",
      "outputs": [],
      "stateMutability": "nonpayable",
      "type": "function"
    },
    {
      "inputs": [
        {
          "internalType": "bytes4",
          "name": "interfaceId",
          "type": "bytes4"
        }
      ],
      "name": "supportsInterface",
      "outputs": [
        {
          "internalType": "bool",
          "name": "",
          "type": "bool"
        }
      ],
      "stateMutability": "view",
      "type": "function"
    },
    {
      "inputs": [],
      "name": "symbol",
      "outputs": [
        {
          "internalType": "string",
          "name": "",
          "type": "string"
        }
      ],
      "stateMutability": "view",
      "type": "function"
    },
    {
      "inputs": [
        {
          "internalType": "uint256",
          "name": "index",
          "type": "uint256"
        }
      ],
      "name": "tokenByIndex",
      "outputs": [
        {
          "internalType": "uint256",
          "name": "",
          "type": "uint256"
        }
      ],
      "stateMutability": "view",
      "type": "function"
    },
    {
      "inputs": [
        {
          "internalType": "address",
          "name": "owner",
          "type": "address"
        },
        {
          "internalType": "uint256",
          "name": "index",
          "type": "uint256"
        }
      ],
      "name": "tokenOfOwnerByIndex",
      "outputs": [
        {
          "internalType": "uint256",
          "name": "",
          "type": "uint256"
        }
      ],
      "stateMutability": "view",
      "type": "function"
    },
    {
      "inputs": [
        {
          "internalType": "uint256",
          "name": "tokenId",
          "type": "uint256"
        }
      ],
      "name": "tokenURI",
      "outputs": [
        {
          "internalType": "string",
          "name": "",
          "type": "string"
        }
      ],
      "stateMutability": "view",
      "type": "function"
    },
    {
      "inputs": [],
      "name": "totalSupply",
      "outputs": [
        {
          "internalType": "uint256",
          "name": "",
          "type": "uint256"
        }
      ],
      "stateMutability": "view",
      "type": "function"
    },
    {
      "inputs": [
        {
          "internalType": "address",
          "name": "from",
          "type": "address"
        },
        {
          "internalType": "address",
          "name": "to",
          "type": "address"
        },
        {
          "internalType": "uint256",
          "name": "tokenId",
          "type": "uint256"
        }
      ],
      "name": "transferFrom",
      "outputs": [],
      "stateMutability": "nonpayable",
      "type": "function"
    },
    {
      "inputs": [
        {
          "internalType": "address",
          "name": "newOwner",
          "type": "address"
        }
      ],
      "name": "transferOwnership",
      "outputs": [],
      "stateMutability": "nonpayable",
      "type": "function"
    },
    {
      "inputs": [
        {
          "internalType": "address",
          "name": "_owner",
          "type": "address"
        }
      ],
      "name": "walletOfOwner",
      "outputs": [
        {
          "internalType": "uint256[]",
          "name": "",
          "type": "uint256[]"
        }
      ],
      "stateMutability": "view",
      "type": "function"
    },
    {
      "inputs": [],
      "name": "withdraw",
      "outputs": [],
      "stateMutability": "payable",
      "type": "function"
    }
  ],
  "bytecode": "0x60c06040526005608090815264173539b7b760d91b60a052600c906200002690826200028c565b506509184e72a000600d5561217e600e556014600f556010805461ffff19166101001790553480156200005857600080fd5b5060405162002d6b38038062002d6b8339810160408190526200007b9162000407565b838360006200008b83826200028c565b5060016200009a82826200028c565b505050620000b7620000b1620000d760201b60201c565b620000db565b620000c2826200012d565b620000cd816200018e565b50505050620004c0565b3390565b600a80546001600160a01b038381166001600160a01b0319831681179093556040519116919082907f8be0079c531659141344cd1fd0a4f28419497f9722a3daafe3b4186f6b6457e090600090a35050565b600a546001600160a01b031633146200017c5760405162461bcd60e51b8152602060048201819052602482015260008051602062002d4b83398151915260448201526064015b60405180910390fd5b600b6200018a82826200028c565b5050565b600a546001600160a01b03163314620001d95760405162461bcd60e51b8152602060048201819052602482015260008051602062002d4b833981519152604482015260640162000173565b60116200018a82826200028c565b634e487b7160e01b600052604160045260246000fd5b600181811c908216806200021257607f821691505b6020821081036200023357634e487b7160e01b600052602260045260246000fd5b50919050565b601f8211156200028757600081815260208120601f850160051c81016020861015620002625750805b601f850160051c820191505b8181101562000283578281556001016200026e565b5050505b505050565b81516001600160401b03811115620002a857620002a8620001e7565b620002c081620002b98454620001fd565b8462000239565b602080601f831160018114620002f85760008415620002df5750858301515b600019600386901b1c1916600185901b17855562000283565b600085815260208120601f198616915b82811015620003295788860151825594840194600190910190840162000308565b5085821015620003485787850151600019600388901b60f8161c191681555b5050505050600190811b01905550565b600082601f8301126200036a57600080fd5b81516001600160401b0380821115620003875762000387620001e7565b604051601f8301601f19908116603f01168101908282118183101715620003b257620003b2620001e7565b81604052838152602092508683858801011115620003cf57600080fd5b600091505b83821015620003f35785820183015181830184015290820190620003d4565b600093810190920192909252949350505050565b600080600080608085870312156200041e57600080fd5b84516001600160401b03808211156200043657600080fd5b620004448883890162000358565b955060208701519150808211156200045b57600080fd5b620004698883890162000358565b945060408701519150808211156200048057600080fd5b6200048e8883890162000358565b93506060870151915080821115620004a557600080fd5b50620004b48782880162000358565b91505092959194509250565b61287b80620004d06000396000f3fe60806040526004361061024f5760003560e01c80635c975abb11610138578063a475b5dd116100b0578063d5abeb011161007f578063e985e9c511610064578063e985e9c514610632578063f2c4ce1e1461067b578063f2fde38b1461069b57600080fd5b8063d5abeb01146105fc578063da3ef23f1461061257600080fd5b8063a475b5dd14610592578063b88d4fde146105a7578063c6682862146105c7578063c87b56dd146105dc57600080fd5b80637f00c7a61161010757806395d89b41116100ec57806395d89b411461054a578063a0712d681461055f578063a22cb4651461057257600080fd5b80637f00c7a61461050c5780638da5cb5b1461052c57600080fd5b80635c975abb1461049d5780636352211e146104b757806370a08231146104d7578063715018a6146104f757600080fd5b806323b872dd116101cb578063438b63001161019a5780634f6ccce71161017f5780634f6ccce71461043e578063518302271461045e57806355f804b31461047d57600080fd5b8063438b6300146103f157806344a0d68a1461041e57600080fd5b806323b872dd146103895780632f745c59146103a95780633ccfd60b146103c957806342842e0e146103d157600080fd5b8063081c8c441161022257806313faede61161020757806313faede61461033a57806318160ddd1461035e578063239c70ae1461037357600080fd5b8063081c8c4414610305578063095ea7b31461031a57600080fd5b806301ffc9a71461025457806302329a291461028957806306fdde03146102ab578063081812fc146102cd575b600080fd5b34801561026057600080fd5b5061027461026f3660046121db565b6106bb565b60405190151581526020015b60405180910390f35b34801561029557600080fd5b506102a96102a436600461220d565b6106ff565b005b3480156102b757600080fd5b506102c0610771565b6040516102809190612278565b3480156102d957600080fd5b506102ed6102e836600461228b565b610803565b6040516001600160a01b039091168152602001610280565b34801561031157600080fd5b506102c0610898565b34801561032657600080fd5b506102a96103353660046122bb565b610926565b34801561034657600080fd5b50610350600d5481565b604051908152602001610280565b34801561036a57600080fd5b50600854610350565b34801561037f57600080fd5b50610350600f5481565b34801561039557600080fd5b506102a96103a43660046122e5565b610a57565b3480156103b557600080fd5b506103506103c43660046122bb565b610ade565b6102a9610b86565b3480156103dd57600080fd5b506102a96103ec3660046122e5565b610c54565b3480156103fd57600080fd5b5061041161040c366004612321565b610c6f565b604051610280919061233c565b34801561042a57600080fd5b506102a961043936600461228b565b610d11565b34801561044a57600080fd5b5061035061045936600461228b565b610d70565b34801561046a57600080fd5b5060105461027490610100900460ff1681565b34801561048957600080fd5b506102a961049836600461240c565b610e14565b3480156104a957600080fd5b506010546102749060ff1681565b3480156104c357600080fd5b506102ed6104d236600461228b565b610e7e565b3480156104e357600080fd5b506103506104f2366004612321565b610f09565b34801561050357600080fd5b506102a9610fa3565b34801561051857600080fd5b506102a961052736600461228b565b611009565b34801561053857600080fd5b50600a546001600160a01b03166102ed565b34801561055657600080fd5b506102c0611068565b6102a961056d36600461228b565b611077565b34801561057e57600080fd5b506102a961058d366004612455565b611124565b34801561059e57600080fd5b506102a96111e8565b3480156105b357600080fd5b506102a96105c2366004612488565b611253565b3480156105d357600080fd5b506102c06112e1565b3480156105e857600080fd5b506102c06105f736600461228b565b6112ee565b34801561060857600080fd5b50610350600e5481565b34801561061e57600080fd5b506102a961062d36600461240c565b611480565b34801561063e57600080fd5b5061027461064d366004612504565b6001600160a01b03918216600090815260056020908152604080832093909416825291909152205460ff1690565b34801561068757600080fd5b506102a961069636600461240c565b6114e6565b3480156106a757600080fd5b506102a96106b6366004612321565b61154c565b60006001600160e01b031982167f780e9d630000000000000000000000000000000000000000000000000000000014806106f957506106f98261162b565b92915050565b600a546001600160a01b0316331461075e5760405162461bcd60e51b815260206004820181905260248201527f4f776e61626c653a2063616c6c6572206973206e6f7420746865206f776e657260448201526064015b60405180910390fd5b6010805460ff1916911515919091179055565b6060600080546107809061252e565b80601f01602080910402602001604051908101604052809291908181526020018280546107ac9061252e565b80156107f95780601f106107ce576101008083540402835291602001916107f9565b820191906000526020600020905b8154815290600101906020018083116107dc57829003601f168201915b5050505050905090565b6000818152600260205260408120546001600160a01b031661087c5760405162461bcd60e51b815260206004820152602c60248201527f4552433732313a20617070726f76656420717565727920666f72206e6f6e657860448201526b34b9ba32b73a103a37b5b2b760a11b6064820152608401610755565b506000908152600460205260409020546001600160a01b031690565b601180546108a59061252e565b80601f01602080910402602001604051908101604052809291908181526020018280546108d19061252e565b801561091e5780601f106108f35761010080835404028352916020019161091e565b820191906000526020600020905b81548152906001019060200180831161090157829003601f168201915b505050505081565b600061093182610e7e565b9050806001600160a01b0316836001600160a01b0316036109ba5760405162461bcd60e51b815260206004820152602160248201527f4552433732313a20617070726f76616c20746f2063757272656e74206f776e6560448201527f72000000000000000000000000000000000000000000000000000000000000006064820152608401610755565b336001600160a01b03821614806109d657506109d6813361064d565b610a485760405162461bcd60e51b815260206004820152603860248201527f4552433732313a20617070726f76652063616c6c6572206973206e6f74206f7760448201527f6e6572206e6f7220617070726f76656420666f7220616c6c00000000000000006064820152608401610755565b610a5283836116c6565b505050565b610a613382611741565b610ad35760405162461bcd60e51b815260206004820152603160248201527f4552433732313a207472616e736665722063616c6c6572206973206e6f74206f60448201527f776e6572206e6f7220617070726f7665640000000000000000000000000000006064820152608401610755565b610a52838383611838565b6000610ae983610f09565b8210610b5d5760405162461bcd60e51b815260206004820152602b60248201527f455243373231456e756d657261626c653a206f776e657220696e646578206f7560448201527f74206f6620626f756e64730000000000000000000000000000000000000000006064820152608401610755565b506001600160a01b03919091166000908152600660209081526040808320938352929052205490565b600a546001600160a01b03163314610be05760405162461bcd60e51b815260206004820181905260248201527f4f776e61626c653a2063616c6c6572206973206e6f7420746865206f776e65726044820152606401610755565b6000610bf4600a546001600160a01b031690565b6001600160a01b03164760405160006040518083038185875af1925050503d8060008114610c3e576040519150601f19603f3d011682016040523d82523d6000602084013e610c43565b606091505b5050905080610c5157600080fd5b50565b610a5283838360405180602001604052806000815250611253565b60606000610c7c83610f09565b905060008167ffffffffffffffff811115610c9957610c99612380565b604051908082528060200260200182016040528015610cc2578160200160208202803683370190505b50905060005b82811015610d0957610cda8582610ade565b828281518110610cec57610cec612568565b602090810291909101015280610d0181612594565b915050610cc8565b509392505050565b600a546001600160a01b03163314610d6b5760405162461bcd60e51b815260206004820181905260248201527f4f776e61626c653a2063616c6c6572206973206e6f7420746865206f776e65726044820152606401610755565b600d55565b6000610d7b60085490565b8210610def5760405162461bcd60e51b815260206004820152602c60248201527f455243373231456e756d657261626c653a20676c6f62616c20696e646578206f60448201527f7574206f6620626f756e647300000000000000000000000000000000000000006064820152608401610755565b60088281548110610e0257610e02612568565b90600052602060002001549050919050565b600a546001600160a01b03163314610e6e5760405162461bcd60e51b815260206004820181905260248201527f4f776e61626c653a2063616c6c6572206973206e6f7420746865206f776e65726044820152606401610755565b600b610e7a82826125fb565b5050565b6000818152600260205260408120546001600160a01b0316806106f95760405162461bcd60e51b815260206004820152602960248201527f4552433732313a206f776e657220717565727920666f72206e6f6e657869737460448201527f656e7420746f6b656e00000000000000000000000000000000000000000000006064820152608401610755565b60006001600160a01b038216610f875760405162461bcd60e51b815260206004820152602a60248201527f4552433732313a2062616c616e636520717565727920666f7220746865207a6560448201527f726f2061646472657373000000000000000000000000000000000000000000006064820152608401610755565b506001600160a01b031660009081526003602052604090205490565b600a546001600160a01b03163314610ffd5760405162461bcd60e51b815260206004820181905260248201527f4f776e61626c653a2063616c6c6572206973206e6f7420746865206f776e65726044820152606401610755565b6110076000611a1d565b565b600a546001600160a01b031633146110635760405162461bcd60e51b815260206004820181905260248201527f4f776e61626c653a2063616c6c6572206973206e6f7420746865206f776e65726044820152606401610755565b600f55565b6060600180546107809061252e565b600061108260085490565b60105490915060ff161561109557600080fd5b600082116110a257600080fd5b600f548211156110b157600080fd5b600e546110be83836126bb565b11156110c957600080fd5b600a546001600160a01b031633146110f55781600d546110e991906126ce565b3410156110f557600080fd5b60015b828111610a52576111123361110d83856126bb565b611a7c565b8061111c81612594565b9150506110f8565b336001600160a01b0383160361117c5760405162461bcd60e51b815260206004820152601960248201527f4552433732313a20617070726f766520746f2063616c6c6572000000000000006044820152606401610755565b3360008181526005602090815260408083206001600160a01b03871680855290835292819020805460ff191686151590811790915590519081529192917f17307eab39ab6107e8899845ad3d59bd9653f200f220920489ca2b5937696c31910160405180910390a35050565b600a546001600160a01b031633146112425760405162461bcd60e51b815260206004820181905260248201527f4f776e61626c653a2063616c6c6572206973206e6f7420746865206f776e65726044820152606401610755565b6010805461ff001916610100179055565b61125d3383611741565b6112cf5760405162461bcd60e51b815260206004820152603160248201527f4552433732313a207472616e736665722063616c6c6572206973206e6f74206f60448201527f776e6572206e6f7220617070726f7665640000000000000000000000000000006064820152608401610755565b6112db84848484611a96565b50505050565b600c80546108a59061252e565b6000818152600260205260409020546060906001600160a01b031661137b5760405162461bcd60e51b815260206004820152602f60248201527f4552433732314d657461646174613a2055524920717565727920666f72206e6f60448201527f6e6578697374656e7420746f6b656e00000000000000000000000000000000006064820152608401610755565b601054610100900460ff161515600003611421576011805461139c9061252e565b80601f01602080910402602001604051908101604052809291908181526020018280546113c89061252e565b80156114155780601f106113ea57610100808354040283529160200191611415565b820191906000526020600020905b8154815290600101906020018083116113f857829003601f168201915b50505050509050919050565b600061142b611b14565b9050600081511161144b5760405180602001604052806000815250611479565b8061145584611b23565b600c604051602001611469939291906126e5565b6040516020818303038152906040525b9392505050565b600a546001600160a01b031633146114da5760405162461bcd60e51b815260206004820181905260248201527f4f776e61626c653a2063616c6c6572206973206e6f7420746865206f776e65726044820152606401610755565b600c610e7a82826125fb565b600a546001600160a01b031633146115405760405162461bcd60e51b815260206004820181905260248201527f4f776e61626c653a2063616c6c6572206973206e6f7420746865206f776e65726044820152606401610755565b6011610e7a82826125fb565b600a546001600160a01b031633146115a65760405162461bcd60e51b815260206004820181905260248201527f4f776e61626c653a2063616c6c6572206973206e6f7420746865206f776e65726044820152606401610755565b6001600160a01b0381166116225760405162461bcd60e51b815260206004820152602660248201527f4f776e61626c653a206e6577206f776e657220697320746865207a65726f206160448201527f64647265737300000000000000000000000000000000000000000000000000006064820152608401610755565b610c5181611a1d565b60006001600160e01b031982167f80ac58cd00000000000000000000000000000000000000000000000000000000148061168e57506001600160e01b031982167f5b5e139f00000000000000000000000000000000000000000000000000000000145b806106f957507f01ffc9a7000000000000000000000000000000000000000000000000000000006001600160e01b03198316146106f9565b6000818152600460205260409020805473ffffffffffffffffffffffffffffffffffffffff19166001600160a01b038416908117909155819061170882610e7e565b6001600160a01b03167f8c5be1e5ebec7d5bd14f71427d1e84f3dd0314c0f7b2291e5b200ac8c7c3b92560405160405180910390a45050565b6000818152600260205260408120546001600160a01b03166117ba5760405162461bcd60e51b815260206004820152602c60248201527f4552433732313a206f70657261746f7220717565727920666f72206e6f6e657860448201526b34b9ba32b73a103a37b5b2b760a11b6064820152608401610755565b60006117c583610e7e565b9050806001600160a01b0316846001600160a01b031614806118005750836001600160a01b03166117f584610803565b6001600160a01b0316145b8061183057506001600160a01b0380821660009081526005602090815260408083209388168352929052205460ff165b949350505050565b826001600160a01b031661184b82610e7e565b6001600160a01b0316146118c75760405162461bcd60e51b815260206004820152602960248201527f4552433732313a207472616e73666572206f6620746f6b656e2074686174206960448201527f73206e6f74206f776e00000000000000000000000000000000000000000000006064820152608401610755565b6001600160a01b0382166119425760405162461bcd60e51b8152602060048201526024808201527f4552433732313a207472616e7366657220746f20746865207a65726f2061646460448201527f72657373000000000000000000000000000000000000000000000000000000006064820152608401610755565b61194d838383611c58565b6119586000826116c6565b6001600160a01b0383166000908152600360205260408120805460019290611981908490612785565b90915550506001600160a01b03821660009081526003602052604081208054600192906119af9084906126bb565b9091555050600081815260026020526040808220805473ffffffffffffffffffffffffffffffffffffffff19166001600160a01b0386811691821790925591518493918716917fddf252ad1be2c89b69c2b068fc378daa952ba7f163c4a11628f55a4df523b3ef91a4505050565b600a80546001600160a01b0383811673ffffffffffffffffffffffffffffffffffffffff19831681179093556040519116919082907f8be0079c531659141344cd1fd0a4f28419497f9722a3daafe3b4186f6b6457e090600090a35050565b610e7a828260405180602001604052806000815250611d10565b611aa1848484611838565b611aad84848484611d8e565b6112db5760405162461bcd60e51b815260206004820152603260248201527f4552433732313a207472616e7366657220746f206e6f6e20455243373231526560448201527131b2b4bb32b91034b6b83632b6b2b73a32b960711b6064820152608401610755565b6060600b80546107809061252e565b606081600003611b6657505060408051808201909152600181527f3000000000000000000000000000000000000000000000000000000000000000602082015290565b8160005b8115611b905780611b7a81612594565b9150611b899050600a836127ae565b9150611b6a565b60008167ffffffffffffffff811115611bab57611bab612380565b6040519080825280601f01601f191660200182016040528015611bd5576020820181803683370190505b5090505b841561183057611bea600183612785565b9150611bf7600a866127c2565b611c029060306126bb565b60f81b818381518110611c1757611c17612568565b60200101907effffffffffffffffffffffffffffffffffffffffffffffffffffffffffffff1916908160001a905350611c51600a866127ae565b9450611bd9565b6001600160a01b038316611cb357611cae81600880546000838152600960205260408120829055600182018355919091527ff3f7a9fe364faab93b216da50a3214154f22a0a2b415b23a84c8169e8b636ee30155565b611cd6565b816001600160a01b0316836001600160a01b031614611cd657611cd68382611eda565b6001600160a01b038216611ced57610a5281611f77565b826001600160a01b0316826001600160a01b031614610a5257610a528282612026565b611d1a838361206a565b611d276000848484611d8e565b610a525760405162461bcd60e51b815260206004820152603260248201527f4552433732313a207472616e7366657220746f206e6f6e20455243373231526560448201527131b2b4bb32b91034b6b83632b6b2b73a32b960711b6064820152608401610755565b60006001600160a01b0384163b15611ecf57604051630a85bd0160e11b81526001600160a01b0385169063150b7a0290611dd29033908990889088906004016127d6565b6020604051808303816000875af1925050508015611e0d575060408051601f3d908101601f19168201909252611e0a91810190612812565b60015b611eb5573d808015611e3b576040519150601f19603f3d011682016040523d82523d6000602084013e611e40565b606091505b508051600003611ead5760405162461bcd60e51b815260206004820152603260248201527f4552433732313a207472616e7366657220746f206e6f6e20455243373231526560448201527131b2b4bb32b91034b6b83632b6b2b73a32b960711b6064820152608401610755565b805181602001fd5b6001600160e01b031916630a85bd0160e11b149050611830565b506001949350505050565b60006001611ee784610f09565b611ef19190612785565b600083815260076020526040902054909150808214611f44576001600160a01b03841660009081526006602090815260408083208584528252808320548484528184208190558352600790915290208190555b5060009182526007602090815260408084208490556001600160a01b039094168352600681528383209183525290812055565b600854600090611f8990600190612785565b60008381526009602052604081205460088054939450909284908110611fb157611fb1612568565b906000526020600020015490508060088381548110611fd257611fd2612568565b600091825260208083209091019290925582815260099091526040808220849055858252812055600880548061200a5761200a61282f565b6001900381819060005260206000200160009055905550505050565b600061203183610f09565b6001600160a01b039093166000908152600660209081526040808320868452825280832085905593825260079052919091209190915550565b6001600160a01b0382166120c05760405162461bcd60e51b815260206004820181905260248201527f4552433732313a206d696e7420746f20746865207a65726f20616464726573736044820152606401610755565b6000818152600260205260409020546001600160a01b0316156121255760405162461bcd60e51b815260206004820152601c60248201527f4552433732313a20746f6b656e20616c7265616479206d696e746564000000006044820152606401610755565b61213160008383611c58565b6001600160a01b038216600090815260036020526040812080546001929061215a9084906126bb565b9091555050600081815260026020526040808220805473ffffffffffffffffffffffffffffffffffffffff19166001600160a01b03861690811790915590518392907fddf252ad1be2c89b69c2b068fc378daa952ba7f163c4a11628f55a4df523b3ef908290a45050565b6001600160e01b031981168114610c5157600080fd5b6000602082840312156121ed57600080fd5b8135611479816121c5565b8035801515811461220857600080fd5b919050565b60006020828403121561221f57600080fd5b611479826121f8565b60005b8381101561224357818101518382015260200161222b565b50506000910152565b60008151808452612264816020860160208601612228565b601f01601f19169290920160200192915050565b602081526000611479602083018461224c565b60006020828403121561229d57600080fd5b5035919050565b80356001600160a01b038116811461220857600080fd5b600080604083850312156122ce57600080fd5b6122d7836122a4565b946020939093013593505050565b6000806000606084860312156122fa57600080fd5b612303846122a4565b9250612311602085016122a4565b9150604084013590509250925092565b60006020828403121561233357600080fd5b611479826122a4565b6020808252825182820181905260009190848201906040850190845b8181101561237457835183529284019291840191600101612358565b50909695505050505050565b634e487b7160e01b600052604160045260246000fd5b600067ffffffffffffffff808411156123b1576123b1612380565b604051601f8501601f19908116603f011681019082821181831017156123d9576123d9612380565b816040528093508581528686860111156123f257600080fd5b858560208301376000602087830101525050509392505050565b60006020828403121561241e57600080fd5b813567ffffffffffffffff81111561243557600080fd5b8201601f8101841361244657600080fd5b61183084823560208401612396565b6000806040838503121561246857600080fd5b612471836122a4565b915061247f602084016121f8565b90509250929050565b6000806000806080858703121561249e57600080fd5b6124a7856122a4565b93506124b5602086016122a4565b925060408501359150606085013567ffffffffffffffff8111156124d857600080fd5b8501601f810187136124e957600080fd5b6124f887823560208401612396565b91505092959194509250565b6000806040838503121561251757600080fd5b612520836122a4565b915061247f602084016122a4565b600181811c9082168061254257607f821691505b60208210810361256257634e487b7160e01b600052602260045260246000fd5b50919050565b634e487b7160e01b600052603260045260246000fd5b634e487b7160e01b600052601160045260246000fd5b6000600182016125a6576125a661257e565b5060010190565b601f821115610a5257600081815260208120601f850160051c810160208610156125d45750805b601f850160051c820191505b818110156125f3578281556001016125e0565b505050505050565b815167ffffffffffffffff81111561261557612615612380565b61262981612623845461252e565b846125ad565b602080601f83116001811461265e57600084156126465750858301515b600019600386901b1c1916600185901b1785556125f3565b600085815260208120601f198616915b8281101561268d5788860151825594840194600190910190840161266e565b50858210156126ab5787850151600019600388901b60f8161c191681555b5050505050600190811b01905550565b808201808211156106f9576106f961257e565b80820281158282048414176106f9576106f961257e565b6000845160206126f88285838a01612228565b85519184019161270b8184848a01612228565b855492019160009061271c8161252e565b60018281168015612734576001811461274957612775565b60ff1984168752821515830287019450612775565b896000528560002060005b8481101561276d57815489820152908301908701612754565b505082870194505b50929a9950505050505050505050565b818103818111156106f9576106f961257e565b634e487b7160e01b600052601260045260246000fd5b6000826127bd576127bd612798565b500490565b6000826127d1576127d1612798565b500690565b60006001600160a01b03808716835280861660208401525083604083015260806060830152612808608083018461224c565b9695505050505050565b60006020828403121561282457600080fd5b8151611479816121c5565b634e487b7160e01b600052603160045260246000fdfea26469706673582212207ebaf3c5008bfec89e03cbfcec4c885f26ae29591813076f5409d42447c1aea364736f6c634300081300334f776e61626c653a2063616c6c6572206973206e6f7420746865206f776e6572",
  "linkReferences": {},
  "deployedLinkReferences": {}
}